:020000040800F2
:10000000A01E0020858F00084D8F00084F8F00082C
:10001000518F0008538F0008558F00080000000022
:10002000000000000000000000000000578F0008E2
:10003000598F0008000000005B8F00085D8F0008EA
:10004000958F0008998F00089D8F0008A18F0008E8
:10005000A58F0008A98F0008AD8F0008B18F000898
:10006000B58F0008C9120008D3120008B98F000824
:10007000BD8F0008C18F0008C58F0008C98F000818
:10008000CD8F0008D18F0008D58F0008D98F0008C8
:10009000DD8F0008E18F0008E58F0008E98F000878
:1000A000ED8F0008F18F0008F58F0008F98F000828
:1000B00099120008A5120008B1120008BD1200082C
:1000C000FD8F0008019000080590000809900008C5
:1000D0000D90000811900008811200088D12000890
:1000E0001590000819900008000000001D900008FD
:1000F0002190000825900008299000082D90000804
:100100003190000835900008399000083D900008B3
:100110004190000845900008499000084D90000863
:100120005190000855900008599000085D90000813
:100130006190000865900008699000086D900008C3
:1001400000000000000000000000000000000000AF
:100150007190000875900008799000087D90000863
:100160008190000885900008899000088D90000813
:1001700091900008959000089990000800000000F8
:100180009D900008A1900008A5900008A990000883
:10019000AD900008B1900008B5900008B990000833
:1001A000BD900008C1900008C5900008C9900008E3
:1001B000CD900008D1900008D5900008D990000893
:1001C000DD900008E1900008E5900008E990000843
:1001D000ED900008F1900008F5900008F9900008F3
:1001E000FD900008019100080591000809910008A0
:1001F0000D9100081191000815910008199100084F
:100200001D910008219100082591000829910008FE
:100210002D910008319100083591000839910008AE
:100220003D91000841910008459100080000000040
:10023000499100084D91000800000000519100080C
:1002400055910008599100085D91000861910008DE
:1002500065910008699100086D910008719100088E
:1002600075910008799100087D910008819100083E
:1002700085910008899100088D9100080000000018
:1002800091910008959100089991000800000000E4
:10029000000000009D9100082DE9F84F01F06FFA71
:1002A00001F03EFC01F07AF901F0CDF901F097FA86
:1002B00001F014FB01F08FFBDFF8180D00F030F9AE
:1002C00001F0B0FDDFF8F41A0860DFF80C0DDFF87C
:1002D000F01A0160DFF8EC1A4160DFF8EC1A4161B6
:1002E000DFF8E81A8161DFF8E81AC1610021816056
:1002F0000021C1600020DFF8DC1A0860DFF8D81A9E
:100300000860DFF8D84A2060DFF8D41A08600020BF
:10031000DFF8C81C0860DFF8C40C0068DFF8C01CF8
:1003200008600020DFF8BC1C08600020DFF8B41A69
:1003300008600020DFF8B01A08600420DFF8AC1A6B
:1003400008700120DFF8A81A08600020DFF8981C68
:1003500008600020DFF8941C08600020DFF8901C83
:1003600008600020DFF88C1C0860DFF88C5C01223C
:100370002900DFF8880C01F05AFF2068002804D11A
:100380000020DFF87C1C086063E0DFF8746C3068E4
:100390000F285EDB280003F0B9FA284410F8010C9E
:1003A0000A2806D1280003F0B1FA2844002100F8F9
:1003B000011CDFF8507CDFF8240C00680090DFF8A7
:1003C000200C03682A00DFF8401C380003F0BEFA56
:1003D0002900DFF8380C03F0D9FADFF8348CDFF8A5
:1003E000349CDFF834ACDFF834BCCDF800B05346B1
:1003F0004A46DFF82C1C00F0AAF8C8F800003800C4
:1004000003F084FA020092B23900DFF8F00B01F039
:10041000B4FED8F80000002810D1DFF8B87B9BEDBF
:10042000000ADAF80030D9F800203900280000F07E
:1004300053F900220021380000F0DCFC002030607D
:100440000020206000200A2803DA00212954401CE3
:10045000F9E7DFF8D06B306873280CD1DFF8C87B80
:100460003878002807D101220121DFF8D00C03F0F1
:10047000BBFB01203870706873280CD1DFF8A87BB3
:100480007878002807D101220221DFF84C0C03F014
:10049000ABFB01207870B06873280DD1DFF8887B42
:1004A000B878002808D101224FF48041DFF88C0C85
:1004B00003F09AFB0120B870306878280CD1DFF87F
:1004C000687B3878012807D100220121DFF86C0C05
:1004D00003F08AFB00203870706878280CD1DFF8B0
:1004E000487B7878012807D100220221DFF8E80B49
:1004F00003F07AFB00207870B06878287FF43DAF75
:10050000DFF8246BB07801287FF437AF00224FF476
:100510008041DFF8280C03F067FB0020B0702CE767
:1005200033210170342180F88010352180F80011CA
:10053000362180F8801100214170002180F881105F
:10054000002180F80111002180F8811170472DE908
:10055000F84F86B004000D0016001F00DDF8408043
:100560005FF0000A5FF00009207858280FD12000C2
:1005700003F0CCF9022808D36078522805D1012075
:10058000DFF8601A086000F0A9FD5046A0E020786E
:10059000472801D150469BE0200003F0B7F902281C
:1005A00001D2012094E0207846282BD020785228D0
:1005B00028D020784C2825D02078422822D02078B6
:1005C00058281FD020785A281CD02078432819D0CA
:1005D0002078592816D020784A2813D0207855281A
:1005E00010D0207848280DD020784E280AD02078C6
:1005F0004D2807D02078512804D02078452801D0F4
:10060000012065E00122611C03A803F029FB002002
:100610008DF80D0003A803F0FBFB3060002801D12A
:10062000012055E020784D2802D020784E2814D1A2
:10063000200003F06BF903280BD3A07846280AD0DA
:10064000A078522807D0A078422804D0A0784C285F
:1006500001D00120824650463AE02078512802D04D
:100660002078452833D1200003F050F9062801D224
:1006700001202DE00222A11C684603F0F1FAEB46AE
:1006800000208BF80200684603F0C2FB8146002878
:1006900001D101201CE01E2000FB09F0386002227D
:1006A000211D684603F0DCFA00208BF80200684642
:1006B00003F010FDB7EEC00B88ED000A98ED000ABC
:1006C000B5EE400AF1EE10FA01D1012000E05046EB
:1006D00007B0BDE8F08F00002DE9F0412DED028B51
:1006E00004000D0016001F00B0EE408A0A2000FB37
:1006F00006F05B2190FBF1F801FB180820784728F1
:100700000FD100F097FC00F0E9FC00206870002099
:1007100085F88100002085F80101002085F881011D
:1007200083E2207846280DD185F80180FF2000FB68
:1007300008F085F88100FF2000FB08F085F8010132
:1007400085F88181207842280CD1FF2000FB08F039
:10075000687085F8818085F80181FF2000FB08F032
:1007600085F8810120784C2812D1FF2000FB08F089
:100770006870FF2000FB08F085F88100FF2000FB77
:1007800008F085F80101FF2000FB08F085F88101E1
:100790002078522807D185F8018085F8818085F876
:1007A000018185F8818120785A2811D185F801804E
:1007B000FF2000FB08F085F8810085F80181FF200B
:1007C00000FB08F085F881010120DFF81C180860A3
:1007D0002078432810D1FF2000FB08F0687085F8CE
:1007E0008180FF2000FB08F085F8010185F88181F8
:1007F0000120DFF8F4170860207859280ED1002076
:100800006870FF2000FB08F085F88100FF2000FBE6
:1008100008F085F80101002085F88101207855282D
:1008200009D185F80180002085F88100002085F835
:10083000010185F8818120784A2808D1002068705C
:1008400085F8818085F80181002085F88101207874
:1008500048280ED1FF2000FB08F06870002085F8C2
:100860008100002085F80101FF2000FB08F085F8D9
:10087000810120784E2840F0C480A07842285DD0C5
:10088000462805D04C2800F0888052282FD0B8E0A8
:1008900000EE108AB8EEC00B01EE108AB8EEC11B54
:1008A0009FEDE43B01EE030BBDEEC00B10EE100A12
:1008B00068705FF0FF3000FB08F000EE100AB8EE41
:1008C000C00B01EE108AB8EEC11B9FEDDC3B01EEC0
:1008D000030BBDEEC00B10EE100A85F88100FF205F
:1008E00000FB08F085F8010185F8818189E085F831
:1008F00001809FEDD20B01EE108AB8EEC11B02EE13
:10090000108AB8EEC22B02EE001BBDEEC11B11EE29
:10091000100A85F8810085F8018101EE108AB8EE91
:10092000C11B02EE108AB8EEC22B02EE001BBDEE18
:10093000C10B10EE100A85F8810162E0FF2000FB78
:1009400008F0687085F8818000EE108AB8EEC00B60
:1009500001EE108AB8EEC11B9FEDB63B01EE030B12
:10096000BDEEC00B10EE100A85F801015FF0FF30FC
:1009700000FB08F000EE100AB8EEC00B01EE108A82
:10098000B8EEC11B9FEDAD3B01EE030BBDEEC00BFE
:1009900010EE100A85F8810133E0FF2000FB08F01B
:1009A00068709FEDA60B5FF0FF3000FB08F001EED2
:1009B000100AB8EEC11B02EE108AB8EEC22B02EE8E
:1009C000001BBDEEC11B11EE100A85F88100FF204F
:1009D00000FB08F085F801015FF0FF3000FB08F034
:1009E00001EE100AB8EEC11B02EE108AB8EEC22B5F
:1009F00002EE001BBDEEC10B10EE100A85F881015E
:100A0000FFE720784D2840F0C480A07842285DD0D0
:100A1000462805D04C2800F08880522830D0B8E015
:100A200085F80180FF2000FB08F085F881005FF069
:100A3000FF3000FB08F000EE100AB8EEC00B01EE2C
:100A4000108AB8EEC11B9FED7D3B01EE030BBDEE9E
:100A5000C00B10EE100A85F8010100EE108AB8EE06
:100A6000C00B01EE108AB8EEC11B9FED723B01EE88
:100A7000030BBDEEC00B10EE100A85F8810188E073
:100A80009FED6E0B01EE108AB8EEC11B02EE108ACC
:100A9000B8EEC22B02EE001BBDEEC11B11EE100A18
:100AA000687085F8818001EE108AB8EEC11B02EEF5
:100AB000108AB8EEC22B02EE001BBDEEC10B10EE89
:100AC000100A85F8010185F8818162E05FF0FF304E
:100AD00000FB08F000EE100AB8EEC00B01EE108A21
:100AE000B8EEC11B9FED553B01EE030BBDEEC00BF5
:100AF00010EE100A687000EE108AB8EEC00B01EE1E
:100B0000108AB8EEC11B9FED4B3B01EE030BBDEE0F
:100B1000C00B10EE100A85F8810085F80181FF20D6
:100B200000FB08F085F8810133E09FED440B5FF096
:100B3000FF3000FB08F001EE100AB8EEC11B02EE18
:100B4000108AB8EEC22B02EE001BBDEEC11B11EEE7
:100B5000100A6870FF2000FB08F085F881005FF044
:100B6000FF3000FB08F001EE100AB8EEC11B02EEE8
:100B7000108AB8EEC22B02EE001BBDEEC10B10EEC8
:100B8000100A85F80101FF2000FB08F085F88101BB
:100B9000FFE7207858280AD100206870002085F8E7
:100BA0008100002085F80101002085F8810120786E
:100BB00051281BD10120DFF830140860B2EE040A7E
:100BC00088EE008A0022B0EE480A390000EE908AD2
:100BD000F8EEE00ADFF8000490ED071A60EE810AF3
:100BE000FDEEE00A10EE900A00F02CF8207845287F
:100BF0001BD10120DFF8F0130860B2EE040A88EE82
:100C0000008A0122B0EE480A390000EE908AF8EE20
:100C1000E00ADFF8C40390ED071A60EE810AFDEEEA
:100C2000E00A10EE900A00F00DF8BDEC028BBDE872
:100C3000F08100009A9999999999C93F9A9999993F
:100C40009999C9BF2DE9F8432DED0A8B84B00600B0
:100C50000D00B0EE408A1400B52D02DB7642B1EEF5
:100C6000488A002C00D07642DFED538A00EE106AED
:100C7000B8EEC09B00EE105AB8EEC00A20EE280A6B
:100C8000B7EEC00A03F094FB29EE000BB7EEC09B51
:100C900000EE106AB8EEC0AB00EE105AB8EEC00A13
:100CA00020EE280AB7EEC00A03F084FB2AEE000B00
:100CB000F7EEC09BDFF8208398ED000AF0EE000A03
:100CC00080EE200AD8ED010AB0EE001AC0EE810ACB
:100CD00030EE200A20EE08AA39EEC90A70EE0AAA00
:100CE00039EE890A30EE4ABA39EEC90A70EE4ABACC
:100CF00039EE890A30EE0ACA8DED00CA6F46B1EEB0
:100D00006A0A87ED010AB1EE6B0A87ED020A87EDE8
:100D100003BA5FF00009B9F1040F07DA684600EB87
:100D2000890000F033F819F10109F4E700EE106AC8
:100D3000B8EEC00A88ED020AC8F80C5088ED048AA3
:100D4000A4489DED000ABDEEC00A10EE101A4170D5
:100D500097ED010ABDEEC00A10EE101A80F881105E
:100D600097ED020ABDEEC00A10EE101A80F80111CC
:100D700097ED030ABDEEC00A10EE101A80F881113B
:100D800004B0BDEC0A8BBDE8F183000090ED000AD1
:100D9000B7EEC00A9FEDA52B80EE020BB7EEC00B9D
:100DA00080ED000A90ED000ABDEEC00AB8EEC00A60
:100DB00080ED000A7047000035FA8E3C3C1A002096
:100DC0000000414300005B430000C0420020B445E6
:100DD0000000AC40341A0020301A00202C1A0020E9
:100DE000381A00207C1A0020781A00209C1A002053
:100DF000841A00202DE9FE4307000D00140001268F
:100E0000002D02D03800FFF78BFB38788DF80000FA
:100E1000E846787888F8010097F8810088F80200A1
:100E200097F8010188F8030097F8810188F8040019
:100E3000DFF8C091D9F8000000280DD0002C0BD1AC
:100E40006B480168DFF8882A684803680A20434332
:100E500002EB030020F8021CD9F80000002802D1A0
:100E60000120C9F8000005236A466821DFF8640AFA
:100E700003F008FB002005280ADADFF85C1A095C99
:100E800018F80020914201D000210E00401CF2E72A
:100E90000020052806DA18F80010DFF83C2A115463
:100EA000401CF6E798F80100002813D198F80200DA
:100EB00000280FD198F8030000280BD198F80400FF
:100EC000002807D10020C9F8000000204849086028
:100ED00001207CE0002E01D0012078E00020444970
:100EE0000860002C01D0022071E00A203F49DFF8A1
:100EF000E02998F80130D1F800C000FB0CFC22F882
:100F00000C300B684343134498F802C0A3F802C0A6
:100F10000B684343134498F803C0A3F804C00B685C
:100F200000FB03F0104498F80420C2800868401CBD
:100F300008602C490868002807D00020284A106063
:100F40000020264A10600020086098F801005B2805
:100F500008DB98F803005B2804DB0320DFF8101B94
:100F600008702AE098F80100002808D098F80300DB
:100F70005B2804DB0020DFF8F81A08701DE098F801
:100F800001005B2808DB98F80300002804D0022049
:100F9000DFF8DC1A087010E098F80100002808D08B
:100FA00098F80300002804D00120DFF8C41A087064
:100FB00003E00420DFF8B81A08700B49086800281D
:100FC00003D00420DFF8A82A107000200860BDE8D4
:100FD000FE83000024140020041A0020701A002050
:100FE0006C1A0020741A0020801A0020881A002031
:100FF0008C1A0020901A00204C170020B8160020F0
:10100000501A0020CC170020648F00084C180020D4
:101010004C1A0020581A0020601A00205C1A002088
:10102000541A002000000020481A00200000000090
:1010300000801540F8B5DFF8405A01202860DFF83D
:101040003C6A33203070DFF8380A07687F1E002FB3
:1010500033D40A20DFF8781800FB07F28A5E524288
:10106000727000FB07F20A44B2F90220524286F87D
:10107000812000FB07F20A44B2F90420524286F8AC
:10108000012100FB07F20A44B2F90620524286F819
:10109000812100FB07F00844B0F908000400012298
:1010A00000213000FFF7A6FEDFF8D8090068210014
:1010B00009B28842F8DB7F1EC9E70020DFF8C819B3
:1010C00008600020DFF8C4190860002028600020B4
:1010D000DFF8BC190860F1BD0010025810B4002000
:1010E000DFF89C190A6890421CDA0A21DFF8E02731
:1010F000002301FB00F41353002301FB00F414440C
:101100006380002301FB00F41444A380002301FB4F
:1011100000F41444E380002301FB00F111440B812F
:10112000401CDDE7002008600020DFF85819086047
:101130000020DFF86019086010BC704700040258F6
:101140001CB5040000208DF800002068DFF8481965
:10115000884217D1DFF8440900688DF80000DFF8F5
:1011600040090168802908DA9DF80010DFF8342969
:101170000368D1540168491C0160012269462000BE
:1011800001F055F82068DFF8201988422DD101229E
:101190006946200001F04BF8DFF8100900688DF86F
:1011A0000000DFF8D408006800280CD09DF800008B
:1011B000472807D09DF800000A2803D00120DFF857
:1011C000D018086011E0DFF8D808016880290CDA2F
:1011D0009DF80010DFF8CC280368D1540168491C41
:1011E00001600020DFF8C818086013BD1CB50400BA
:1011F00000208DF800002068DFF89C1888421CD180
:10120000DFF8B008DFF8B0180A6803689A420EDA0F
:10121000DFF8A8080A68805C8DF800000868401CA8
:10122000086001226946200000F0A7FF05E00A6877
:101230000068824201DB002008602068DFF868183F
:1012400088421CD1DFF86C08DFF86C180A68036864
:101250009A420EDADFF864080A68805C8DF80000B4
:101260000868401C086001226946200000F085FFE4
:1012700005E00A680068824201DB0020086013BDB7
:1012800080B5DFF83C0801F00BF801BD80B5DFF850
:10129000340801F005F801BD80B5DFF82C0804F032
:1012A00035FA01BD80B5DFF8240804F02FFA01BD3E
:1012B00080B5DFF81C0804F029FA01BD80B5DFF81D
:1012C000140803F033F901BD80B5082002F099FC41
:1012D00001BD80B5102002F094FC01BD0168DFF86B
:1012E000F827914203D10121DFF8F0271160704700
:1012F000F8B504002068B0F1804F7AD1DFF8745758
:1013000028686C2805D068686C2802D0A8686C280A
:101310006FD1DFF8CC670020306028686C280ED1D0
:10132000DFF8C0773878002809D101220121DFF8E1
:10133000B80702F059FC012038700120306068685D
:101340006C280ED1DFF89C777878002809D101222B
:101350000221DFF8980702F047FC01207870012095
:101360003060A8686C280FD1DFF87877B87800284B
:101370000AD101224FF48041DFF86C0702F034FCFF
:101380000120B870012030603068012800F0CE8064
:1013900028686C280CD1DFF84C673078012807D119
:1013A00000220121DFF8400702F01EFC002030700F
:1013B00068686C280CD1DFF82C677078012807D199
:1013C00000220221DFF8240702F00EFC00207070DA
:1013D000A8686C280DD1DFF80C57A878012808D12F
:1013E00000224FF48041DFF8000702F0FDFB0020EF
:1013F000A8702068DFF8F816884279D1DFF87456B3
:101400002868682805D06868682802D0A868682815
:101410006ED1DFF8E06600203060286868280ED1C1
:10142000DFF8C0763878002809D101220121DFF8E1
:10143000B80602F0D9FB01203870012030606868DE
:1014400068280ED1DFF89C767878002809D101222F
:101450000221DFF8980602F0C7FB01207870012016
:101460003060A86868280FD1DFF87876B87800284F
:101470000AD101224FF48041DFF86C0602F0B4FB80
:101480000120B87001203060306801284ED02868F3
:1014900068280CD1DFF84C663078012807D100228B
:1014A0000121DFF8440602F09FFB002030706868DD
:1014B00068280CD1DFF82C667078012807D100224B
:1014C0000221DFF8280602F08FFB00207070A86868
:1014D00068280DD1DFF80C56A878012808D1002221
:1014E0004FF48041DFF8000602F07EFB0020A87078
:1014F0002068DFF80416884218D1DFF8000601687A
:10150000491C0160DFF8A8050168491C0160DFF88B
:10151000F0050168491C0160DFF8780500680028C3
:1015200004D0DFF860050168491C0160F1BD10B509
:101530000400200080B208282FD1210089B2DFF8F2
:10154000C40502F046FB012827D1DFF824150878EE
:10155000042822D00878002805D1DFF82C0501687E
:10156000491C016019E00878022805D1DFF8180548
:101570000168491E016010E00878012805D1DFF8F4
:101580000C050168491C016007E00878032804D1B4
:10159000DFF8F8040168491E016010BD10B59CB069
:1015A0004C21002209AC200004F0EEF92021002299
:1015B00001AC200004F0E8F9022004F019FA002040
:1015C0000090DFF84405016849084900016000689F
:1015D00010F001000090DFF834050121026861F38A
:1015E0008F320260016811F4404100910099016856
:1015F0008904FCD50220099001200C9040200D9018
:101600000020129009A804F01FFA002801D000F071
:1016100085FA3F20019000200290002003900020D6
:1016200004900020059000200690002007900020E4
:101630000890012101A800F0ADFA002801D000F0C7
:101640006DFA1CB010BD38B586B0142100226C466E
:10165000200004F099F9DFF8B804016851F00201A4
:101660000160016811F0020105910599016851F0CE
:1016700008010160016811F00801059105990168F0
:1016800051F010010160016811F0100105910599F8
:10169000016851F001010160016811F0010105913B
:1016A0000599016851F004010160006810F0040020
:1016B00005900598DFF8304400224FF48041200067
:1016C00002F092FA4FF48040009001200190022035
:1016D0000290002003906946200002F063F9DFF8D1
:1016E0000C5400220221280002F07EFA0220009011
:1016F00001200190022002900020039069462800FA
:1017000002F050F900220121200002F06DFA0120C0
:101710000090012001900220029000200390694671
:10172000200002F03FF9082000905FF48814019433
:101730000220029003200390DFF8C8536946280076
:1017400002F030F900220221092004F078FD09207E
:1017500004F087FD102000900194022002900320E5
:1017600003906946280002F01DF9002202210A2098
:1017700004F065FD0A2004F074FD07B030BD1FB50C
:10178000102100226C46200004F0FEF804F076FDE3
:1017900001208DF8000000208DF80100002001904C
:1017A0001F208DF8080087208DF8090000208DF893
:1017B0000A0000208DF80B0001208DF80C0001209C
:1017C0008DF80D0000208DF80E0000208DF80F0020
:1017D000684604F06CFD042004F05BFD1FBD70B58D
:1017E00086B0CC48016851F400310160016811F401
:1017F000003105910599016851F48021016000686C
:1018000010F4802005900598142100226C462000D9
:1018100004F0BAF8602000900220019001200290AC
:101820000320039007200490B64E6946300002F072
:10183000B9F8A34C984820605FF4E135656000205A
:10184000A0600020E060002020610C20606100208A
:10185000A0610020E0614FF44070009002200190F0
:101860000120029003200390072004906946300075
:1018700002F098F8934E8C48306075600020B0609C
:101880000020F060002030610C2070610020B06109
:101890000020F06100220121262004F0D0FC262047
:1018A00004F0DFFC00220121272004F0C8FC2720DF
:1018B00004F0D7FC200000F021FC002800D0FEE757
:1018C000300000F01BFC002800D0FEE706B070BD21
:1018D0009C000020CC180020241A00207CB58D48E4
:1018E000016851F001010160016811F001010091EE
:1018F0000099016851F002010160016811F00201D4
:1019000000910099016851F004010160006810F035
:101910000400009000986C4C5FF08040206041F61D
:10192000FF0060600021A16042F20F71E1600021C0
:1019300021610021A161654D6D4929606860002128
:10194000A96041F28731E960002129610021A96184
:101950005F4E6949316070600020B0600A20F0601D
:10196000002030610020B061200003F031FE00282B
:1019700001D000F0D3F8280003F02AFE002801D09F
:1019800000F0CCF8300003F023FE002801D000F076
:10199000C5F8002203211C2004F051FC1C2004F097
:1019A00060FC002202211D2004F049FC1D2004F0EF
:1019B00058FC002200211E2004F041FC1E2004F0EF
:1019C00050FC200003F041FE280003F03EFE3000F2
:1019D00003F03BFE73BD10B586B04E48016851F46C
:1019E00000110160006810F40010009000981421AC
:1019F000002201AC200003F0C7FF4FF440700190BB
:101A000012200290012003900320049004200590EE
:101A100001A9354801F0C6FF2E4C2F4820603E48F2
:101A200060600020A0600120E060002020610020B4
:101A300060610020A0610020E061002020622000A1
:101A400002F0BAFC2068006850F04200216808608B
:101A5000002200211F2004F0F2FB1F2004F001FCF3
:101A6000200002F0A9FC002800D0FEE706B010BD5F
:101A70009C1A0020000000207C1A00202414002062
:101A8000881A00208C1A00206C1A0020701A00207E
:101A9000781A0020901A002000440040244400409E
:101AA0002C1A00204C170020004800402448004019
:101AB000501A0020301A0020341A0020CC170020C1
:101AC00024160020B8160020201900206C190020D0
:101AD000B8190020CC18002000540040681A0020DB
:101AE000401A0020481A0020000402580010025832
:101AF00000040040441A002000080040381A00206A
:101B0000641A0020000C02582C040058184802588F
:101B1000E0440258E84402586C21C00072B6FEE767
:101B200010B5032004F085FB00F07CF90400DFF819
:101B30005000DFF850100268C2F303228A5C12F0F2
:101B40001F02D440006810F00F00085C10F01F0066
:101B50002100C140DFF830000160DFF83000046090
:101B60000F2004F0EBFB002801D0012002E004F07C
:101B700011FC002010BDDFF818000068000C704751
:101B800018440258748F0008140000201000002030
:101B90000010005C2DE9F04104000D00002C01D183
:101BA00001203DE1DFF81075386810F00F00A84201
:101BB0000BD238680009000128433860386810F0FB
:101BC0000F00A84201D001202AE1207840070DD55E
:101BD000DFF80015086810F070002269904205D205
:101BE0000A6832F07002206902430A602078000718
:101BF0000DD5DFF8E414086810F0700062699042B7
:101C000005D20A6832F07002606902430A602078E7
:101C1000C0060DD5DFF8C014086810F4E060A269B2
:101C2000904205D20A6832F4E062A06902430A6079
:101C3000207880060DD5DFF8A414086810F0700035
:101C4000E269904205D20A6832F07002E06902430C
:101C50000A60207880070DD5DFF87814086810F046
:101C60000F00E268904205D20A6812091201E0688A
:101C700002430A602078C0074AD5DFF858140A6882
:101C800032F47062A06802430A606068022806D1DC
:101C9000DFF82804006880031CD40120C0E06068DD
:101CA000032806D1DFF814040068800112D4012053
:101CB000B6E06068012806D1DFF800040068C005BE
:101CC00008D40120ACE0DFF8F4030068400701D439
:101CD0000120A5E0DFF8E883D8F80010C908C900A2
:101CE00060680143C8F8001004F064FB0600D8F8EF
:101CF000000010F038006168B0EBC10F08D004F0AC
:101D000059FB801B41F289318842F0D3032087E0E0
:101D1000207880070DD5DFF8BC13E0680A6812F060
:101D20000F02904205D20A6812091201E0680243CC
:101D30000A60386810F00F0085420BD2386800093D
:101D4000000128433860386810F00F00A84201D025
:101D5000012065E0207840070DD5DFF87813206971
:101D60000A6812F07002904205D20A6832F07002DE
:101D7000206902430A60207800070DD5DFF8581368
:101D800060690A6812F07002904205D20A6832F067
:101D90007002606902430A602078C0060DD5DFF842
:101DA0003813A0690A6812F4E062904205D20A680A
:101DB00032F4E062A06902430A60207880060DD503
:101DC000DFF81813E0690A6812F07002904205D239
:101DD0000A6832F07002E06902430A6000F022F8FB
:101DE0000700DFF80C13DFF8EC020268C2F30322ED
:101DF0008A5C12F01F02D740006810F00F00085CE8
:101E000010F01F003900C140DFF8C0020160DFF8A8
:101E1000B8020760DFF8B802006804F08FFAC0B2B9
:101E2000BDE8F08110B4DFF89802006810F03800C7
:101E3000002806D0082813D0102814D0182815D050
:101E4000F9E0DFF878422068800606D5DFF87402F2
:101E50002468C4F3C104E04001E0DFF86802EBE06D
:101E6000DFF89002E8E0DFF89002E5E0DFF87002CA
:101E7000046814F0030422000068C0F30510010098
:101E8000DFF86002006810F001000300DFF85C0278
:101E90000068C0F3CC0000FB03F002EE100AB8EEBD
:101EA000422AB0EE421A002900F0C380002A03D073
:101EB000022A6FD04FD38CE0DFF800020468A4063A
:101EC00029D5DFF800420068C0F3C100C44002EE2B
:101ED000104AF0EE420AB8EE602A02EE901AF8EECE
:101EE000622A82EE222ADFF800020068C005C00DD7
:101EF00002EE900AF8EE622A9FED6B3A81EE033A09
:101F000072EE832AB7EE003A72EE832A22EE222A7C
:101F1000F0EE421A1EE002EE101AB8EE422ADFED91
:101F2000632A82EE822ADFF8C0010068C005C00D76
:101F300002EE900AF8EE622A9FED5B3A81EE033AD8
:101F400072EE832AB7EE003A72EE832A22EE222A3C
:101F5000F0EE421A5BE002EE101AB8EE422ADFED14
:101F6000542A82EE822A60480068C005C00D02EE45
:101F7000900AF8EE622A9FED4C3A81EE033A72EE37
:101F8000832AB7EE003A72EE832A22EE222AF0EE7E
:101F9000421A3CE002EE101AB8EE422ADFED452A62
:101FA00082EE822A50480068C005C00D02EE900AF9
:101FB000F8EE622A9FED3C3A81EE033A72EE832AF4
:101FC000B7EE003A72EE832A22EE222AF0EE421A8F
:101FD0001DE002EE101AB8EE422ADFED352A82EE3D
:101FE000822A41480068C005C00D02EE900AF8EE52
:101FF000622A9FED2D3A81EE033A72EE832AB7EE04
:10200000003A72EE832A22EE222AF0EE421A364875
:102010000068C0F34620401C02EE100AB0EE420AEF
:10202000B8EE402A81EE822ABCEEC22A12EE100AD5
:1020300000E0002000E02F4810BC704780B5FFF79B
:10204000F1FE010023482A4A0368C3F30323D35C4B
:1020500013F01F03D9401D4B006810F00F00105CF7
:1020600010F01F000A00C2401A601748016018688B
:1020700002BD80B5FFF7E2FF1D49174A1268C2F39F
:102080000212895C11F01F01C84002BD80B5FFF744
:10209000D5FF1749104A1268C2F30222895C11F079
:1020A0001F01C84002BD0000000000460024744C1F
:1020B0000024744A20BCBE4B002000520044025849
:1020C000104402580090D00310000020140000209B
:1020D0000C000020184402581C44025820440258A6
:1020E000284402582C4402583044025834440258C0
:1020F000748F000800093D0040787D0110B5040090
:10210000002C01D1012037E0A0690028FFD1D4F8CC
:102110008800002805D1002084F88400200004F005
:102120004FF92420C4F88800206800684008400067
:1021300021680860200000F0F1FA012801D1012097
:102140001AE0A06A002802D0200000F0CBFD206831
:10215000406830F49040216848602068806830F022
:102160002A00216888602068006850F0010021681A
:102170000860200000F023FE10BD30B40300D3F847
:102180008800202850D1002903D0100080B20028F8
:1021900001D1012049E01965A3F85420A3F8562085
:1021A000002098670020C3F890002120C3F8880021
:1021B000586EB0F1005F1CD19868B0F5805F06D111
:1021C0001869002803D1DFF8C400986702E0DFF83F
:1021D000C00098671868083050E8000F50F40000FD
:1021E0000400186810F1080545E800400028F1D106
:1021F00018E09868B0F5805F06D11869002803D10F
:10220000DFF89000986702E0DFF88C0098671868A4
:1022100050E8000F50F0800004001D6845E80040C1
:102220000028F4D1002000E0022030BC704770B5D7
:1022300005000C001600D5F88C00202824D1002CB5
:1022400003D0300080B2002801D101201DE0002021
:10225000E8662868DFF8441088420ED02868406895
:1022600000020AD5286850E8000F50F08060010095
:102270002A6842E800100028F4D1320092B221000E
:10228000280000F052FE00E0022070BD7D32000800
:10229000FF3100089B31000843310008000C005852
:1022A0002DE9F04706003068C7693068D0F8008033
:1022B0003068D0F8089040F60F043C40002C0ED156
:1022C000B8060CD55FEA886002D45FEAC90006D57B
:1022D000706F002802D03000716F884713E2002C25
:1022E00000F0B280DFF8280419EA000F05D1DFF80A
:1022F000241418EA010F00F0A78017F00101C9B2F9
:1023000000290BD05FEAC85108D50121326811625B
:10231000D6F8901051F00101C6F89010B9070DD50C
:1023200019F00101C9B2002908D0022132681162F6
:10233000D6F8901051F00401C6F8901079070DD529
:1023400019F00101C9B2002908D0042132681162D4
:10235000D6F8901051F00201C6F8901039070ED54A
:102360005FEA886102D419EA000F08D008203168BA
:102370000862D6F8900050F00800C6F890003805C2
:102380000CD55FEA481009D54FF400603168086247
:10239000D6F8900050F02000C6F89000D6F89000D3
:1023A000002850D0B8060BD55FEA886002D45FEAF7
:1023B000C90005D5706F002802D03000716F8847C2
:1023C000D6F89000050030688068400602D415F009
:1023D000280F32D0300000F055FE3068806840068B
:1023E00027D53068083050E8000F30F04000010079
:1023F000306810F1080242E800100028F1D1D6F848
:102400008000002811D0DFF81003D6F8801008658E
:10241000D6F8800004F03CFA002814D0D6F88000EA
:10242000D6F88010096D88470DE0300004F02DFCCF
:1024300009E0300004F029FC05E0300004F025FC40
:102440000020C6F890005EE1F06E012840F0248183
:10245000F80640F121815FEAC86040F11D8110203B
:102460003168086230688068400640F1D480D6F850
:1024700080000068DFF82818884268D0D6F880000D
:102480000068DFF82018884261D0D6F88000006824
:10249000DFF8141888425AD0D6F880000068DFF8B8
:1024A0000C18884253D0D6F880000068DFF8001876
:1024B00088424CD0D6F880000068DFF8F8178842D0
:1024C00045D0D6F880000068DFF8EC1788423ED08F
:1024D000D6F880000068DFF8E417884237D0D6F8D5
:1024E00080000068DFF8D817884230D0D6F8800026
:1024F0000068DFF8D017884229D0D6F8800000683D
:10250000DFF8C417884222D0D6F880000068DFF8D0
:10251000BC1788421BD0D6F880000068DFF8B017DF
:10252000884214D0D6F880000068DFF8A8178842E7
:102530000DD0D6F880000068DFF89C17884206D0DE
:10254000D6F880000068DFF89417884205D1D6F8E5
:1025500080000068D0F804A004E0D6F8800000688D
:10256000D0F804A0504680B2002853D05046B6F8A8
:102570005C1080B288424DD2A6F85EA0D6F88000EA
:10258000C069B0F5807F3AD0306850E8000F30F471
:1025900080700100326842E800100028F4D13068F1
:1025A000083050E8000F400840000100306810F18A
:1025B000080242E800100028F1D13068083050E8E5
:1025C000000F30F040000100306810F1080242E8CE
:1025D00000100028F1D12020C6F88C000020F06601
:1025E000306850E8000F30F010000100326842E817
:1025F00000100028F4D1D6F8800003F0E3FE02209A
:102600003067B6F85C10B6F85E00091A89B230007F
:1026100004F03CFB77E0B6F85C00B6F85EA0B0EBE7
:102620000A0AB6F85E00002835D0504680B200286D
:1026300031D0306850E8000F30F4907001003268FB
:1026400042E800100028F4D13068083050E8002F2C
:102650002E4802401100306810F1080242E80010D4
:102660000028F1D12020C6F88C000020F066002060
:102670007067306850E8000F30F0100001003268D9
:1026800042E800100028F4D102203067514689B298
:10269000300004F0FBFA36E0F8020AD55FEA492080
:1026A00007D55FF4801031680862300004F0EFFA5B
:1026B00029E038060CD55FEA086002D45FEA0920F9
:1026C00006D5B06F002802D03000B16F88471AE0FD
:1026D000780606D55FEA486003D5300000F010FEAA
:1026E00011E0380206D55FEA480003D5300004F057
:1026F000CFFA08E0F80106D5B8F1000F03D5300095
:1027000004F0C7FAFFE7BDE8F0870000FEFFFFEF27
:102710000100001020010004293100082DE9F84FC4
:1027200086B004000026DFF8B81520688842FFD084
:10273000A2682069024360690243E069024320689D
:102740000368DFF8A409034013432068036020688E
:10275000436833F44053E068034320684360D4F88F
:1027600018802068884202D0206A50EA0808206851
:102770008268DFF87809024058EA02022068826025
:102780002068C26A12091201606A02432068C262AC
:102790002068DFF85C2990421FD1DFF858090068F3
:1027A00010F0380000280AD008280AD010280AD0D3
:1027B00018280AD020280AD028280AD00BE00127A0
:1027C00024E1042722E1082720E110271EE1202729
:1027D0001CE140271AE1802718E12068DFF818295A
:1027E00090421DD1DFF80C09006810F007000028A6
:1027F00008D002280AD007D304280BD008D3052814
:102800000AD00BE0002701E10427FFE00827FDE0E4
:102810001027FBE02027F9E04027F7E08027F5E0CC
:102820002068DFF8D82890421DD1DFF8C80800687A
:1028300010F00700002808D002280AD007D3042887
:102840000BD008D305280AD00BE00027DEE00427D0
:10285000DCE00827DAE01027D8E02027D6E0402780
:10286000D4E08027D2E02068DFF8942890421DD180
:10287000DFF88008006810F00700002808D0022860
:102880000AD007D304280BD008D305280AD00BE0C0
:102890000027BBE00427B9E00827B7E01027B5E020
:1028A0002027B3E04027B1E08027AFE02068DFF8C1
:1028B000542890421DD1DFF83C08006810F0070052
:1028C000002808D002280AD007D304280BD008D348
:1028D00005280AD00BE0002798E0042796E0082797
:1028E00094E0102792E0202790E040278EE0802798
:1028F0008CE02068DFF8102890421FD1DFF8F40741
:10290000006810F0380000280AD008280AD01028E3
:102910000AD018280AD020280AD028280AD00BE08C
:10292000012773E0042771E008276FE010276DE0AE
:1029300020276BE0402769E0802767E02068DFF808
:10294000CC2790421DD1DFF8AC07006810F00700DB
:10295000002808D002280AD007D304280BD008D3B7
:1029600005280AD00BE0002750E004274EE0082796
:102970004CE010274AE0202748E0402746E0802727
:1029800044E02068DFF8882790421DD1DFF8640713
:10299000006810F00700002808D002280AD007D3EA
:1029A00004280BD008D305280AD00BE000272DE01F
:1029B00004272BE0082729E0102727E0202725E01F
:1029C000402723E0802721E0206888421DD1DFF8DE
:1029D0004407006810F00700002808D002280AD039
:1029E00007D304280BD008D305280AD00BE0022710
:1029F0000CE004270AE0082708E0102706E020275B
:102A000004E0402702E0802700E080272068884219
:102A10006FD13800C0B202280AD004280CD0082890
:102A200010D0102814D0202822D0402823D025E010
:102A300004F030F9814625E003A804F03BF9DDF805
:102A400010901FE0684604F04DFADDF8049019E09C
:102A5000DFF8C4060168890607D5DFF8C09600686C
:102A6000C0F3C10039FA00F901E0DFF8B09609E0DF
:102A7000DFF8AC9606E04FF4004903E05FF0000990
:102A800001200600B9F1000F00F0FA80DFF894167B
:102A9000606A31F81000B9FBF0F0824662680320EA
:102AA0004243924505D362684FF4805042435245F9
:102AB00002D201200600E3E0606A31F81000B9FBA1
:102AC000F0F24FF48073606840080021E3FB0201DC
:102AD0006268002304F02EFB0500B5F5407F05D3A6
:102AE000B5F5801F02D22068C560C9E0012006004C
:102AF000C6E0E069B0F5004F66D13800C0B20028EA
:102B00000CD001280ED0042810D0082814D010288A
:102B100018D0202826D0402827D029E0FFF7A9FA8E
:102B2000814629E0FFF7B2FA814625E003A804F0C8
:102B3000C1F8DDF810901FE0684604F0D3F9DDF825
:102B4000049019E0DFF8D0050168890607D5DFF8A1
:102B5000CC950068C0F3C10039FA00F901E0DFF854
:102B6000BC9509E0DFF8B89506E04FF4004903E0B2
:102B70005FF0000901200600B9F1000F00F080802D
:102B8000DFF8A005616A30F81100B9FBF0F0616868
:102B9000490811EB40016068B1FBF0F00500102D11
:102BA0000FD3B5F5803F0CD24FF6F07129402800C5
:102BB000C0F3420001438B46584680B22168C8608A
:102BC0005EE0012006005BE03800C0B200280CD0B7
:102BD00001280ED0042810D0082814D0102818D0AE
:102BE000202826D0402827D029E0FFF742FA814646
:102BF00029E0FFF74BFA814625E003A804F05AF8D4
:102C0000DDF810901FE0684604F06CF9DDF80490E0
:102C100019E0DFF804050168890607D5DFF8FC94A0
:102C20000068C0F3C10039FA00F901E0DFF8EC9464
:102C300009E0DFF8EC9406E04FF4004903E05FF0B0
:102C4000000901200600B9F1000F19D0DFF8D40403
:102C5000616A30F81100B9FBF0F0616810EB5100C7
:102C60006168B0FBF1F00500102D07D3B5F5803F8A
:102C700004D2280080B22168C86001E0012006006B
:102C80000120A4F86A000120A4F868000020606711
:102C90000020A0673000C0B207B0BDE8F08F000090
:102CA000100002402800024040000240580002404C
:102CB0007000024088000240A0000240B8000240BC
:102CC000100402402804024040040240580402401C
:102CD0007004024088040240A0040240B80402408C
:102CE000000C005890F82810C90707D501684A68F9
:102CF00032F40032C16A0A4301684A6090F8281031
:102D0000890707D501684A6832F48032016B0A43AB
:102D100001684A6090F82810490707D501684A6899
:102D200032F48022416B0A4301684A6090F828100F
:102D3000090707D501684A6832F40042816B0A43EB
:102D400001684A6090F82810C90607D501688A68AA
:102D500032F48052C16B0A4301688A6090F82810EF
:102D6000890607D501688A6832F40052016C0A436B
:102D700001688A6090F82810490613D501684A68EE
:102D800032F48012416C0A4301684A60416CB1F52B
:102D9000801F07D101684A6832F4C002816C0A437F
:102DA00001684A6090F82810090607D501684A684A
:102DB00032F40022C16C0A4301684A60704738B59A
:102DC00004000020C4F8900003F0F4FA0500206825
:102DD000006800071ED57FF07E4000902B00002287
:102DE0005FF40011200000F055F8002812D0206890
:102DF00050E8000F30F080000100226842E8001027
:102E00000028F4D12020C4F88800002084F8840031
:102E100003203EE02068006840072CD57FF07E400C
:102E200000902B0000225FF48001200000F032F8B7
:102E3000002820D0206850E8000F30F49070010086
:102E4000226842E800100028F4D12068083050E8D9
:102E5000000F400840000100206810F1080242E81D
:102E600000100028F1D12020C4F88C00002084F844
:102E7000840003200DE02020C4F888002020C4F83E
:102E80008C000020E06600202067002084F8840089
:102E9000002032BD2DE9F04105000E0090461F00D4
:102EA000069C2868C0693040B04201D1012000E092
:102EB00000204146C9B2884234D114F1010FF0D04C
:102EC00003F078FAC01B844201D3002C01D1032007
:102ED00029E0286800684007E3D52868C069000732
:102EE0000DD5082029680862280000F0CBF80820DA
:102EF000C5F89000002085F88400012013E02868C0
:102F0000C0690005CDD54FF400602968086228002B
:102F100000F0B8F82020C5F89000002085F8840063
:102F2000032000E00020BDE8F08130B40300996583
:102F3000A3F85C20A3F85E20002058679868B0F5DD
:102F4000805F0BD11869002804D140F2FF10A3F86C
:102F5000600023E0FF20A3F860001FE098680028CD
:102F60000AD11869002803D1FF20A3F8600015E0FA
:102F70007F20A3F8600011E09868B0F1805F0AD16B
:102F80001869002803D17F20A3F8600006E03F20E5
:102F9000A3F8600002E00020A3F860000020C3F85E
:102FA00090002220C3F88C001868083050E8000F09
:102FB00050F001000400186810F1080545E80040D1
:102FC0000028F1D1586EB0F1005F30D11000B3F895
:102FD000684080B2A0422AD39868B0F5805F06D1DD
:102FE0001869002803D10FF21D70586702E00FF234
:102FF00021505867186900280AD0186850E8000F57
:1030000050F4807004001D6845E800400028F4D1A9
:103010001868083050E8000F50F08050040018681D
:1030200010F1080545E800400028F1D127E0986834
:10303000B0F5805F06D11869002803D10FF2E130A6
:10304000586702E00FF2E9205867186900280BD092
:10305000186850E8000F50F4907004001D6845E8AF
:1030600000400028F4D10AE0186850E8000F50F042
:10307000200004001D6845E800400028F4D100202D
:1030800030BC7047016851E8001F31F490710A00AC
:10309000036843E800210029F4D10168083151E8B0
:1030A000003FDFF858180B401A00016811F10803BF
:1030B00043E800210029F0D1C16E01290AD101683D
:1030C00051E8001F31F010010A00036843E80021B5
:1030D0000029F4D12021C0F88C100021C166002104
:1030E0004167704700000000F369FFCFFFF4FF1154
:1030F0000010014054440258004400400048004081
:10310000004C004000500040001401400078004096
:10311000007C004058440258004402580090D003FC
:1031200000093D001C8F000838B50400A56B002085
:10313000A5F85E000020A5F85600280003F0A5FDC4
:1031400031BDD0F88810212926D1B0F856100029B9
:1031500016D1016851E8001F31F080010A000368B0
:1031600043E800210029F4D1016851E8001F51F023
:1031700040010A00036843E800210029F4D10BE074
:10318000016D097802689162016D491C0165B0F812
:103190005610491EA0F85610704710B40100D1F81F
:1031A0008800212829D1B1F85600002816D10868D6
:1031B00050E8000F30F0800003000C6844E8003055
:1031C0000028F4D1086850E8000F50F040000300D8
:1031D0000C6844E800300028F4D10EE0086D0200CD
:1031E0001088C005C00D0B689862086D801C0865CA
:1031F000B1F85600401EA1F8560010BC704710B43C
:103200000100D1F88800212836D1B1F86A00020007
:10321000100080B200282FD0B1F85600002819D134
:103220000868083050E8000F30F400000300086818
:1032300010F1080444E800300028F1D1086850E893
:10324000000F50F0400003000C6844E800300028F4
:10325000F4D111E00868C06900060BD5086D00784C
:103260000B689862086D401C0865B1F85600401E56
:10327000A1F85600521ECBE710BC704730B40100D5
:10328000D1F88800212839D1B1F86A00030018006C
:1032900080B2002832D0B1F85600002819D1086851
:1032A000083050E8000F30F400000400086810F106
:1032B000080545E800400028F1D1086850E8000FF3
:1032C00050F0400004000D6845E800400028F4D1AB
:1032D00014E00868C06900060ED5086D0200108869
:1032E000C005C00D0C68A062086D801C0865B1F8AF
:1032F0005600401EA1F856005B1EC8E730BC704760
:1033000010B50400206850E8000F30F040000100C4
:10331000226842E800100028F4D12020C4F8880078
:103320000020A0672000FDF761FF10BD0000000035
:1033300070B50500B5F86060D5F88C00222867D11B
:103340002868406A040016EA0400A96D0870A86D98
:10335000401CA865B5F85E00401EA5F85E00B5F8F3
:103360005E0000285AD1286850E8000F30F49070B1
:1033700001002A6842E800100028F4D128680830CB
:1033800050E8000F400840000100286810F10802D2
:1033900042E800100028F1D12020C5F88C00002060
:1033A0006867002028672868DFF8541588420ED027
:1033B0002868406800020AD5286850E8000F30F0FD
:1033C000806001002A6842E800100028F4D1E86E0D
:1033D000012819D10020E866286850E8000F30F075
:1033E000100001002A6842E800100028F4D1286883
:1033F000C069C00602D5102029680862B5F85C10C3
:10340000280003F043FC09E02800FDF799FE05E0E1
:103410002868806950F008002968886170BD000044
:10342000F8B50500B5F86070D5F88C00222868D191
:103430002868406A0400A86D060017EA040030807E
:10344000A86D801CA865B5F85E00401EA5F85E005A
:10345000B5F85E0000285AD1286850E8000F30F413
:10346000907001002A6842E800100028F4D1286812
:10347000083050E8000F400840000100286810F1B3
:10348000080242E800100028F1D12020C5F88C0085
:1034900000206867002028672868DFF864148842E5
:1034A0000ED02868406800020AD5286850E8000F4E
:1034B00030F0806001002A6842E800100028F4D152
:1034C000E86E012819D10020E866286850E8000F4E
:1034D00030F0100001002A6842E800100028F4D102
:1034E0002868C069C00602D5102029680862B5F8AE
:1034F0005C10280003F0CAFB09E02800FDF720FE5D
:1035000005E02868806950F0080029688861F1BDED
:103510002DE9F84F0700B7F860803868D0F81C90A4
:103520003868D0F800A03868D0F808B0D7F88C0018
:10353000222840F0DF80B7F868000500280080B23C
:10354000002800F0AE805FEA896040F1AA80386808
:10355000406A040018EA0400B96D0870B86D401C98
:10356000B865B7F85E00401EA7F85E003868C0690D
:10357000814619F0070F3CD019F00100C0B20028B5
:103580000BD05FEACA5008D5012039680862D7F825
:10359000900050F00100C7F890005FEA89700DD5E7
:1035A0001BF00100C0B2002808D002203968086270
:1035B000D7F8900050F00400C7F890005FEA497017
:1035C0000DD51BF00100C0B2002808D004203968D6
:1035D0000862D7F8900050F00200C7F89000D7F8C2
:1035E0009000002805D0380003F04FFB0020C7F8FA
:1035F0009000B7F85E000028A0D1386850E8000FAE
:1036000030F4807001003A6842E800100028F4D1DC
:103610003868083050E8002FB84802401100386878
:1036200010F1080242E800100028F1D12020C7F86C
:103630008C0000207867002038673868B0498842DD
:103640000ED03868406800020AD5386850E8000F8C
:1036500030F0806001003A6842E800100028F4D1A0
:10366000F86E012819D10020F866386850E8000F7C
:1036700030F0100001003A6842E800100028F4D150
:103680003868C069C00602D5102039680862B7F8EA
:103690005C10380003F0FAFA50E73800FDF750FDEF
:1036A0004CE7B7F85E000600300080B2002827D053
:1036B0003000B7F8681080B2884221D238680830EC
:1036C00050E8000F30F080500100386810F1080217
:1036D00042E800100028F1D18A487867386850E83D
:1036E000000F50F0200001003A6842E80010002866
:1036F000F4D105E03868806950F0080039688861C5
:10370000BDE8F18F2DE9F84F0600B6F8608030680B
:10371000D0F81C903068D0F800A03068D0F808B01D
:10372000D6F88C00222840F0E180B6F86800ADF8A9
:103730000000BDF80000002800F0AF805FEA89605B
:1037400040F1AB803068406A0400B06D070018EAB1
:1037500004003880B06D801CB065B6F85E00401E75
:10376000A6F85E003068C069814619F0070F3CD0AA
:1037700019F00100C0B200280BD05FEACA5008D58A
:10378000012031680862D6F8900050F00100C6F8B8
:1037900090005FEA89700DD51BF00100C0B20028CF
:1037A00008D0022031680862D6F8900050F004007A
:1037B000C6F890005FEA49700DD51BF00100C0B259
:1037C000002808D0042031680862D6F8900050F034
:1037D0000200C6F89000D6F89000002805D030000E
:1037E00003F053FA0020C6F89000B6F85E000028F7
:1037F0009FD1306850E8000F30F4807001003268CB
:1038000042E800100028F4D13068083050E8002F5A
:103810003A4802401100306810F1080242E80010F6
:103820000028F1D12020C6F88C000020706700200D
:1038300030673068324988420ED0306840680002F4
:103840000AD5306850E8000F30F08060010032681F
:1038500042E800100028F4D1F06E012819D10020B0
:10386000F066306850E8000F30F010000100326858
:1038700042E800100028F4D13068C069C00602D5C3
:10388000102031680862B6F85C10300003F0FEF9D1
:103890004FE73000FDF754FC4BE7B6F85E0005003B
:1038A000280080B2002827D02800B6F8681080B21F
:1038B000884221D23068083050E8000F30F0805044
:1038C0000100306810F1080242E800100028F1D130
:1038D0000D487067306850E8000F50F0200001007C
:1038E000326842E800100028F4D105E030688069B1
:1038F00050F0080031688861BDE8F18FFEFFFFEFEE
:10390000000C0058313300082134000800F1010395
:10391000810704D010F8011B820781B1FAD1026837
:10392000A2F10131914311F0803104BF50F8042F0E
:10393000F6E709BAB1FA81F100EBD100401CC01AD8
:1039400070470268531C0360117070470CB430B5A7
:1039500083B00A4606A90291044600250194009509
:1039600002AB01A9084878441E3003F0FBFC019A21
:10397000157000284EBF04460198041B204603B072
:1039800030BC5DF80CFB00BFBBFFFFFF5FEA000C23
:1039900011F8012B00F8012B12B111F8012BF9E7F6
:1039A00060467047F8B503000025DFF878620868C4
:1039B000E840002800F00C810127D1F800C017FA78
:1039C00005F010EA0C0C6246002A00F0FF8008792E
:1039D00010F00300012804D0087910F00300022839
:1039E0001FD1D3F808C05FF0030E2800C0B240001A
:1039F0001EFA00FE3CEA0E0CD1F80CE02800C0B222
:103A000040001EFA00FE5EEA0C0CC3F808C05868BD
:103A1000AF40B8434F68C7F30017AF4038430400C6
:103A20005C60087910F00300032814D0DF685FF0B1
:103A3000030C2800C0B240001CFA00FC37EA0C0757
:103A4000D1F808C02800C0B240001CFA00FC5CEAB3
:103A500007073C00DC60087910F0030002281ED143
:103A60002800C00803EB8000076A5FF00F0C15F018
:103A70000700C0B280001CFA00FC37EA0C07D1F83E
:103A800010C015F00700C0B280001CFA00FC5CEA10
:103A900007073C002800C00803EB800004621F6891
:103AA0005FF0030C2800C0B240001CFA00FC37EAAB
:103AB0000C0791F804C01CF0030C2800C0B24000B1
:103AC0001CFA00FC5CEA07073C001C60486810F424
:103AD000403F7BD0DFF85001076857F002070760CE
:103AE000006810F0020000900098DFF840C1280044
:103AF00080085CF820705FF00F0E15F00300C0B274
:103B000080001EFA00FE37EA0E07DFF82401834228
:103B100001D100242DE04748834201D1012428E04F
:103B20004548834201D1022423E04448834201D125
:103B300003241EE04248834201D1042419E0414895
:103B4000834201D1052414E03F48834201D1062479
:103B50000FE03E48834201D107240AE03C488342FB
:103B600001D1082405E03B48834201D1092400E04B
:103B70000A2415F00300C0B28000844027432800C7
:103B800080084CF820705FF0B04420689043D1F872
:103B900004C05FEACC2C00D5104320602E4F3C6857
:103BA0009443D1F804C05FEA8C2C00D514433C60E8
:103BB000706890434F68BF0300D51043706034684D
:103BC00094434F68FF0300D5144334606D1CEEE648
:103BD000F1BD020010690B009BB2184201D0012018
:103BE00000E00020C0B270471300DBB2002B03D00E
:103BF0000B009BB2836103E00B009BB21B0483614B
:103C0000704710B5040015480168220092B21142B5
:103C100006D0210089B20160200080B2FDF787FC48
:103C200010BD000080000058F444025808040058F9
:103C3000000002580004025800080258000C025804
:103C4000001002580014025800180258001C0258B4
:103C50000020025800240258040000588800005830
:103C600001B58B071AD1830724D1121F21D351F834
:103C7000043BA3F1013C2CEA030C1CF0803C04BF84
:103C800040F8043BF1E79CFA8CFCBCFA8CF1C1F1E2
:103C900018018B40CB4040F8043B13E0042A09D3C1
:103CA00011F8013B521E00F8013B5BB18B07F7D1C5
:103CB000D9E7121D5AB111F8013B521E00F8013B21
:103CC00003B1F8D111001CBF002201F061FE01BD5B
:103CD0002DE9F84F84B00E4617460BB100221A604A
:103CE0000446A04601E008F1010898F8000004F03D
:103CF000D0FA0028F7D198F800002D2816BF2B28FD
:103D000018F8015B2B25002F019603D4012F01D059
:103D1000252F03DB002E55D0346053E0002F0CDD3F
:103D2000102F04BF98F80000302802BF98F8010057
:103D300040F02000782811D10CE098F800003028DD
:103D400018BF0A270AD198F8010040F0200078280F
:103D500003D1102708F1020800E00827CDF80C80F5
:103D600001E008F1010898F800003028F9D0064E6B
:103D70007E4414364FF0000906F12800CDF8088083
:103D8000CA468DF800000BE0045000009DF80010BA
:103D9000401ACA465FFA80FB07FB09B908F101081F
:103DA00098F8000004F07FFA01463A4606F1280030
:103DB00004F084FA0028E9D10399414504D101981F
:103DC00000B10460002020E00299F05DA8EB010141
:103DD000081A002810D406DCB9EB0B0103D3B1FBA1
:103DE000F7F0504508D0AFF30080049808B10121E6
:103DF00001604FF0FF3903E02D2D08BFC9F1000924
:103E0000019808B1C0F80080484605B0BDE8F08FC1
:103E1000FFE700230A2200215AE7000038B52DED04
:103E2000028B040082B00D4600F0BB8051EC100BF9
:103E300020F0000231F0004308BF002A00F0B180FA
:103E400048004015401C02D1090300F0AA80002C54
:103E5000B7EE008B48D564425449794401F5A77107
:103E6000082008E0E20744BF91ED001B28EE018B1B
:103E700064080831401E002C18BF0028F2D16846A3
:103E800004F048FA009880EE080B04F091FA51EC27
:103E9000100B20F0000231F0004308BF002A6AD066
:103EA00048004015401C01D1090364D0002C62D0A9
:103EB000684604F02FFA00989FED782B20EE020B55
:103EC00004F076FA51EC100B20F0000231F00043C0
:103ED00008BF002A4FD048004015401C01D10903FB
:103EE00049D0641EE4D146E045DD30497944BC3117
:103EF0000820E20744BF91ED001B28EE018B6410FF
:103F00000831401E002C01DD0028F2D1684604F083
:103F100001FA009820EE080B04F04AFA51EC100B5D
:103F200020F0000231F0004308BF002A23D04800EF
:103F30004015401C01D109031DD0002C1BDD684633
:103F400004F0E8F900989FED572B20EE020B04F0E7
:103F50002FFA51EC100B20F0000231F0004308BFA3
:103F6000002A08D048004015401C01D1090302D0A6
:103F7000641E002CE3DC51EC100B20F0000231F049
:103F8000004308BF002A05D048004015401C08D156
:103F9000090306D1AFF300801DB1286840F001008D
:103FA000286002B0BDEC028B31BD00BF344E000072
:103FB0002DE9F14185B0884616461D001CBF002042
:103FC0002860059F05A804F06BFAC41020F00800D3
:103FD000012804F0010425D10220009001AB0599CD
:103FE0004246384604F0EEFA10B99FED300B15E06A
:103FF0009DED020A0228B8EEC00B0FDB03A9401E9C
:104000009FED2C1B51F8042BB0EE402B00EE102A34
:10401000B8EEC00B401E02EE010BF3D10198294609
:10402000801927E0022828D1009001AB059942466B
:10403000384604F0A3FB10B99FED1C0B15E09DED75
:10404000020A0228B8EEC00B0FDB03A9401E9FED49
:104050001B1B51F8042BB0EE402B00EE102AB8EEDB
:10406000C00B401E02EE010BF3D1019804F0A0F941
:1040700029463046FFF7D2FE0AE0032808BF9FED2D
:10408000110B05D004280CBF9FED100B9FED070B03
:104090000CB1B1EE400B06B0BDE8F081436FAC64EB
:1040A0002806C80A3CBF737FDD4F1575000000006D
:1040B000000000000000000065CDCD4100000000C0
:1040C0000000B041000000000000F07FFFFFFFFF94
:1040D000FFFFFF7F00230022002169E79FED882B6F
:1040E00020EE021B53EC112BF0B423F0004155ECF1
:1040F000114B0D4645EC124B9FED834BB4EE442B18
:10410000F1EE10FA2DED068B2BD5B6EE002B55EC0B
:10411000124B03F000432B4357EC126B1F4647EC46
:10412000126B31EE021BBDEEC11B11EE101A0029FD
:1041300000F08B80BAEEC21B9FED753B01EE030BC6
:104140009FED755B01EE050B9FED757B01EE070B97
:104150009FED759B01EE090B9FED753B01EE030B87
:1041600073E055EC104B69004915491C08D12A032E
:1041700040F0C180BDEC068B9FED6F0BF0BC70472B
:1041800035F0004508BF002C08D1002800F0B380AE
:10419000BDEC068BB7EE000BF0BC7047B6EE002B03
:1041A00055EC124B03F000432B4357EC126B1F46A8
:1041B00047EC126B31EE021B53EC112B5D0045EA0C
:1041C000D2755400002D08BF002C19D040F23341A5
:1041D000A1EB5554352C04DB02F0000203F0004340
:1041E0000CE0202C03DD203CE340A34000E001D1A3
:1041F000002203E0002CC4BFE240A24043EC112B9C
:1042000053EC112B22F0000433F0004508BF002CC2
:1042100017D09FED4B3B21EE032B9FED3D5B02EE54
:10422000050B9FED3D7B02EE070B9FED3D9B02EEE4
:10423000090B9FED3DAB02EE0A0B9FED3D5B02EEDD
:10424000050BBDEEC11B11EE101A53EC102B23F021
:10425000004255EC104B154645EC114B9FED3A3B97
:1042600001F00301B4EE431B0818F1EE10FA00F060
:10427000010104D500293AD0B7EE000B37E020EE5B
:10428000001BD1B19FED322B9FED334B01EE024B62
:104290009FED336B04EE016B9FED338B06EE018BCC
:1042A0009FED332B08EE012B9FED334B02EE014BBC
:1042B000B7EE000B04EE010B19E09FED317B9FED93
:1042C000324B01EE074B9FED328B04EE018B9FEDDD
:1042D00032AB08EE01AB9FED327B0AEE017B9FED26
:1042E000324B20EE012B07EE014B02EE040B800750
:1042F00048BFB1EE400BBDEC068BF0BC7047000030
:1043000083C8C96D305FE43F0000A0FFFFFFDF41BD
:1043100000000050FB21B9C100000060B41011C0C2
:104320000000002026A651BE000000005C14D3BC93
:10433000000000209A833BBBFFFFFFFFFFFFFF7FD2
:10434000000000000000303E000000000000403E81
:1043500009260A1039BA213E3BA861C6F97D92BEF2
:1043600063AC30909F01FA3EF6FB51166CC156BF0C
:10437000B10255555555A53FAEFFFFFFFFFFDFBF0B
:10438000B08F2FC310D8E53D8F0C73A1E1E55ABE65
:104390004DADE44FE31DC73E3EE3B519A0012ABF72
:1043A000FAF010111111813F425555555555C5BFB1
:1043B000012093E6002091E610B50400002C01D105
:1043C00001205EE094F84100002805D1002084F827
:1043D0004000200004F0D6FA242084F84100206830
:1043E00000684008400021680860606830F0706034
:1043F000216808612068806830F400402168886086
:10440000E068012805D1A06850F400402168886068
:1044100004E0A06850F4044021688860E068022845
:1044200003D14FF40060216848602068406840F084
:10443000007050F40040216848602068C06830F483
:1044400000402168C860216960690143A06951EAA0
:1044500000212068C160E169206A01432068016091
:104460002068006850F00100216808600020606446
:10447000202084F8410000202063002084F84200BE
:10448000002010BD2DE9FC4104000D0016001F00A6
:1044900094F8410020283FD120688069000401D5AC
:1044A00002203AE094F84000012801D1022034E0D3
:1044B000012084F84000212084F84100102084F875
:1044C00042000020606466626785DFF85800E062A1
:1044D000DFF854006063608DB0F5807F04D3FF2067
:1044E00020855FF0807803E0608D20855FF00078A4
:1044F000DFF82C0000904346228DD2B2290089B209
:10450000200000F0BBFF002084F8400001212000C3
:1045100000F0CDFF002000E00220BDE8F6810000A1
:10452000002000800000FFFF4D45000870B504002A
:104530002068856920680668606B002804D0320016
:1045400029002000636B984770BD00002DE9FC41F5
:1045500004000D001600A84694F84000012801D17F
:104560000220B4E0012084F840005FEAC8600CD566
:10457000F0060AD510202168C861606C50F0040074
:104580006064200000F04FFF94E05FEA487011D5AE
:1045900070070FD538F004082068406A616A087017
:1045A000606A401C6062208D401E2085608D401E28
:1045B00060857FE05FEA88700FD5B0070DD5606A2F
:1045C000007821688862606A401C6062208D401E0D
:1045D0002085608D401E60856CE05FEA086049D5EB
:1045E000700647D5608D002837D0208D002834D143
:1045F000206840688005800D0700608DB0F5807FE1
:104600000DD3FF202085002000905FF08073228D65
:10461000D2B2390089B2200000F030FF4AE0608D4C
:104620002085E06ADFF80C1688420AD0002000904E
:10463000E36A228DD2B2390089B2200000F01EFF59
:1046400038E0002000905FF00073228DD2B2390074
:1046500089B2200000F012FF2CE020684068800141
:1046600003D4200000F056FB24E04021200000F09D
:10467000F9FD1FE05FEA48601CD570061AD5608D11
:10468000002813D120684068800113D4E06ADFF865
:10469000A415884206D12068406850F48040216803
:1046A000486007E0200000F035FB03E040212000D7
:1046B00000F0D8FD5FEA886005D5B00603D5414615
:1046C000200000F094FB002084F840000020BDE8AA
:1046D000F68100002DE9F04105000E001700EC6A9C
:1046E000B04695F84000012801D1022092E0012057
:1046F00085F840005FEA886005D5B80603D54146D5
:10470000280000F001FC5FEAC86037D5F80635D50F
:10471000688D002821D195F84100282807D1B4F1EF
:10472000007F04D14146280000F067FD6EE095F857
:10473000410029280DD1DFF8FC04844209D0102063
:104740002968C861280000F06EFE280000F00FFB09
:104750005CE010202968C86158E010202968C86111
:10476000686C50F004006864002C02D0B4F1807FC3
:104770004CD1696C280000F075FD47E05FEA487095
:104780001CD578071AD5688D00280CD02868406A97
:10479000696A0870686A401C6862288D401E288516
:1047A000688D401E6885688D00282FD1DFF884044D
:1047B00084422BD0280000F0DAFA27E05FEA087084
:1047C00006D5380704D54146280000F035FA1DE02B
:1047D0005FEA88701AD5B80718D5688D00280DD003
:1047E000686A007829688862686A401C6862688D17
:1047F000401E6885288D401E288507E0B4F1807F23
:1048000001D0002C02D1280000F0B1FA002085F878
:1048100040000020BDE8F0812DE9FC4104000D00BE
:10482000160094F84000012801D1022097E00120F1
:1048300084F84000E80610D5F0060ED51020216857
:10484000C861606C50F0040060642021200000F01A
:104850002EFE200000F0E7FD7DE0280653D570060F
:1048600051D52068006830F0400021680860608DF4
:1048700000283BD0206840688005800D0700608DCF
:10488000B0F5807F05D3FF2020855FF080708046E3
:104890000CE0608D2085E06ADFF89813884202D032
:1048A000E06A804602E05FF00070804600200090E1
:1048B0004346228DD2B2390089B2200000F0DEFDDD
:1048C000618D208D091A618594F84100222806D156
:1048D0002068006850F40040216808603BE02068D0
:1048E000006850F480402168086034E02068406827
:1048F000800103D4200000F00DFA2CE040212000BC
:1049000000F0B0FC27E068061DD570061BD5608D51
:10491000002813D12068406880011CD4E06ADFF8C9
:104920001413884206D12068406850F48040216802
:10493000486010E0200000F0EDF90CE0402120007C
:1049400000F090FC07E0A80605D5B00603D52900C5
:10495000200000F04CFA002084F840000020BDE860
:10496000F68100002DE9F84306000F009046F46A36
:104970005FF0000996F84000012801D1022056E1BD
:10498000012086F84000B80606D55FEA886003D5A6
:104990003900300000F0B8FAF80640F13B815FEAD8
:1049A000C86040F1378118F4404F00F02F81F06B60
:1049B00000286DD05FEA08406AD5F06B0068DFF828
:1049C000F019884259D0F06B0068DFF8E819884286
:1049D00053D0F06B0068DFF8E01988424DD0F06BDF
:1049E0000068DFF8D819884247D0F06B0068DFF81C
:1049F000D019884241D0F06B0068DFF8C8198842AE
:104A00003BD0F06B0068DFF8C019884235D0F06BFE
:104A10000068DFF8B81988422FD0F06B0068DFF823
:104A2000B019884229D0F06B0068DFF8A8198842D5
:104A300023D0F06B0068DFF8A01988421DD0F06B1E
:104A40000068DFF89819884217D0F06B0068DFF82B
:104A50009019884211D0F06B0068DFF888198842FD
:104A60000BD0F06B0068DFF88019884205D0F06B3E
:104A70000068DFF87819884203D1F06B006840685D
:104A800002E0F06B00684068002801D101208146F7
:104A9000B06B00286DD05FEA48406AD5B06B006803
:104AA000DFF80C19884259D0B06B0068DFF80419A0
:104AB000884253D0B06B0068DFF8FC1888424DD0B4
:104AC000B06B0068DFF8F418884247D0B06B00681C
:104AD000DFF8EC18884241D0B06B0068DFF8E418CA
:104AE00088423BD0B06B0068DFF8DC18884235D0D4
:104AF000B06B0068DFF8D41888422FD0B06B006824
:104B0000DFF8CC18884229D0B06B0068DFF8C418F1
:104B1000884223D0B06B0068DFF8BC1888421DD0F3
:104B2000B06B0068DFF8B418884217D0B06B00682B
:104B3000DFF8AC18884211D0B06B0068DFF8A41819
:104B400088420BD0B06B0068DFF89C18884205D013
:104B5000B06B0068DFF89418884203D1B06B00682E
:104B6000406802E0B06B00684068002801D1012075
:104B70008146B9F1010F20D196F84100282807D1CC
:104B8000B4F1007F04D13900300000F036FB4AE078
:104B900096F8410029280CD12648844209D01020DB
:104BA0003168C861300000F03EFC300000F0DFF8F2
:104BB00039E010203168C86135E010203168C861E3
:104BC000706C50F00400706496F841000500002CF1
:104BD00002D0B4F1807F26D12800C0B2212803D0B2
:104BE0002800C0B2292802D12120306309E0280022
:104BF000C0B2222803D02800C0B22A2801D1222026
:104C00003063716C300000F02DFB0CE01020316837
:104C1000C86108E0380706D55FEA087003D5390097
:104C2000300000F009F8002086F840000020BDE8C0
:104C3000F28300000000FFFF2DE9F84304000D009F
:104C400094F8410010F0280028285BD12068806982
:104C5000000C10F00100060020688069000C10F0C4
:104C6000FE000700206880688005800D804620686F
:104C7000C06810F0FE008146E068022832D138009A
:104C800080B210F00600414689B2C90911F0060150
:104C9000884216D14746A06C401CA064A06C022834
:104CA00036D10020A06408202168C861002084F863
:104CB00040003A0092B23100C9B2200003F063FE16
:104CC00026E04F464FF40041200000F043FC002056
:104CD00084F840003A0092B23100C9B2200003F0DB
:104CE00052FE15E04FF40041200000F033FC00209C
:104CF00084F840003A0092B23100C9B2200003F0BB
:104D000042FE05E008202168C861002084F84000C8
:104D1000BDE8F18310B50400002084F8420094F847
:104D20004100212811D1202084F841001120206366
:104D3000002060630121200000F00CFC002084F8BA
:104D400040002000FCF7CAFA10E0202084F841005F
:104D500012202063002060630221200000F0FAFB93
:104D6000002084F84000200003F00EFE10BD38B58E
:104D7000040020680568002084F84200680406D515
:104D80002068006830F480402168086007E028044B
:104D900005D52068006830F400402168086094F868
:104DA000410029280FD1282084F8410021202063C8
:104DB0000121200000F0CEFB002084F840002000FC
:104DC00003F0E3FD12E094F841002A280ED12820D8
:104DD00084F84100222020630221200000F0BAFB69
:104DE000002084F84000200003F0D0FD31BDF8B56C
:104DF00005000E00370020202968C86195F84100A1
:104E0000212806D10121280000F0A4FB11202863ED
:104E100009E095F84100222805D10221280000F080
:104E200099FB1220286328684168DFF820060140BA
:104E30002868416000206863DFF83C06E862F806F5
:104E400006D510202968C861686C50F004006864B9
:104E500095F84100602806D1780704D52868406A93
:104E6000C0B200900098280000F0DDFA6C6C95F854
:104E70004100602801D0002C04D0696C280000F0AB
:104E8000F1F940E095F8410021281CD1202085F857
:104E900041000020286395F84200402809D10020F5
:104EA00085F84200002085F84000280003F06FFDDF
:104EB00029E0002085F84200002085F84000280005
:104EC000FCF70CFA1FE095F8410022281BD12020A6
:104ED00085F841000020286395F84200402809D158
:104EE000002085F84200002085F84000280003F0EB
:104EF0004FFD08E0002085F84200002085F84000C2
:104F0000280003F041FDF1BD2DE9F84304000D0038
:104F1000206806682F0094F8418020202168C8612D
:104F20004046C0B2212803D04046C0B2292807D14C
:104F300048F20101200000F00DFB212020630EE06B
:104F40004046C0B2222803D04046C0B22A2806D12B
:104F500048F20201200000F0FDFA222020632068C0
:104F6000406850F400402168486020684168DFF8DC
:104F7000DC04014020684160200000F054FA700415
:104F800072D52068006830F4804021680860A06B0A
:104F9000002800F0CF80A06B0068DFF8141488426E
:104FA00059D0A06B0068DFF80C14884253D0A06B76
:104FB0000068DFF8041488424DD0A06B0068DFF869
:104FC000FC13884247D0A06B0068DFF8F4138842D6
:104FD00041D0A06B0068DFF8EC1388423BD0A06B97
:104FE0000068DFF8E413884235D0A06B0068DFF872
:104FF000DC1388422FD0A06B0068DFF8D4138842FE
:1050000029D0A06B0068DFF8CC13884223D0A06BB6
:105010000068DFF8C41388421DD0A06B0068DFF879
:10502000BC13884217D0A06B0068DFF8B413884225
:1050300011D0A06B0068DFF8AC1388420BD0A06BD6
:105040000068DFF8A413884205D0A06B0068DFF881
:105050009C13884203D1A06B0068406802E0A06BFB
:1050600000684068608565E0300463D520680068AA
:1050700030F4004021680860E06B00285AD0E06BF3
:105080000068DFF82C1388424CD0E06B0068DFF832
:105090002413884246D0E06B0068DFF81C13884276
:1050A00040D0E06B0068C54988423BD0E06B0068A7
:1050B000C349884236D0E06B0068C249884231D08B
:1050C000E06B0068C04988422CD0E06B0068BF49A3
:1050D000884227D0E06B0068BD49884222D0E06B4F
:1050E0000068BC4988421DD0E06B0068BA4988421C
:1050F00018D0E06B0068B949884213D0E06B0068B3
:10510000B74988420ED0E06B0068B649884209D0A2
:10511000E06B0068B449884204D0E06B0068B34992
:10512000884203D1E06B0068406802E0E06B0068F1
:1051300040686085780711D537F004072068406A19
:10514000616A0870606A401C6062208D002805D08A
:10515000208D401E2085608D401E6085608D00285A
:1051600003D0606C50F004006064002084F84200BA
:1051700000206063606C00280CD0616C200000F09F
:1051800071F894F84100282835D13900200000F04A
:1051900034F830E0DFF8A893E06A484510D02000EA
:1051A000FFF7E5FDC4F82C90202084F84100002092
:1051B0002063002084F84000200003F0EAFB1AE09E
:1051C00094F8410022280BD1202084F841000020CF
:1051D0002063002084F84000200003F0D7FB0AE0A1
:1051E000202084F8410000202063002084F8400043
:1051F000200003F0CAFBBDE8F18338B504000D00C0
:10520000DFF83C03E06200202063202084F84100A6
:10521000002084F8420000206063680713D52068EE
:10522000406A616A0870606A401C6062208D0028D4
:1052300009D0208D401E2085608D401E6085606CE9
:1052400050F00400606448F20301200000F082F98D
:1052500010202168C861002084F84000200003F07D
:1052600098FB31BDF8B504000D0094F841600020B2
:1052700084F84200DFF80002E06200206085606C84
:10528000284360643000C0B2282807D03000C0B284
:10529000292803D03000C0B22A280AD103212000D7
:1052A00000F058F9282084F84100DFF89802606384
:1052B00022E048F20301200000F04CF9200000F049
:1052C000B2F894F84100602814D0202084F84100FE
:1052D0002068806980060DD520688069C00606D5E3
:1052E00010202168C861606C50F0040060642020C8
:1052F0002168C86100206063276BA06B002827D05D
:10530000112F01D0212F23D120680068400405D53A
:105310002068006830F4804021680860A06B01F0CC
:10532000B1FC012810D00FF22910A16B08650020F4
:1053300084F84000A06B01F0ABFA002836D0A06BD7
:10534000A16B096D884731E0200000F051F82DE095
:10535000E06B002827D0122F01D0222F23D1206804
:105360000068000405D52068006830F4004021681A
:105370000860E06B01F086FC012810D00FF2D1002C
:10538000E16B0865002084F84000E06B01F080FAD2
:1053900000280BD0E06BE16B096D884706E0200028
:1053A00000F026F802E0200000F022F8F1BD000035
:1053B0001000024028000240400002405800024015
:1053C0007000024088000240A0000240B800024085
:1053D00010040240280402404004024058040240E5
:1053E0007004024088040240A0040240B804024055
:1053F00010B5040094F8410060280BD1202084F8F7
:10540000410000202063002084F84000200003F0C9
:10541000C1FA07E000202063002084F8400020004B
:1054200003F0B9FA10BD01688969890702D5002126
:105430000268916201688969C90705D401688969B0
:1054400051F00101026891617047000000E800FE20
:1054500038B50400A56BA86B002802D00020A96B0A
:105460000865E86B002802D00020E96B0865280079
:10547000FFF7BEFF31BD00000000FFFFF0B4049C49
:105480000D00ADB2AD05AD0D1600F6B255EA0645FC
:105490001D43254325F00045066876682A4F57EAE4
:1054A0005457BE432E4307687E60F0BC704710B46B
:1054B0000022436B254CA34203D0436B244CA342F0
:1054C00018D10B009BB21B0401D552F0B8020B009F
:1054D0009BB2102B01D152F090020B009BB2202BFB
:1054E00001D152F060020B009BB2402B20D152F050
:1054F00040021DE00B009BB21B0401D552F0B80224
:105500000B009BB2DB0701D552F0F2020B009BB2FD
:105510009B0701D552F0F4020B009BB2102B01D176
:1055200052F090020B009BB2202B01D152F02002CE
:1055300003681B6813430468236010BC70470000B5
:105540000000FFFFD5460008FF63FF03194800086D
:105550006549000810B400220B009BB2DB0709D597
:1055600052F0420290F8413013F02803282B01D06A
:1055700052F0B0020B009BB29B0709D552F04402D7
:1055800090F8413013F02803282B01D052F0B002DC
:105590000B009BB21B0401D552F0B8020B009BB26A
:1055A000102B01D152F090020B009BB2202B01D1A5
:1055B00052F020020B009BB2402B01D152F040026E
:1055C00003681B6893430468236010BC70472E0077
:1055D00010B50400002C01D1012035E094F83D0005
:1055E000002805D1002084F83C00200003F0D4F905
:1055F000022084F83D00211D206800F051F90120AF
:1056000084F84800012084F83E00012084F83F001F
:10561000012084F84000012084F84100012084F832
:105620004200012084F84300012084F84400012056
:1056300084F84500012084F84600012084F84700E2
:10564000012084F83D00002010BD010091F83D00CC
:10565000012801D0012048E0022081F83D000868BF
:10566000C06850F001000B68D8600868DFF87C3033
:10567000984221D00868B0F1804F1DD00868DFF84B
:105680007030984218D00868DFF86830984213D01C
:105690000868DFF8643098420ED00868DFF85C30A4
:1056A000984209D00868DFF85830984204D008685A
:1056B000DFF85030984211D108688368DFF848005D
:1056C00003401A00062A0FD0B2F5803F0CD00868BC
:1056D000006850F001000B68186005E00868006879
:1056E00050F001000B681860002070470000014076
:1056F0000004004000080040000C0040000401408D
:1057000000180040004001400700010010B50400EF
:105710002068006980071AD52068C068800716D500
:105720007FF00200216808610120207720688069ED
:1057300010F0030F03D0200003F02FF905E0200044
:1057400003F02CF9200003F02AF9002020772068CC
:10575000006940071AD52068C068400716D57FF059
:10576000040021680861022020772068806910F415
:10577000407F03D0200003F010F905E0200003F083
:105780000DF9200003F00BF9002020772068006954
:1057900000071AD52068C068000716D57FF00800FA
:1057A00021680861042020772068C06910F0030F89
:1057B00003D0200003F0F1F805E0200003F0EEF83C
:1057C000200003F0ECF80020207720680069C00674
:1057D0001AD52068C068C00616D57FF01000216871
:1057E0000861082020772068C06910F4407F03D04A
:1057F000200003F0D2F805E0200003F0CFF82000ED
:1058000003F0CDF80020207720680069C0070AD592
:105810002068C068C00706D57FF0010021680861D4
:105820002000FBF765FD2068006900060AD52068A6
:10583000C068000606D57FF080002168086120005E
:1058400003F0AEF820680069C0050AD52068C0687A
:10585000000606D57FF4807021680861200003F0FF
:10586000A0F82068006940060AD52068C068400694
:1058700006D57FF0400021680861200003F092F80F
:105880002068006980060AD52068C068800606D5B1
:105890007FF0200021680861200003F084F810BD2B
:1058A00010B40468DFF8C030984212D0B0F1804FD5
:1058B0000FD0DFF8B82090420BD0DFF8B420904230
:1058C00007D0DFF8B020904203D0DFF8AC20904240
:1058D00003D134F070044A68144398421ED0B0F1EA
:1058E000804F1BD0DFF88420904217D0DFF8802053
:1058F000904213D0DFF87C2090420FD0DFF8782060
:1059000090420BD0DFF87420904207D0DFF870206F
:10591000904203D0DFF86C20904203D134F44074FD
:10592000CA68144334F080044A69144304608A68E6
:10593000C2620A68826298420FD0DFF83C2090422F
:105940000BD0DFF83820904207D0DFF834209042A7
:1059500003D0DFF83020904201D10A6902630122AE
:10596000426110BC7047000000000140000400408C
:1059700000080040000C00400004014000400140CD
:10598000004401400048014062F30F2262F31F42CD
:10599000401810F0030308D0C91A1FD3DB0748BF13
:1059A00000F8012D28BF20F8022D130030B4144652
:1059B0001546103928BF20E93C00FAD8490728BF0E
:1059C00020E90C0048BF40F8042D890028BF20F8CA
:1059D000022D48BF00F8012D30BC7047C91818BF10
:1059E00000F8012DCB0728BF00F8012D70474300B8
:1059F00038B50400DFF848000168490708D400689A
:105A000010F00700A04201D0012018E0002016E0AD
:105A10000168C908C9002143016000F0CBFC050002
:105A2000DFF820000068800408D400F0C3FC401BAD
:105A300040F2E9318842F3D3012000E0002032BD7A
:105A40000C480258044802582DE9F0470400002C85
:105A500001D101205DE32078C0076DD5DFF8B806DD
:105A6000056815F03805DFF8B406D0F80090102D61
:105A700005D0182D0DD119F00300022809D1DFF847
:105A8000A0060068800357D56068002854D1012023
:105A90003FE36068B0F5803F06D1DFF88406016817
:105AA00051F48031016026E0606800280AD1DFF8F7
:105AB0007006016831F480310160016831F48021A1
:105AC000016018E06068B0F5A02F0AD1DFF8500639
:105AD000016851F480210160016851F48031016056
