:020000040800F2
:10000000A81E002035900008FD8F0008FF8F000813
:10001000019000080390000805900008000000000F
:100020000000000000000000000000000790000831
:1000300009900008000000000B9000080D900008D7
:10004000599000085D9000086190000865900008D4
:10005000699000086D900008719000087590000884
:100060007990000849130008531300087D90000898
:100070008190000885900008899000088D90000804
:100080009190000895900008999000089D900008B4
:10009000A1900008A5900008A9900008AD90000864
:1000A000B1900008B5900008B9900008BD90000814
:1000B000111300081D130008291300083513000848
:1000C000C1900008C5900008C9900008CD900008B4
:1000D000D1900008D5900008F5120008011300081F
:1000E000D9900008DD90000800000000E1900008B1
:1000F000E5900008E9900008ED900008F1900008F4
:10010000F5900008F9900008FD90000801910008A2
:1001100005910008099100080D910008119100084F
:1001200015910008199100081D91000821910008FF
:1001300025910008299100082D91000831910008AF
:1001400000000000000000000000000000000000AF
:1001500035910008399100083D910008419100084F
:1001600045910008499100084D91000851910008FF
:1001700055910008599100085D91000800000000A9
:100180006191000865910008699100086D9100086F
:100190007191000875910008799100087D9100081F
:1001A0008191000885910008899100088D910008CF
:1001B0009191000895910008999100089D9100087F
:1001C000A1910008A5910008A9910008AD9100082F
:1001D000B1910008B5910008B9910008BD910008DF
:1001E000C1910008C5910008C9910008CD9100088F
:1001F000D1910008D5910008D9910008DD9100083F
:10020000E1910008E5910008E9910008ED910008EE
:10021000F1910008F5910008F9910008FD9100089E
:1002200001920008059200080992000800000000F1
:100230000D920008119200080000000015920008BD
:10024000199200081D9200082192000825920008CA
:10025000299200082D92000831920008359200087A
:10026000399200083D92000841920008459200082A
:10027000499200084D9200085192000800000000C9
:1002800055920008599200085D9200080000000095
:1002900000000000619200082DE9F84F01F0B3FA68
:1002A00001F084FC01F0BEF901F011FA01F0DBFA73
:1002B00001F056FB01F0D1FBDFF8C40C00F062F94D
:1002C0000121DFF8BC0C00F0B5FD01F0F1FDDFF815
:1002D000401B0860DFF8AC0CDFF8381B0160DFF86A
:1002E000381B4160DFF8341B4161DFF8341B81614A
:1002F000DFF8301BC161002181600021C160002056
:10030000DFF8841C0860DFF8201B0860DFF81C4B56
:100310002060DFF81C1B08600020DFF8F81C086074
:10032000DFF8F00C0068DFF8F01C08600020DFF850
:10033000341D08600020DFF8541C08600020DFF83E
:10034000501C08600420DFF8281D08700120DFF829
:10035000441C08600020DFF8C41C08600020DFF89F
:10036000C01C08600020DFF8BC1C08600020DFF81B
:10037000B81C0860DFF8205C01222900DFF8AC0C13
:1003800001F09BFFDFF8146C3068642860DB2068A4
:1003900001285DDB280003F0FFFA284410F8010C67
:1003A0000A2806D1280003F0F7FA2844002100F8B3
:1003B000011CDFF87C7CDFF85C0C00680090DFF843
:1003C000580C03682A00DFF86C1C380003F004FBAB
:1003D0002900DFF8640C03F01FFBDFF8608CDFF806
:1003E000609CDFF860ACDFF860BCCDF800B053462D
:1003F0004A46DFF8581C00F0DCF8C8F80000380066
:1004000003F0CAFA020092B23900DFF8200C01F0C2
:10041000FAFED8F8000000280FD1DFF8647B9BEDCE
:10042000000ADAF80030D9F800203900280000F07E
:1004300083F90021380000F0FDFC0020306000202E
:10044000206000200A2803DA00212954401CF9E723
:1004500020680A282FDBDFF8F86B280000F0A0FDE9
:1004600030603068002812D1DFF8C46B2A00DFF852
:10047000E41B300003F0B0FA300003F08DFA020004
:1004800092B23100DFF8A40B01F0BDFE11E0DFF8FD
:10049000A06B2A00DFF8C01B300003F09DFA012298
:1004A0003100DFF8880B01F0AEFE0120DFF8D81A2A
:1004B000086000202060DFF8F46C306873280CD1ED
:1004C000DFF8987B3878002807D101220121DFF876
:1004D000E00C03F0CFFB01203870706873280CD15A
:1004E000DFF8787B7878002807D101220221DFF835
:1004F000700B03F0BFFB01207870B06873280DD13A
:10050000DFF8587BB878002808D101224FF48041E9
:10051000DFF89C0C03F0AEFB0120B870306878283F
:100520000CD1DFF8387B3878012807D1002201216F
:10053000DFF87C0C03F09EFB002038707068782890
:100540000CD1DFF8187B7878012807D1002202212E
:10055000DFF80C0B03F08EFB00207870B068782871
:100560007FF410AFDFF8F46AB07801287FF40AAFA7
:1005700000224FF48041DFF8380C03F07BFB0020B1
:10058000B070FFE633210170342180F880103521EE
:1005900080F80011362180F880110021417000217F
:1005A00080F88110002180F80111002180F881116C
:1005B00070472DE9F84F86B004000D0016001F00AB
:1005C000DDF840805FF0000A5FF0000920785828CD
:1005D0000DD1200003F0E0F9022806D360785228FC
:1005E00003D10120DFF87C1A08605046A0E0207893
:1005F000472801D150469BE0200003F0CDF90228A6
:1006000001D2012094E0207846282BD0207852286F
:1006100028D020784C2825D02078422822D0207855
:1006200058281FD020785A281CD02078432819D069
:100630002078592816D020784A2813D020785528B9
:1006400010D0207848280DD020784E280AD0207865
:100650004D2807D02078512804D02078452801D093
:10066000012065E00122611C03A803F03FFB00208C
:100670008DF80D0003A803F011FC3060002801D1B3
:10068000012055E020784D2802D020784E2814D142
:10069000200003F081F903280BD3A07846280AD064
:1006A000A078522807D0A078422804D0A0784C28FF
:1006B00001D00120824650463AE02078512802D0ED
:1006C0002078452833D1200003F066F9062801D2AE
:1006D00001202DE00222A11C684603F007FBEB4637
:1006E00000208BF80200684603F0D8FB8146002802
:1006F00001D101201CE01E2000FB09F0386002221D
:10070000211D684603F0F2FA00208BF802006846CB
:1007100003F026FDB7EEC00B88ED000A98ED000A45
:10072000B5EE400AF1EE10FA01D1012000E050468A
:1007300007B0BDE8F08F00002DE9F0412DED028BF0
:1007400004000D0016001F00B0EE408A0A2000FBD6
:1007500006F05B2190FBF1F801FB18082078472890
:100760000DD100F087FC00206870002085F8810022
:10077000002085F80101002085F8810181E22078C0
:1007800046280DD185F80180FF2000FB08F085F890
:100790008100FF2000FB08F085F8010185F88181C8
:1007A000207842280CD1FF2000FB08F0687085F803
:1007B000818085F80181FF2000FB08F085F8810128
:1007C00020784C2812D1FF2000FB08F06870FF2031
:1007D00000FB08F085F88100FF2000FB08F085F899
:1007E0000101FF2000FB08F085F8810120785228E4
:1007F00007D185F8018085F8818085F8018185F829
:10080000818120785A2811D185F80180FF2000FBD2
:1008100008F085F8810085F80181FF2000FB08F0D1
:1008200085F881010120DFF8F4170860207843285B
:1008300010D1FF2000FB08F0687085F88180FF2050
:1008400000FB08F085F8010185F881810120DFF8BF
:10085000CC170860207859280ED100206870FF203E
:1008600000FB08F085F88100FF2000FB08F085F808
:100870000101002085F881012078552809D185F8EB
:100880000180002085F88100002085F8010185F8AD
:10089000818120784A2808D10020687085F88180FD
:1008A00085F80181002085F88101207848280ED143
:1008B000FF2000FB08F06870002085F88100002010
:1008C00085F80101FF2000FB08F085F88101207800
:1008D0004E2840F0C480A07842285DD0462805D03C
:1008E0004C2800F0888052282FD0B8E000EE108A03
:1008F000B8EEC00B01EE108AB8EEC11B9FEDE33BD2
:1009000001EE030BBDEEC00B10EE100A68705FF035
:10091000FF3000FB08F000EE100AB8EEC00B01EE4D
:10092000108AB8EEC11B9FEDDB3B01EE030BBDEE61
:10093000C00B10EE100A85F88100FF2000FB08F0C4
:1009400085F8010185F8818189E085F801809FEDB6
:10095000D10B01EE108AB8EEC11B02EE108AB8EE80
:10096000C22B02EE001BBDEEC11B11EE100A85F872
:10097000810085F8018101EE108AB8EEC11B02EEFC
:10098000108AB8EEC22B02EE001BBDEEC10B10EEBA
:10099000100A85F8810162E0FF2000FB08F0687012
:1009A00085F8818000EE108AB8EEC00B01EE108A47
:1009B000B8EEC11B9FEDB53B01EE030BBDEEC00BC6
:1009C00010EE100A85F801015FF0FF3000FB08F01F
:1009D00000EE100AB8EEC00B01EE108AB8EEC11B93
:1009E0009FEDAC3B01EE030BBDEEC00B10EE100A09
:1009F00085F8810133E0FF2000FB08F068709FED6F
:100A0000A50B5FF0FF3000FB08F001EE100AB8EE16
:100A1000C11B02EE108AB8EEC22B02EE001BBDEE27
:100A2000C11B11EE100A85F88100FF2000FB08F0C1
:100A300085F801015FF0FF3000FB08F001EE100ABD
:100A4000B8EEC11B02EE108AB8EEC22B02EE001BFC
:100A5000BDEEC10B10EE100A85F88101FFE720788A
:100A60004D2840F0C480A07842285DD0462805D0AB
:100A70004C2800F08880522830D0B8E085F80180FA
:100A8000FF2000FB08F085F881005FF0FF3000FBDD
:100A900008F000EE100AB8EEC00B01EE108AB8EEB6
:100AA000C11B9FED7C3B01EE030BBDEEC00B10EEB6
:100AB000100A85F8010100EE108AB8EEC00B01EEB5
:100AC000108AB8EEC11B9FED713B01EE030BBDEE2A
:100AD000C00B10EE100A85F8810188E09FED6D0BC8
:100AE00001EE108AB8EEC11B02EE108AB8EEC22BDE
:100AF00002EE001BBDEEC11B11EE100A687085F8F6
:100B0000818001EE108AB8EEC11B02EE108AB8EEA9
:100B1000C22B02EE001BBDEEC10B10EE100A85F8D1
:100B2000010185F8818162E05FF0FF3000FB08F091
:100B300000EE100AB8EEC00B01EE108AB8EEC11B31
:100B40009FED543B01EE030BBDEEC00B10EE100AFF
:100B5000687000EE108AB8EEC00B01EE108AB8EE95
:100B6000C11B9FED4A3B01EE030BBDEEC00B10EE27
:100B7000100A85F8810085F80181FF2000FB08F04C
:100B800085F8810133E09FED430B5FF0FF3000FB00
:100B900008F001EE100AB8EEC11B02EE108AB8EEA2
:100BA000C22B02EE001BBDEEC11B11EE100A6870D5
:100BB000FF2000FB08F085F881005FF0FF3000FBAC
:100BC00008F001EE100AB8EEC11B02EE108AB8EE72
:100BD000C22B02EE001BBDEEC10B10EE100A85F811
:100BE0000101FF2000FB08F085F88101FFE7207874
:100BF00058280AD100206870002085F88100002064
:100C000085F80101002085F88101207851281AD14A
:100C10000120DFF808140860B2EE040A88EE008AAA
:100C20000022B0EE480A390000EE908AF8EEE00AA1
:100C3000D44890ED071A60EE810AFDEEE00A10EE4E
:100C4000900A00F02BF8207845281AD10120DFF80F
:100C5000CC130860B2EE040A88EE008A0122B0EEDE
:100C6000480A390000EE908AF8EEE00AC54890ED97
:100C7000071A60EE810AFDEEE00A10EE900A00F01D
:100C80000DF8BDEC028BBDE8F08100009A999999AE
:100C90009999C93F9A9999999999C9BF2DE9F843AA
:100CA0002DED0A8B84B006000D00B0EE408A1400D2
:100CB000B52D02DB7642B1EE488A002C00D0764298
:100CC000DFEDAE8A00EE106AB8EEC09B00EE105A5F
:100CD000B8EEC00A20EE280AB7EEC00A03F0AEFB59
:100CE00029EE000BB7EEC09B00EE106AB8EEC0AB69
:100CF00000EE105AB8EEC00A20EE280AB7EEC00A7D
:100D000003F09EFB2AEE000BF7EEC09BDFF8748227
:100D100098ED000AF0EE000A80EE200AD8ED010AF4
:100D2000B0EE001AC0EE810A30EE200A20EE08AACA
:100D300039EEC90A70EE0AAA39EE890A30EE4ABACB
:100D400039EEC90A70EE4ABA39EE890A30EE0ACA9B
:100D50008DED00CA6F46B1EE6A0A87ED010AB1EE69
:100D60006B0A87ED020A87ED03BA5FF00009B9F15B
:100D7000040F07DA684600EB890000F033F819F138
:100D80000109F4E700EE106AB8EEC00A88ED020A25
:100D9000C8F80C5088ED048A79489DED000ABDEE34
:100DA000C00A10EE101A417097ED010ABDEEC00A9C
:100DB00010EE101A80F8811097ED020ABDEEC00AFD
:100DC00010EE101A80F8011197ED030ABDEEC00A6B
:100DD00010EE101A80F8811104B0BDEC0A8BBDE84A
:100DE000F183000090ED000AB7EEC00A9FED9E2B44
:100DF00080EE020BB7EEC00B80ED000A90ED000A0A
:100E0000BDEEC00AB8EEC00A80ED000A70470000CF
:100E1000401A00200000414300005B430000C04234
:100E20000020B4450000AC40281A0020241A0020FD
:100E3000301A0020FEB505000C00002C02D028005E
:100E4000FFF7A0FB28788DF800006E466878707078
:100E500095F88100B07095F80101F07095F8810166
:100E6000307105236A466821DFF8EC0A03F050FB75
:100E70006D49086800280BD06A480268DFF8DC3A40
:100E8000674807680A20474303EB070020F8022C55
:100E9000644A00201060707800280ED1B0780028D5
:100EA0000BD1F078002808D13079002805D1002036
:100EB00008600020106001205FE00868002801D170
:100EC000012008600A205649DFF8902A73780F68DD
:100ED0004743D3530B6843431344B7785F800B6891
:100EE00043431344F7789F800B6800FB03F01044E2
:100EF0003279C2800868401C08605A490868002896
:100F000007D00020444A10600020424A10600020B0
:100F1000086070785B2806DBF0785B2803DB032031
:100F20005349087020E07078002806D0F0785B28DC
:100F300003DB00204E49087016E070785B2806DB62
:100F4000F078002803D00220494908700CE070783E
:100F5000002806D0F078002803D00120444908700A
:100F600002E00420424908702C490868002802D099
:100F700004203F4A107000200860FEBD35FA8E3C08
:100F800024140020041A00202C1A0020801A0020AB
:100F90007C1A0020881A00204C170020541A0020C8
:100FA00070B504002A4D0020286020784C2803D01A
:100FB0000120286028682BE0DFF8386B601C02F005
:100FC0006DFF30603068012802DB3068042803DBE5
:100FD0000120286028681BE0A07873280CD0A07836
:100FE0006C2809D0A078682806D0A078782803D08B
:100FF0000120286028680BE0DFF8FC0AA178016076
:1010000000686A49326801EB820141F8040C2868E3
:1010100070BD0000741A0020701A0020841A00208D
:101020008C1A0020901A0020941A0020B816002074
:10103000CC170020149000084C180020501A0020F3
:101040005C1A0020641A0020601A0020581A002040
:10105000341A002050900008449000084C1A0020D8
:1010600000100258781A002000000000008015408F
:10107000A01A00202DE9FC41DFF8804A0120206001
:10108000DFF87C5A286801281DDBDFF8786A3268AF
:101090009EA1684602F0A0FCDFF86C7A9FEDA80ADA
:1010A0000023326839006846FFF746FB002138000C
:1010B000FFF7C0FE2868012825DBDFF8500A00682A
:1010C000002820D1F6E7286800281CD5DFF8346A0C
:1010D00032689CA1684602F07FFCDFF82C7A9FED15
:1010E000980A0023326839006846FFF725FB002183
:1010F0003800FFF79FFE2868002804D5DFF80C0AA7
:1011000000680028F7D04FF4FA7004F0A7FADFF86F
:10111000006A306801281DDBDFF8E8793A6894A19D
:10112000684602F059FCDFF8E0899FED850A00234C
:101130003A6841466846FFF7FFFA00214046FFF74C
:1011400079FE3068012825DBDFF8C0090068002837
:1011500020D1F6E7306800281CD5DFF8A8793A6876
:1011600084A1684602F038FCDFF89C899FED740A80
:1011700000233A6841466846FFF7DEFA0021404600
:10118000FFF758FE3068002804D5DFF880090068B2
:101190000028F7D000203060002028600020206068
:1011A0000020DFF868190860BDE8F3810000002026
:1011B000000402581CB5040000208DF800002068CF
:1011C000DFF85019884217D1DFF84C0900688DF814
:1011D0000000DFF848090168802908DA9DF800104E
:1011E000DFF83C290368D1540168491C01600122E1
:1011F0006946200001F061F82068DFF8281988426C
:101200002DD101226946200001F057F8DFF81809B6
:1012100000688DF80000DFF8E408006800280CD0B2
:101220009DF80000472807D09DF800000A2803D049
:101230000120DFF8D818086011E0DFF8E008016845
:1012400080290CDA9DF80010DFF8D4280368D15407
:101250000168491C01600020DFF8D018086013BD48
:101260001CB5040000208DF800002068DFF8A418E9
:1012700088421CD1DFF8B808DFF8B8180A6803689C
:101280009A420EDADFF8B0080A68805C8DF8000038
:101290000868401C086001226946200000F0B3FF86
:1012A00005E00A680068824201DB002008602068CF
:1012B000DFF8701888421CD1DFF87408DFF8741862
:1012C0000A6803689A420EDADFF86C080A68805CE4
:1012D0008DF800000868401C086001226946200063
:1012E00000F091FF05E00A680068824201DB0020FF
:1012F000086013BD80B5DFF8440801F017F801BDA0
:1013000080B5DFF83C0801F011F801BD4C25640000
:1013100080B5DFF8300804F053FA01BD80B5DFF87E
:10132000280804F04DFA01BD80B5DFF8200804F06C
:1013300047FA01BD80B5DFF8180803F03DF901BD9B
:10134000000000005225640080B5082002F09FFCD8
:1013500001BD80B5102002F09AFC01BD0168DFF8E4
:10136000F427914203D10121DFF8EC271160704787
:101370004225640046256400F8B504002068B0F1F9
:10138000804F7AD1DFF8D45728686C2805D0686878
:101390006C2802D0A8686C286FD1DFF8C4670020E1
:1013A000306028686C280ED1DFF8B87738780028CC
:1013B00009D101220121DFF8B00702F05BFC012016
:1013C00038700120306068686C280ED1DFF894779F
:1013D0007878002809D101220221DFF8900702F075
:1013E00049FC0120787001203060A8686C280FD17A
:1013F000DFF87077B87800280AD101224FF48041D5
:10140000DFF8640702F036FC0120B870012030607C
:101410003068012800F0CE8028686C280CD1DFF8F5
:1014200044673078012807D100220121DFF838070E
:1014300002F020FC0020307068686C280CD1DFF8C6
:1014400024677078012807D100220221DFF81C07E9
:1014500002F010FC00207070A8686C280DD1DFF835
:101460000457A878012808D100224FF48041DFF802
:10147000F80602F0FFFB0020A8702068DFF8F016E5
:10148000884279D1DFF8D4562868682805D0686882
:10149000682802D0A86868286ED1DFF8D8660020D6
:1014A0003060286868280ED1DFF8B87638780028D0
:1014B00009D101220121DFF8B00602F0DBFB012097
:1014C000387001203060686868280ED1DFF89476A3
:1014D0007878002809D101220221DFF8900602F075
:1014E000C9FB0120787001203060A86868280FD1FE
:1014F000DFF87076B87800280AD101224FF48041D5
:10150000DFF8640602F0B6FB0120B87001203060FD
:10151000306801284ED0286868280CD1DFF844666E
:101520003078012807D100220121DFF83C0602F0C3
:10153000A1FB00203070686868280CD1DFF82466B1
:101540007078012807D100220221DFF8200602F07E
:1015500091FB00207070A86868280DD1DFF8045650
:10156000A878012808D100224FF48041DFF8F8055F
:1015700002F080FB0020A8702068DFF8FC1588428C
:1015800018D1DFF8F8050168491C0160DFF89C05F7
:101590000168491C0160DFF8E8050168491C016029
:1015A000DFF8E0050068002804D0DFF8DC050168FA
:1015B000491C0160F1BD10B50400200080B208286C
:1015C0002FD1210089B2DFF8C40502F048FB0128C1
:1015D00027D1DFF8BC150878042822D00878002825
:1015E00005D1DFF82C050168491C016019E0087875
:1015F000022805D1DFF818050168491E016010E0D6
:101600000878012805D1DFF8F8040168491C016059
:1016100007E00878032804D1DFF8E4040168491ED4
:10162000016010BD10B59CB04C21002209AC200017
:1016300004F004FA2021002201AC200004F0FEF99D
:10164000022004F02FFA00200090DFF8480501681E
:10165000490849000160006810F001000090DFF8BF
:1016600038050121026861F38F320260016811F4CC
:1016700040410091009901688904FCD5022009903D
:1016800001200C9040200D900020129009A804F039
:1016900035FA002801D000F087FA3F2001900020A1
:1016A000029000200390002004900020059000206C
:1016B00006900020079000200890012101A800F06A
:1016C000AFFA002801D000F06FFA1CB010BD38B599
:1016D00086B0142100226C46200004F0AFF9DFF838
:1016E000BC04016851F002010160016811F00201BF
:1016F00005910599016851F008010160016811F038
:10170000080105910599016851F010010160016817
:1017100011F0100105910599016851F00101016076
:10172000016811F0010105910599016851F004016A
:101730000160006810F0040005900598DFF8284467
:1017400000224FF48041200002F094FA4FF48040D0
:101750000090012001900220029000200390694631
:10176000200002F065F9DFF804540022022128006D
:1017700002F080FA022000900120019002200290E5
:10178000002003906946280002F052F9002201214E
:10179000200002F06FFA0120009001200190022049
:1017A0000290002003906946200002F041F90820D1
:1017B00000905FF4881401940220029003200390AB
:1017C000DFF8C8536946280002F032F900220221EE
:1017D000092004F08EFD092004F09DFD10200090EA
:1017E000019402200290032003906946280002F031
:1017F0001FF9002202210A2004F07BFD0A2004F0D8
:101800008AFD07B030BD1FB5102100226C462000B4
:1018100004F014F904F08CFD01208DF80000002084
:101820008DF80100002001901F208DF8080087200E
:101830008DF8090000208DF80A0000208DF80B00BB
:1018400001208DF80C0001208DF80D0000208DF88E
:101850000E0000208DF80F00684604F082FD042081
:1018600004F071FD1FBD70B586B0CD48016851F41C
:1018700000310160016811F400310591059901689A
:1018800051F480210160006810F4802005900598D3
:10189000142100226C46200004F0D0F86020009053
:1018A0000220019001200290032003900720049061
:1018B000B64E6946300002F0BBF8A04C9548206057
:1018C0005FF4E13565600020A0600020E06000204A
:1018D00020610C2060610020A0610020E0614FF4D5
:1018E000407000900220019001200290032003909C
:1018F000072004906946300002F09AF8904E89481B
:10190000306075600020B0600020F0600020306121
:101910000C2070610020B0610020F06100220121E4
:10192000262004F0E6FC262004F0F5FC002201212C
:10193000272004F0DEFC272004F0EDFC200000F05E
:1019400023FC002800D0FEE7300000F01DFC00283A
:1019500000D0FEE706B070BDCC1800209C0000202F
:101960007CB58F48016851F001010160016811F0F8
:10197000010100910099016851F0020101600168C4
:1019800011F0020100910099016851F00401016019
:10199000006810F00400009000986A4C5FF08040EE
:1019A000206041F6FF0060600021A16042F20F71EB
:1019B000E160002121610021A161634D6C49296032
:1019C00068600021A96041F28731E9600021296146
:1019D0000021A9615D4E6849316070600020B060EF
:1019E0000A20F060002030610020B061200003F088
:1019F00049FE002801D000F0D7F8280003F042FE8D
:101A0000002801D000F0D0F8300003F03BFE0028A1
:101A100001D000F0C9F8002203211C2004F069FC69
:101A20001C2004F078FC002202211D2004F061FC3F
:101A30001D2004F070FC002200211E2004F059FC3F
:101A40001E2004F068FC200003F059FE280003F07B
:101A500056FE300003F053FE73BD10B586B05048FB
:101A6000016851F400110160006810F4001000904A
:101A700000981421002201AC200003F0DFFF4FF496
:101A800040700190122002900120039003200490E6
:101A90000420059001A9344801F0CAFF2C4C2D48C0
:101AA0002060404860600020A0600120E0600020CD
:101AB0002061002060610020A0610020E061002022
:101AC0002062200002F0BEFC2068006850F0420056
:101AD00021680860002200211F2004F00AFC1F205A
:101AE00004F019FC200002F0ADFC002800D0FEE755
:101AF00006B010BD381A00203C1A0020801A0020C1
:101B0000741A00205C1A0020241400207C1A002083
:101B1000701A00200044004024440040241A002091
:101B20004C1700200048004024480040541A002070
:101B3000281A00202C1A0020CC1700202416002080
:101B4000B8160020201900206C190020B8190020B8
:101B5000CC180020005400406C1A00200000002027
:101B6000441A00204C1A00200004025800100258A9
:101B700000040040481A002000080040301A0020ED
:101B8000681A0020941A0020901A0020000C0258B5
:101B9000A01A00202C04005818480258E0440258AB
:101BA000E84402586C21C00072B6FEE710B503206D
:101BB00004F099FB00F07CF90400DFF85000DFF836
:101BC00050100268C2F303228A5C12F01F02D44054
:101BD000006810F00F00085C10F01F002100C140E9
:101BE000DFF830000160DFF8300004600F2004F0FF
:101BF000FFFB002801D0012002E004F025FC0020BA
:101C000010BDDFF818000068000C70471844025837
:101C10002490000814000020100000200010005C38
:101C20002DE9F04104000D00002C01D101203DE11F
:101C3000DFF81075386810F00F00A8420BD2386832
:101C40000009000128433860386810F00F00A842EE
:101C500001D001202AE1207840070DD5DFF80015DA
:101C6000086810F070002269904205D20A6832F0CC
:101C70007002206902430A60207800070DD5DFF862
:101C8000E414086810F070006269904205D20A6896
:101C900032F07002606902430A602078C0060DD5F8
:101CA000DFF8C014086810F4E060A269904205D221
:101CB0000A6832F4E062A06902430A602078800674
:101CC0000DD5DFF8A414086810F07000E2699042A6
:101CD00005D20A6832F07002E06902430A60207897
:101CE00080070DD5DFF87814086810F00F00E2685F
:101CF000904205D20A6812091201E06802430A60A4
:101D00002078C0074AD5DFF858140A6832F47062A8
:101D1000A06802430A606068022806D1DFF8280440
:101D2000006880031CD40120C0E06068032806D14D
:101D3000DFF814040068800112D40120B6E0606866
:101D4000012806D1DFF800040068C00508D401208E
:101D5000ACE0DFF8F4030068400701D40120A5E0FF
:101D6000DFF8E883D8F80010C908C90060680143AB
:101D7000C8F8001004F078FB0600D8F8000010F056
:101D800038006168B0EBC10F08D004F06DFB801B18
:101D900041F289318842F0D3032087E02078800720
:101DA0000DD5DFF8BC13E0680A6812F00F0290420C
:101DB00005D20A6812091201E06802430A60386815
:101DC00010F00F0085420BD238680009000128434B
:101DD0003860386810F00F00A84201D0012065E09B
:101DE000207840070DD5DFF8781320690A6812F0D3
:101DF0007002904205D20A6832F0700220690243F4
:101E00000A60207800070DD5DFF8581360690A686A
:101E100012F07002904205D20A6832F070026069D6
:101E200002430A602078C0060DD5DFF83813A06998
:101E30000A6812F4E062904205D20A6832F4E06265
:101E4000A06902430A60207880060DD5DFF81813D8
:101E5000E0690A6812F07002904205D20A6832F016
:101E60007002E06902430A6000F022F80700DFF820
:101E70000C13DFF8EC020268C2F303228A5C12F052
:101E80001F02D740006810F00F00085C10F01F0020
:101E90003900C140DFF8C0020160DFF8B802076016
:101EA000DFF8B802006804F0A3FAC0B2BDE8F08120
:101EB00010B4DFF89802006810F03800002806D04F
:101EC000082813D0102814D0182815D0F9E0DFF80E
:101ED00078422068800606D5DFF874022468C4F3CF
:101EE000C104E04001E0DFF86802EBE0DFF89002B7
:101EF000E8E0DFF89002E5E0DFF87002046814F033
:101F0000030422000068C0F305100100DFF860023E
:101F1000006810F001000300DFF85C020068C0F305
:101F2000CC0000FB03F002EE100AB8EE422AB0EE3D
:101F3000421A002900F0C380002A03D0022A6FD081
:101F40004FD38CE0DFF800020468A40629D5DFF83F
:101F500000420068C0F3C100C44002EE104AF0EE37
:101F6000420AB8EE602A02EE901AF8EE622A82EE79
:101F7000222ADFF800020068C005C00D02EE900AB8
:101F8000F8EE622A9FED6B3A81EE033A72EE832AF5
:101F9000B7EE003A72EE832A22EE222AF0EE421ABF
:101FA0001EE002EE101AB8EE422ADFED632A82EE3E
:101FB000822ADFF8C0010068C005C00D02EE900A59
:101FC000F8EE622A9FED5B3A81EE033A72EE832AC5
:101FD000B7EE003A72EE832A22EE222AF0EE421A7F
:101FE0005BE002EE101AB8EE422ADFED542A82EED0
:101FF000822A60480068C005C00D02EE900AF8EE23
:10200000622A9FED4C3A81EE033A72EE832AB7EED4
:10201000003A72EE832A22EE222AF0EE421A3CE0C7
:1020200002EE101AB8EE422ADFED452A82EE822A2D
:1020300050480068C005C00D02EE900AF8EE622A12
:102040009FED3C3A81EE033A72EE832AB7EE003AF6
:1020500072EE832A22EE222AF0EE421A1DE002EEF0
:10206000101AB8EE422ADFED352A82EE822A414864
:102070000068C005C00D02EE900AF8EE622A9FEDDE
:102080002D3A81EE033A72EE832AB7EE003A72EEF1
:10209000832A22EE222AF0EE421A36480068C0F364
:1020A0004620401C02EE100AB0EE420AB8EE402A6A
:1020B00081EE822ABCEEC22A12EE100A00E0002055
:1020C00000E02F4810BC704780B5FFF7F1FE01001B
:1020D00023482A4A0368C3F30323D35C13F01F0386
:1020E000D9401D4B006810F00F00105C10F01F006D
:1020F0000A00C2401A6017480160186802BD80B526
:10210000FFF7E2FF1D49174A1268C2F30212895C09
:1021100011F01F01C84002BD80B5FFF7D5FF174978
:10212000104A1268C2F30222895C11F01F01C840F4
:1021300002BD0000000000460024744C0024744AD4
:1021400020BCBE4B002000520044025810440258EC
:102150000090D00310000020140000200C0000208C
:10216000184402581C44025820440258284402587B
:102170002C44025830440258344402582490000839
:1021800000093D0040787D0110B50400002C01D10C
:10219000012037E0A0690028FFD1D4F8880000288A
:1021A00005D1002084F88400200004F063F9242085
:1021B000C4F8880020680068400840002168086072
:1021C000200000F0F1FA012801D101201AE0A06AF4
:1021D000002802D0200000F0CBFD2068406830F4D9
:1021E0009040216848602068806830F02A002168AB
:1021F00088602068006850F00100216808602000B5
:1022000000F023FE10BD30B40300D3F8880020286E
:1022100050D1002903D0100080B2002801D1012044
:1022200049E01965A3F85420A3F8562000209867C8
:102230000020C3F890002120C3F88800586EB0F148
:10224000005F1CD19868B0F5805F06D1186900283E
:1022500003D1DFF8C400986702E0DFF8C000986798
:102260001868083050E8000F50F4000004001868A7
:1022700010F1080545E800400028F1D118E0986801
:10228000B0F5805F06D11869002803D1DFF890000F
:10229000986702E0DFF88C009867186850E8000F34
:1022A00050F0800004001D6845E800400028F4D18B
:1022B000002000E0022030BC704770B505000C0023
:1022C0001600D5F88C00202824D1002C03D0300033
:1022D00080B2002801D101201DE00020E8662868B6
:1022E000DFF8441088420ED02868406800020AD502
:1022F000286850E8000F50F0806001002A6842E82A
:1023000000100028F4D1320092B22100280000F021
:1023100052FE00E0022070BD093300088B32000835
:1023200027320008CF310008000C00582DE9F04793
:1023300006003068C7693068D0F800803068D0F88F
:10234000089040F60F043C40002C0ED1B8060CD586
:102350005FEA886002D45FEAC90006D5706F002882
:1023600002D03000716F884713E2002C00F0B28079
:10237000DFF8280419EA000F05D1DFF8241418EA61
:10238000010F00F0A78017F00101C9B200290BD09E
:102390005FEAC85108D5012132681162D6F8901061
:1023A00051F00101C6F89010B9070DD519F00101DF
:1023B000C9B2002908D0022132681162D6F8901003
:1023C00051F00401C6F8901079070DD519F00101FC
:1023D000C9B2002908D0042132681162D6F89010E1
:1023E00051F00201C6F8901039070ED55FEA8861F6
:1023F00002D419EA000F08D0082031680862D6F824
:10240000900050F00800C6F8900038050CD55FEA3F
:10241000481009D54FF4006031680862D6F8900082
:1024200050F02000C6F89000D6F89000002850D058
:10243000B8060BD55FEA886002D45FEAC90005D50B
:10244000706F002802D03000716F8847D6F8900076
:10245000050030688068400602D415F0280F32D09D
:10246000300000F055FE30688068400627D530689F
:10247000083050E8000F30F040000100306810F1E3
:10248000080242E800100028F1D1D6F880000028A8
:1024900011D0DFF81003D6F880100865D6F8800058
:1024A00004F050FA002814D0D6F88000D6F8801036
:1024B000096D88470DE0300004F041FC09E0300070
:1024C00004F03DFC05E0300004F039FC0020C6F8C3
:1024D00090005EE1F06E012840F02481F80640F1A2
:1024E00021815FEAC86040F11D81102031680862D7
:1024F00030688068400640F1D480D6F880000068DB
:10250000DFF82818884268D0D6F880000068DFF825
:102510002018884261D0D6F880000068DFF81418CF
:1025200088425AD0D6F880000068DFF80C1888423C
:1025300053D0D6F880000068DFF8001888424CD0ED
:10254000D6F880000068DFF8F817884245D0D6F842
:1025500080000068DFF8EC1788423ED0D6F8800093
:102560000068DFF8E417884237D0D6F880000068AA
:10257000DFF8D817884230D0D6F880000068DFF83E
:10258000D017884229D0D6F880000068DFF8C41739
:10259000884222D0D6F880000068DFF8BC17884255
:1025A0001BD0D6F880000068DFF8B017884214D03E
:1025B000D6F880000068DFF8A81788420DD0D6F85A
:1025C00080000068DFF89C17884206D0D6F88000AB
:1025D0000068DFF89417884205D1D6F880000068BB
:1025E000D0F804A004E0D6F880000068D0F804A079
:1025F000504680B2002853D05046B6F85C1080B2E6
:1026000088424DD2A6F85EA0D6F88000C069B0F529
:10261000807F3AD0306850E8000F30F480700100BD
:10262000326842E800100028F4D13068083050E8E1
:10263000000F400840000100306810F1080242E835
:1026400000100028F1D13068083050E8000F30F059
:1026500040000100306810F1080242E80010002834
:10266000F1D12020C6F88C000020F066306850E8D8
:10267000000F30F010000100326842E8001000281E
:10268000F4D1D6F8800003F0F7FE02203067B6F8E8
:102690005C10B6F85E00091A89B2300004F050FBF5
:1026A00077E0B6F85C00B6F85EA0B0EB0A0AB6F8C0
:1026B0005E00002835D0504680B2002831D0306806
:1026C00050E8000F30F490700100326842E80010CA
:1026D0000028F4D13068083050E8002F2E4802401E
:1026E0001100306810F1080242E800100028F1D112
:1026F0002020C6F88C000020F0660020706730684B
:1027000050E8000F30F010000100326842E800107D
:102710000028F4D102203067514689B2300004F01D
:102720000FFB36E0F8020AD55FEA492007D55FF4CF
:10273000801031680862300004F003FB29E038069D
:102740000CD55FEA086002D45FEA092006D5B06FB5
:10275000002802D03000B16F88471AE0780606D50D
:102760005FEA486003D5300000F010FE11E0380247
:1027700006D55FEA480003D5300004F0E3FA08E02C
:10278000F80106D5B8F1000F03D5300004F0DBFAEC
:10279000FFE7BDE8F0870000FEFFFFEF010000103B
:1027A00020010004B53100082DE9F84F86B004007F
:1027B0000026DFF8B81520688842FFD0A26820699B
:1027C000024360690243E069024320680368DFF85E
:1027D000A40903401343206803602068436833F46E
:1027E0004053E068034320684360D4F818802068B1
:1027F000884202D0206A50EA080820688268DFF820
:102800007809024058EA0202206882602068C26AA1
:1028100012091201606A02432068C2622068DFF870
:102820005C2990421FD1DFF85809006810F0380089
:1028300000280AD008280AD010280AD018280AD060
:1028400020280AD028280AD00BE0012724E10427F9
:1028500022E1082720E110271EE120271CE1402764
:102860001AE1802718E12068DFF8182990421DD16D
:10287000DFF80C09006810F00700002808D00228D3
:102880000AD007D304280BD008D305280AD00BE0C0
:10289000002701E10427FFE00827FDE01027FBE007
:1028A0002027F9E04027F7E08027F5E02068DFF8EF
:1028B000D82890421DD1DFF8C808006810F0070042
:1028C000002808D002280AD007D304280BD008D348
:1028D00005280AD00BE00027DEE00427DCE008270B
:1028E000DAE01027D8E02027D6E04027D4E0802780
:1028F000D2E02068DFF8942890421DD1DFF88008EC
:10290000006810F00700002808D002280AD007D37A
:1029100004280BD008D305280AD00BE00027BBE021
:102920000427B9E00827B7E01027B5E02027B3E077
:102930004027B1E08027AFE02068DFF854289042BC
:102940001DD1DFF83C08006810F00700002808D00F
:1029500002280AD007D304280BD008D305280AD0B0
:102960000BE0002798E0042796E0082794E0102762
:1029700092E0202790E040278EE080278CE02068BE
:10298000DFF8102890421FD1DFF8F407006810F03C
:10299000380000280AD008280AD010280AD01828A1
:1029A0000AD020280AD028280AD00BE0012773E09B
:1029B000042771E008276FE010276DE020276BE007
:1029C000402769E0802767E02068DFF8CC27904245
:1029D0001DD1DFF8AC07006810F00700002808D010
:1029E00002280AD007D304280BD008D305280AD020
:1029F0000BE0002750E004274EE008274CE01027AA
:102A00004AE0202748E0402746E0802744E020684D
:102A1000DFF8882790421DD1DFF86407006810F0C6
:102A20000700002808D002280AD007D304280BD0BA
:102A300008D305280AD00BE000272DE004272BE05F
:102A4000082729E0102727E0202725E0402723E05A
:102A5000802721E0206888421DD1DFF84407006804
:102A600010F00700002808D002280AD007D3042855
:102A70000BD008D305280AD00BE002270CE004276E
:102A80000AE0082708E0102706E0202704E0402796
:102A900002E0802700E08027206888426FD138005C
:102AA000C0B202280AD004280CD0082810D0102860
:102AB00014D0202822D0402823D025E004F044F967
:102AC000814625E003A804F04FF9DDF810901FE0DF
:102AD000684604F061FADDF8049019E0DFF8C406F6
:102AE0000168890607D5DFF8C0960068C0F3C10009
:102AF00039FA00F901E0DFF8B09609E0DFF8AC96AA
:102B000006E04FF4004903E05FF0000901200600F1
:102B1000B9F1000F00F0FA80DFF89416606A31F81E
:102B20001000B9FBF0F082466268032042439245F0
:102B300005D362684FF480504243524502D20120CF
:102B40000600E3E0606A31F81000B9FBF0F24FF4E0
:102B50008073606840080021E3FB02016268002383
:102B600004F042FB0500B5F5407F05D3B5F5801FA5
:102B700002D22068C560C9E001200600C6E0E06915
:102B8000B0F5004F66D13800C0B200280CD0012843
:102B90000ED0042810D0082814D0102818D02028CF
:102BA00026D0402827D029E0FFF7A9FA814629E05E
:102BB000FFF7B2FA814625E003A804F0D5F8DDF866
:102BC00010901FE0684604F0E7F9DDF8049019E082
:102BD000DFF8D0050168890607D5DFF8CC950068D5
:102BE000C0F3C10039FA00F901E0DFF8BC9509E053
:102BF000DFF8B89506E04FF4004903E05FF0000904
:102C000001200600B9F1000F00F08080DFF8A00578
:102C1000616A30F81100B9FBF0F06168490811EB06
:102C200040016068B1FBF0F00500102D0FD3B5F541
:102C3000803F0CD24FF6F07129402800C0F34200CB
:102C400001438B46584680B22168C8605EE001208F
:102C500006005BE03800C0B200280CD001280ED07E
:102C6000042810D0082814D0102818D0202826D0E6
:102C7000402827D029E0FFF742FA814629E0FFF7F4
:102C80004BFA814625E003A804F06EF8DDF81090B9
:102C90001FE0684604F080F9DDF8049019E0DFF8E1
:102CA00004050168890607D5DFF8FC940068C0F3C5
:102CB000C10039FA00F901E0DFF8EC9409E0DFF82F
:102CC000EC9406E04FF4004903E05FF000090120B6
:102CD0000600B9F1000F19D0DFF8D404616A30F8AA
:102CE0001100B9FBF0F0616810EB51006168B0FBB6
:102CF000F1F00500102D07D3B5F5803F04D2280070
:102D000080B22168C86001E0012006000120A4F81B
:102D10006A000120A4F86800002060670020A06716
:102D20003000C0B207B0BDE8F08F000010000240D4
:102D3000280002404000024058000240700002405B
:102D400088000240A0000240B80002401004024087
:102D5000280402404004024058040240700402402B
:102D600088040240A0040240B8040240000C00584D
:102D700090F82810C90707D501684A6832F4003274
:102D8000C16A0A4301684A6090F82810890707D58C
:102D900001684A6832F48032016B0A4301684A6074
:102DA00090F82810490707D501684A6832F4802254
:102DB000416B0A4301684A6090F82810090707D55B
:102DC00001684A6832F40042816B0A4301684A6034
:102DD00090F82810C90607D501688A6832F4805235
:102DE000C16B0A4301688A6090F82810890607D5EC
:102DF00001688A6832F40052016C0A4301688A60F3
:102E000090F82810490613D501684A6832F48012F8
:102E1000416C0A4301684A60416CB1F5801F07D1DB
:102E200001684A6832F4C002816C0A4301684A6052
:102E300090F82810090607D501684A6832F4002284
:102E4000C16C0A4301684A60704738B5040000202D
:102E5000C4F8900003F008FB050020680068000734
:102E60001ED57FF07E4000902B0000225FF4001101
:102E7000200000F055F8002812D0206850E8000F1C
:102E800030F080000100226842E800100028F4D1F0
:102E90002020C4F88800002084F8840003203EE04D
:102EA0002068006840072CD57FF07E4000902B0002
:102EB00000225FF48001200000F032F8002820D0CA
:102EC000206850E8000F30F490700100226842E85A
:102ED00000100028F4D12068083050E8000F4008A6
:102EE00040000100206810F1080242E800100028AC
:102EF000F1D12020C4F88C00002084F88400032045
:102F00000DE02020C4F888002020C4F88C000020A8
:102F1000E06600202067002084F88400002032BD95
:102F20002DE9F04105000E0090461F00069C286820
:102F3000C0693040B04201D1012000E0002041468C
:102F4000C9B2884234D114F1010FF0D003F08CFAE9
:102F5000C01B844201D3002C01D1032029E0286842
:102F600000684007E3D52868C06900070DD5082030
:102F700029680862280000F0CBF80820C5F8900006
:102F8000002085F88400012013E02868C06900054E
:102F9000CDD54FF4006029680862280000F0B8F829
:102FA0002020C5F89000002085F88400032000E070
:102FB0000020BDE8F08130B403009965A3F85C20DF
:102FC000A3F85E20002058679868B0F5805F0BD1A9
:102FD0001869002804D140F2FF10A3F8600023E034
:102FE000FF20A3F860001FE0986800280AD1186944
:102FF000002803D1FF20A3F8600015E07F20A3F88C
:10300000600011E09868B0F1805F0AD1186900286B
:1030100003D17F20A3F8600006E03F20A3F8600002
:1030200002E00020A3F860000020C3F890002220F6
:10303000C3F88C001868083050E8000F50F0010009
:103040000400186810F1080545E800400028F1D197
:10305000586EB0F1005F30D11000B3F8684080B214
:10306000A0422AD39868B0F5805F06D1186900287D
:1030700003D10FF21D70586702E00FF2215058671C
:10308000186900280AD0186850E8000F50F48070C2
:1030900004001D6845E800400028F4D11868083095
:1030A00050E8000F50F080500400186810F1080537
:1030B00045E800400028F1D127E09868B0F5805F2E
:1030C00006D11869002803D10FF2E130586702E0F9
:1030D0000FF2E9205867186900280BD0186850E8EB
:1030E000000F50F4907004001D6845E8004000286F
:1030F000F4D10AE0186850E8000F50F020000400F6
:103100001D6845E800400028F4D1002030BC70471D
:10311000016851E8001F31F490710A00036843E828
:1031200000210029F4D10168083151E8003FDFF89F
:1031300058180B401A00016811F1080343E80021F8
:103140000029F0D1C16E01290AD1016851E8001FA0
:1031500031F010010A00036843E800210029F4D18E
:103160002021C0F88C100021C16600214167704702
:1031700000000000F369FFCFFFF4FF1100100140D1
:10318000544402580044004000480040004C0040B5
:10319000005000400014014000780040007C0040D6
:1031A00058440258004402580090D00300093D00E2
:1031B000CC8F000838B50400A56B0020A5F85E0090
:1031C0000020A5F85600280003F0B9FD31BDD0F865
:1031D0008810212926D1B0F85610002916D101688F
:1031E00051E8001F31F080010A00036843E8002124
:1031F0000029F4D1016851E8001F51F040010A0094
:10320000036843E800210029F4D10BE0016D09783F
:1032100002689162016D491C0165B0F85610491EA3
:10322000A0F85610704710B40100D1F8880021288A
:1032300029D1B1F85600002816D1086850E8000FCF
:1032400030F0800003000C6844E800300028F4D11E
:10325000086850E8000F50F0400003000C6844E894
:1032600000300028F4D10EE0086D02001088C0057F
:10327000C00D0B689862086D801C0865B1F8560097
:10328000401EA1F8560010BC704710B40100D1F8E0
:103290008800212836D1B1F86A000200100080B2FF
:1032A00000282FD0B1F85600002819D1086808303E
:1032B00050E8000F30F400000300086810F1080423
:1032C00044E800300028F1D1086850E8000F50F0C1
:1032D000400003000C6844E800300028F4D111E0FD
:1032E0000868C06900060BD5086D00780B68986205
:1032F000086D401C0865B1F85600401EA1F8560044
:10330000521ECBE710BC704730B40100D1F88800E2
:10331000212839D1B1F86A000300180080B20028D2
:1033200032D0B1F85600002819D10868083050E8AA
:10333000000F30F400000400086810F1080545E8AB
:1033400000400028F1D1086850E8000F50F040001C
:1033500004000D6845E800400028F4D114E0086836
:10336000C06900060ED5086D02001088C005C00DAA
:103370000C68A062086D801C0865B1F85600401EFC
:10338000A1F856005B1EC8E730BC704710B50400BA
:10339000206850E8000F30F040000100226842E849
:1033A00000100028F4D12020C4F888000020A06775
:1033B0002000FDF755FF10BD0000000070B50500AE
:1033C000B5F86060D5F88C00222867D12868406A7B
:1033D000040016EA0400A96D0870A86D401CA865D9
:1033E000B5F85E00401EA5F85E00B5F85E00002846
:1033F0005AD1286850E8000F30F4907001002A6814
:1034000042E800100028F4D12868083050E8000F86
:10341000400840000100286810F1080242E800104E
:103420000028F1D12020C5F88C000020686700201A
:1034300028672868DFF8541588420ED0286840684D
:1034400000020AD5286850E8000F30F080600100C3
:103450002A6842E800100028F4D1E86E012819D14A
:103460000020E866286850E8000F30F010000100E6
:103470002A6842E800100028F4D12868C069C00614
:1034800002D5102029680862B5F85C10280003F006
:1034900057FC09E02800FDF78DFE05E028688069EB
:1034A00050F008002968886170BD0000F8B505007B
:1034B000B5F86070D5F88C00222868D12868406A79
:1034C0000400A86D060017EA04003080A86D801C77
:1034D000A865B5F85E00401EA5F85E00B5F85E0070
:1034E00000285AD1286850E8000F30F4907001008D
:1034F0002A6842E800100028F4D12868083050E813
:10350000000F400840000100286810F1080242E85E
:1035100000100028F1D12020C5F88C000020686739
:10352000002028672868DFF8641488420ED02868D5
:10353000406800020AD5286850E8000F30F080602B
:1035400001002A6842E800100028F4D1E86E012842
:1035500019D10020E866286850E8000F30F010000C
:1035600001002A6842E800100028F4D12868C069E8
:10357000C00602D5102029680862B5F85C10280042
:1035800003F0DEFB09E02800FDF714FE05E02868E3
:10359000806950F0080029688861F1BD2DE9F84F75
:1035A0000700B7F860803868D0F81C903868D0F809
:1035B00000A03868D0F808B0D7F88C00222840F076
:1035C000DF80B7F868000500280080B2002800F00E
:1035D000AE805FEA896040F1AA803868406A0400E2
:1035E00018EA0400B96D0870B86D401CB865B7F8EA
:1035F0005E00401EA7F85E003868C069814619F079
:10360000070F3CD019F00100C0B200280BD05FEAD0
:10361000CA5008D5012039680862D7F8900050F0E8
:103620000100C7F890005FEA89700DD51BF001001A
:10363000C0B2002808D0022039680862D7F890008C
:1036400050F00400C7F890005FEA49700DD51BF0F8
:103650000100C0B2002808D0042039680862D7F8F9
:10366000900050F00200C7F89000D7F890000028B2
:1036700005D0380003F063FB0020C7F89000B7F8CE
:103680005E000028A0D1386850E8000F30F4807048
:1036900001003A6842E800100028F4D13868083088
:1036A00050E8002FB84802401100386810F10802B5
:1036B00042E800100028F1D12020C7F88C0000203B
:1036C0007867002038673868B04988420ED038687B
:1036D000406800020AD5386850E8000F30F080607A
:1036E00001003A6842E800100028F4D1F86E012881
:1036F00019D10020F866386850E8000F30F010004B
:1037000001003A6842E800100028F4D13868C06926
:10371000C00602D5102039680862B7F85C1038007E
:1037200003F00EFB50E73800FDF744FD4CE7B7F817
:103730005E000600300080B2002827D03000B7F8C5
:10374000681080B2884221D23868083050E8000FF3
:1037500030F080500100386810F1080242E8001093
:103760000028F1D18A487867386850E8000F50F097
:10377000200001003A6842E800100028F4D105E07A
:103780003868806950F0080039688861BDE8F18FB9
:103790002DE9F84F0600B6F860803068D0F81C902C
:1037A0003068D0F800A03068D0F808B0D6F88C00A7
:1037B000222840F0E180B6F86800ADF80000BDF8BE
:1037C0000000002800F0AF805FEA896040F1AB8024
:1037D0003068406A0400B06D070018EA04003880C1
:1037E000B06D801CB065B6F85E00401EA6F85E00A5
:1037F0003068C069814619F0070F3CD019F001000C
:10380000C0B200280BD05FEACA5008D50120316849
:103810000862D6F8900050F00100C6F890005FEA08
:1038200089700DD51BF00100C0B2002808D002201D
:1038300031680862D6F8900050F00400C6F8900095
:103840005FEA49700DD51BF00100C0B2002808D016
:10385000042031680862D6F8900050F00200C6F8E3
:103860009000D6F89000002805D0300003F067FAE9
:103870000020C6F89000B6F85E0000289FD130689E
:1038800050E8000F30F480700100326842E8001008
:103890000028F4D13068083050E8002F3A48024040
:1038A0001100306810F1080242E800100028F1D140
:1038B0002020C6F88C000020706700203067306838
:1038C000324988420ED03068406800020AD530681C
:1038D00050E8000F30F080600100326842E80010CC
:1038E0000028F4D1F06E012819D10020F06630686C
:1038F00050E8000F30F010000100326842E800107C
:103900000028F4D13068C069C00602D510203168A3
:103910000862B6F85C10300003F012FA4FE730008E
:10392000FDF748FC4BE7B6F85E000500280080B2C2
:10393000002827D02800B6F8681080B2884221D22B
:103940003068083050E8000F30F0805001003068D7
:1039500010F1080242E800100028F1D10D4870670C
:10396000306850E8000F50F020000100326842E853
:1039700000100028F4D105E03068806950F008009C
:1039800031688861BDE8F18FFEFFFFEF000C005841
:10399000BD330008AD34000800F10103810704D0F5
:1039A00010F8011B820781B1FAD10268A2F101313E
:1039B000914311F0803104BF50F8042FF6E709BAA3
:1039C000B1FA81F100EBD100401CC01A70470268C7
:1039D000531C0360117070470CB430B583B00A46B5
:1039E00006A90291044600250194009502AB01A9A5
:1039F000084878441E3003F00FFD019A1570002826
:103A00004EBF04460198041B204603B030BC5DF84D
:103A10000CFB00BFBBFFFFFF5FEA000C11F8012B9E
:103A200000F8012B12B111F8012BF9E7604670473D
:103A3000F8B503000025DFF878620868E840002840
:103A400000F00C810127D1F800C017FA05F010EA48
:103A50000C0C6246002A00F0FF80087910F0030089
:103A6000012804D0087910F0030002281FD1D3F8F0
:103A700008C05FF0030E2800C0B240001EFA00FE2E
:103A80003CEA0E0CD1F80CE02800C0B240001EFA4F
:103A900000FE5EEA0C0CC3F808C05868AF40B8439B
:103AA0004F68C7F30017AF40384304005C600879E3
:103AB00010F00300032814D0DF685FF0030C280027
:103AC000C0B240001CFA00FC37EA0C07D1F808C06D
:103AD0002800C0B240001CFA00FC5CEA07073C006A
:103AE000DC60087910F0030002281ED12800C0080D
:103AF00003EB8000076A5FF00F0C15F00700C0B2FF
:103B000080001CFA00FC37EA0C07D1F810C015F051
:103B10000700C0B280001CFA00FC5CEA07073C000A
:103B20002800C00803EB800004621F685FF0030CEC
:103B30002800C0B240001CFA00FC37EA0C0791F8DC
:103B400004C01CF0030C2800C0B240001CFA00FCAA
:103B50005CEA07073C001C60486810F4403F7BD0DB
:103B6000DFF85001076857F002070760006810F09F
:103B7000020000900098DFF840C1280080085CF83F
:103B800020705FF00F0E15F00300C0B280001EFA27
:103B900000FE37EA0E07DFF82401834201D100243A
:103BA0002DE04748834201D1012428E04548834263
:103BB00001D1022423E04448834201D103241EE0C2
:103BC0004248834201D1042419E04148834201D193
:103BD000052414E03F48834201D106240FE03E480B
:103BE000834201D107240AE03C48834201D10824E2
:103BF00005E03B48834201D1092400E00A2415F086
:103C00000300C0B2800084402743280080084CF89D
:103C100020705FF0B04420689043D1F804C05FEAA0
:103C2000CC2C00D5104320602E4F3C689443D1F833
:103C300004C05FEA8C2C00D514433C60706890434C
:103C40004F68BF0300D510437060346894434F68D9
:103C5000FF0300D5144334606D1CEEE6F1BD020095
:103C600010690B009BB2184201D0012000E0002037
:103C7000C0B270471300DBB2002B03D00B009BB225
:103C8000836103E00B009BB21B048361704710B596
:103C9000040015480168220092B2114206D02100AA
:103CA00089B20160200080B2FDF785FC10BD0000E4
:103CB00080000058F44402580804005800000258DC
:103CC0000004025800080258000C02580010025864
:103CD0000014025800180258001C02580020025814
:103CE00000240258040000588800005801B58B07D2
:103CF0001AD1830724D1121F21D351F8043BA3F119
:103D0000013C2CEA030C1CF0803C04BF40F8043B4F
:103D1000F1E79CFA8CFCBCFA8CF1C1F118018B40E4
:103D2000CB4040F8043B13E0042A09D311F8013BCF
:103D3000521E00F8013B5BB18B07F7D1D9E7121D8A
:103D40005AB111F8013B521E00F8013B03B1F8D102
:103D500011001CBF002201F075FE01BD2DE9F84FD6
:103D600084B00E4617460BB100221A600446A046E6
:103D700001E008F1010898F8000004F0E4FA0028D6
:103D8000F7D198F800002D2816BF2B2818F8015BF2
:103D90002B25002F019603D4012F01D0252F03DB03
:103DA000002E55D0346053E0002F0CDD102F04BFDF
:103DB00098F80000302802BF98F8010040F0200079
:103DC000782811D10CE098F80000302818BF0A2795
:103DD0000AD198F8010040F02000782803D110277C
:103DE00008F1020800E00827CDF80C8001E008F196
:103DF000010898F800003028F9D0064E7E441436A9
:103E00004FF0000906F12800CDF80880CA468DF869
:103E100000000BE02C5000009DF80010401ACA462C
:103E20005FFA80FB07FB09B908F1010898F8000068
:103E300004F093FA01463A4606F1280004F098FA95
:103E40000028E9D10399414504D1019800B10460EB
:103E5000002020E00299F05DA8EB0101081A00287B
:103E600010D406DCB9EB0B0103D3B1FBF7F05045DE
:103E700008D0AFF30080049808B1012101604FF031
:103E8000FF3903E02D2D08BFC9F10009019808B1E1
:103E9000C0F80080484605B0BDE8F08FFFE700237A
:103EA0000A2200215AE7000038B52DED028B0400EC
:103EB00082B00D4600F0BB8051EC100B20F00002E8
:103EC00031F0004308BF002A00F0B18048004015DF
:103ED000401C02D1090300F0AA80002CB7EE008B31
:103EE00048D564425449794401F5A771082008E097
:103EF000E20744BF91ED001B28EE018B64080831F6
:103F0000401E002C18BF0028F2D1684604F05CFA6D
:103F1000009880EE080B04F0A5FA51EC100B20F08D
:103F2000000231F0004308BF002A6AD04800401563
:103F3000401C01D1090364D0002C62D0684604F013
:103F400043FA00989FED782B20EE020B04F08AFADA
:103F500051EC100B20F0000231F0004308BF002AA2
:103F60004FD048004015401C01D1090349D0641EC0
:103F7000E4D146E045DD30497944BC310820E20710
:103F800044BF91ED001B28EE018B64100831401EE8
:103F9000002C01DD0028F2D1684604F015FA0098E3
:103FA00020EE080B04F05EFA51EC100B20F000023A
:103FB00031F0004308BF002A23D048004015401CC0
:103FC00001D109031DD0002C1BDD684604F0FCF96B
:103FD00000989FED572B20EE020B04F043FA51ECB2
:103FE000100B20F0000231F0004308BF002A08D077
:103FF00048004015401C01D1090302D0641E002C6A
:10400000E3DC51EC100B20F0000231F0004308BF5C
:10401000002A05D048004015401C08D1090306D1EC
:10402000AFF300801DB1286840F00100286002B0A5
:10403000BDEC028B31BD00BF584E00002DE9F141AF
:1040400085B0884616461D001CBF00202860059FCD
:1040500005A804F07FFAC41020F00800012804F03D
:10406000010425D10220009001AB05994246384653
:1040700004F002FB10B99FED300B15E09DED020A34
:104080000228B8EEC00B0FDB03A9401E9FED2C1BCE
:1040900051F8042BB0EE402B00EE102AB8EEC00B06
:1040A000401E02EE010BF3D101982946801927E04A
:1040B000022828D1009001AB05994246384604F009
:1040C000B7FB10B99FED1C0B15E09DED020A02280D
:1040D000B8EEC00B0FDB03A9401E9FED1B1B51F870
:1040E000042BB0EE402B00EE102AB8EEC00B401EA1
:1040F00002EE010BF3D1019804F0B4F929463046E1
:10410000FFF7D2FE0AE0032808BF9FED110B05D090
:1041100004280CBF9FED100B9FED070B0CB1B1EE07
:10412000400B06B0BDE8F081436FAC642806C80AB6
:104130003CBF737FDD4F15750000000000000000DC
:104140000000000065CDCD41000000000000B0413E
:10415000000000000000F07FFFFFFFFFFFFFFF7F78
:1041600000230022002169E79FED882B20EE021B2F
:1041700053EC112BF0B423F0004155EC114B0D46DC
:1041800045EC124B9FED834BB4EE442BF1EE10FA4D
:104190002DED068B2BD5B6EE002B55EC124B03F014
:1041A00000432B4357EC126B1F4647EC126B31EE6A
:1041B000021BBDEEC11B11EE101A002900F08B800E
:1041C000BAEEC21B9FED753B01EE030B9FED755BD5
:1041D00001EE050B9FED757B01EE070B9FED759BC7
:1041E00001EE090B9FED753B01EE030B73E055ECFF
:1041F000104B69004915491C08D12A0340F0C180C1
:10420000BDEC068B9FED6F0BF0BC704735F00045A1
:1042100008BF002C08D1002800F0B380BDEC068B4D
:10422000B7EE000BF0BC7047B6EE002B55EC124B0E
:1042300003F000432B4357EC126B1F4647EC126B05
:1042400031EE021B53EC112B5D0045EAD275540090
:10425000002D08BF002C19D040F23341A1EB55547A
:10426000352C04DB02F0000203F000430CE0202CAC
:1042700003DD203CE340A34000E001D1002203E045
:10428000002CC4BFE240A24043EC112B53EC112B95
:1042900022F0000433F0004508BF002C17D09FED3A
:1042A0004B3B21EE032B9FED3D5B02EE050B9FED9B
:1042B0003D7B02EE070B9FED3D9B02EE090B9FED50
:1042C0003DAB02EE0A0B9FED3D5B02EE050BBDEE32
:1042D000C11B11EE101A53EC102B23F0004255ECC9
:1042E000104B154645EC114B9FED3A3B01F0030195
:1042F000B4EE431B0818F1EE10FA00F0010104D5EA
:1043000000293AD0B7EE000B37E020EE001BD1B108
:104310009FED322B9FED334B01EE024B9FED336B44
:1043200004EE016B9FED338B06EE018B9FED332B7B
:1043300008EE012B9FED334B02EE014BB7EE000B65
:1043400004EE010B19E09FED317B9FED324B01EE46
:10435000074B9FED328B04EE018B9FED32AB08EEE5
:1043600001AB9FED327B0AEE017B9FED324B20EEDD
:10437000012B07EE014B02EE040B800748BFB1EEA4
:10438000400BBDEC068BF0BC7047000083C8C96DC4
:10439000305FE43F0000A0FFFFFFDF41000000505E
:1043A000FB21B9C100000060B41011C00000002062
:1043B00026A651BE000000005C14D3BC0000002003
:1043C0009A833BBBFFFFFFFFFFFFFF7F0000000062
:1043D0000000303E000000000000403E09260A10A8
:1043E00039BA213E3BA861C6F97D92BE63AC3090DC
:1043F0009F01FA3EF6FB51166CC156BFB1025555EE
:104400005555A53FAEFFFFFFFFFFDFBFB08F2FC3A6
:1044100010D8E53D8F0C73A1E1E55ABE4DADE44FD8
:10442000E31DC73E3EE3B519A0012ABFFAF0101103
:104430001111813F425555555555C5BF012093E691
:10444000002091E610B50400002C01D101205EE0AF
:1044500094F84100002805D1002084F84000200095
:1044600004F0EAFA242084F841002068006840083B
:10447000400021680860606830F070602168086161
:104480002068806830F4004021688860E068012876
:1044900005D1A06850F400402168886004E0A0685D
:1044A00050F4044021688860E068022803D14FF48A
:1044B0000060216848602068406840F0007050F457
:1044C0000040216848602068C06830F400402168DE
:1044D000C860216960690143A06951EA0021206830
:1044E000C160E169206A01432068016020680068BA
:1044F00050F001002168086000206064202084F8EA
:10450000410000202063002084F84200002010BDFC
:104510002DE9FC4104000D0016001F0094F8410035
:1045200020283FD120688069000401D502203AE0AC
:1045300094F84000012801D1022034E0012084F8E1
:104540004000212084F84100102084F8420000201F
:10455000606466626785DFF85800E062DFF8540047
:104560006063608DB0F5807F04D3FF2020855FF00D
:10457000807803E0608D20855FF00078DFF82C0004
:1045800000904346228DD2B2290089B2200000F06B
:10459000BBFF002084F840000121200000F0CDFF87
:1045A000002000E00220BDE8F6810000002000802D
:1045B0000000FFFFD945000870B504002068856938
:1045C00020680668606B002804D0320029002000B3
:1045D000636B984770BD00002DE9FC4104000D009D
:1045E0001600A84694F84000012801D10220B4E04A
:1045F000012084F840005FEAC8600CD5F0060AD5B7
:1046000010202168C861606C50F0040060642000D4
:1046100000F04FFF94E05FEA487011D570070FD5A6
:1046200038F004082068406A616A0870606A401CBB
:104630006062208D401E2085608D401E60857FE079
:104640005FEA88700FD5B0070DD5606A00782168E1
:104650008862606A401C6062208D401E2085608DEB
:10466000401E60856CE05FEA086049D5700647D55A
:10467000608D002837D0208D002834D12068406814
:104680008005800D0700608DB0F5807F0DD3FF2081
:104690002085002000905FF08073228DD2B2390017
:1046A00089B2200000F030FF4AE0608D2085E06A8A
:1046B000DFF80C1688420AD000200090E36A228DB1
:1046C000D2B2390089B2200000F01EFF38E000208D
:1046D00000905FF00073228DD2B2390089B22000C1
:1046E00000F012FF2CE020684068800103D4200015
:1046F00000F056FB24E04021200000F0F9FD1FE00F
:104700005FEA48601CD570061AD5608D002813D169
:1047100020684068800113D4E06ADFF8A41588425D
:1047200006D12068406850F480402168486007E066
:10473000200000F035FB03E04021200000F0D8FD10
:104740005FEA886005D5B00603D54146200000F039
:1047500094FB002084F840000020BDE8F6810000B2
:104760002DE9F04105000E001700EC6AB04695F8FF
:104770004000012801D1022092E0012085F840008C
:104780005FEA886005D5B80603D54146280000F0E9
:1047900001FC5FEAC86037D5F80635D5688D00287A
:1047A00021D195F84100282807D1B4F1007F04D128
:1047B0004146280000F067FD6EE095F84100292889
:1047C0000DD1DFF8FC04844209D010202968C861AB
:1047D000280000F06EFE280000F00FFB5CE01020C7
:1047E0002968C86158E010202968C861686C50F0D9
:1047F00004006864002C02D0B4F1807F4CD1696C55
:10480000280000F075FD47E05FEA48701CD5780786
:104810001AD5688D00280CD02868406A696A08702B
:10482000686A401C6862288D401E2885688D401E7D
:104830006885688D00282FD1DFF8840484422BD04E
:10484000280000F0DAFA27E05FEA087006D538079A
:1048500004D54146280000F035FA1DE05FEA887073
:104860001AD5B80718D5688D00280DD0686A007869
:1048700029688862686A401C6862688D401E688585
:10488000288D401E288507E0B4F1807F01D0002CE0
:1048900002D1280000F0B1FA002085F84000002085
:1048A000BDE8F0812DE9FC4104000D00160094F8EC
:1048B0004000012801D1022097E0012084F8400047
:1048C000E80610D5F0060ED510202168C861606C8E
:1048D00050F0040060642021200000F02EFE200033
:1048E00000F0E7FD7DE0280653D5700651D520681D
:1048F000006830F0400021680860608D00283BD0DF
:10490000206840688005800D0700608DB0F5807FCD
:1049100005D3FF2020855FF0807080460CE0608D1D
:104920002085E06ADFF89813884202D0E06A80466A
:1049300002E05FF000708046002000904346228D28
:10494000D2B2390089B2200000F0DEFD618D208DE9
:10495000091A618594F84100222806D12068006870
:1049600050F40040216808603BE02068006850F483
:1049700080402168086034E020684068800103D4EA
:10498000200000F00DFA2CE04021200000F0B0FCE7
:1049900027E068061DD570061BD5608D002813D151
:1049A0002068406880011CD4E06ADFF81413884254
:1049B00006D12068406850F480402168486010E0CB
:1049C000200000F0EDF90CE04021200000F090FC08
:1049D00007E0A80605D5B00603D52900200000F0A1
:1049E0004CFA002084F840000020BDE8F681000069
:1049F0002DE9F84306000F009046F46A5FF00009C5
:104A000096F84000012801D1022056E1012086F8E5
:104A10004000B80606D55FEA886003D5390030004B
:104A200000F0B8FAF80640F13B815FEAC86040F157
:104A3000378118F4404F00F02F81F06B00286DD0C3
:104A40005FEA08406AD5F06B0068DFF8F019884229
:104A500059D0F06B0068DFF8E819884253D0F06B4A
:104A60000068DFF8E01988424DD0F06B0068DFF88D
:104A7000D819884247D0F06B0068DFF8D019884217
:104A800041D0F06B0068DFF8C81988423BD0F06B6A
:104A90000068DFF8C019884235D0F06B0068DFF895
:104AA000B81988422FD0F06B0068DFF8B01988423F
:104AB00029D0F06B0068DFF8A819884223D0F06B8A
:104AC0000068DFF8A01988421DD0F06B0068DFF89D
:104AD0009819884217D0F06B0068DFF89019884267
:104AE00011D0F06B0068DFF8881988420BD0F06BAA
:104AF0000068DFF88019884205D0F06B0068DFF8A5
:104B00007819884203D1F06B0068406802E0F06BCE
:104B100000684068002801D101208146B06B002860
:104B20006DD05FEA48406AD5B06B0068DFF80C19B9
:104B3000884259D0B06B0068DFF80419884253D01E
:104B4000B06B0068DFF8FC1888424DD0B06B00688D
:104B5000DFF8F418884247D0B06B0068DFF8EC1833
:104B6000884241D0B06B0068DFF8E41888423BD03F
:104B7000B06B0068DFF8DC18884235D0B06B006895
:104B8000DFF8D41888422FD0B06B0068DFF8CC185B
:104B9000884229D0B06B0068DFF8C418884223D05F
:104BA000B06B0068DFF8BC1888421DD0B06B00689D
:104BB000DFF8B418884217D0B06B0068DFF8AC1883
:104BC000884211D0B06B0068DFF8A41888420BD07F
:104BD000B06B0068DFF89C18884205D0B06B0068A5
:104BE000DFF89418884203D1B06B0068406802E097
:104BF000B06B00684068002801D101208146B9F1FE
:104C0000010F20D196F84100282807D1B4F1007F88
:104C100004D13900300000F036FB4AE096F841003C
:104C200029280CD12648844209D010203168C86157
:104C3000300000F03EFC300000F0DFF839E01020DA
:104C40003168C86135E010203168C861706C50F07F
:104C50000400706496F841000500002C02D0B4F105
:104C6000807F26D12800C0B2212803D02800C0B2FE
:104C7000292802D12120306309E02800C0B222286F
:104C800003D02800C0B22A2801D122203063716CE1
:104C9000300000F02DFB0CE010203168C86108E006
:104CA000380706D55FEA087003D53900300000F0F8
:104CB00009F8002086F840000020BDE8F2830000DB
:104CC0000000FFFF2DE9F84304000D0094F84100B7
:104CD00010F0280028285BD120688069000C10F0B3
:104CE0000100060020688069000C10F0FE0007003B
:104CF000206880688005800D80462068C06810F0BC
:104D0000FE008146E068022832D1380080B210F0FF
:104D10000600414689B2C90911F00601884216D140
:104D20004746A06C401CA064A06C022836D100202D
:104D3000A06408202168C861002084F840003A007F
:104D400092B23100C9B2200003F077FE26E04F4650
:104D50004FF40041200000F043FC002084F84000A4
:104D60003A0092B23100C9B2200003F066FE15E0AD
:104D70004FF40041200000F033FC002084F8400094
:104D80003A0092B23100C9B2200003F056FE05E0AD
:104D900008202168C861002084F84000BDE8F18344
:104DA00010B50400002084F8420094F84100212846
:104DB00011D1202084F8410011202063002060637D
:104DC0000121200000F00CFC002084F840002000AD
:104DD000FCF7C4FA10E0202084F841001220206380
:104DE000002060630221200000F0FAFB002084F81C
:104DF0004000200003F022FE10BD38B504002068FA
:104E00000568002084F84200680406D52068006820
:104E100030F480402168086007E0280405D5206848
:104E2000006830F400402168086094F841002928A7
:104E30000FD1282084F84100212020630121200087
:104E400000F0CEFB002084F84000200003F0F7FDC6
:104E500012E094F841002A280ED1282084F841005D
:104E6000222020630221200000F0BAFB002084F8F9
:104E70004000200003F0E4FD31BDF8B505000E0050
:104E8000370020202968C86195F84100212806D103
:104E90000121280000F0A4FB1120286309E095F807
:104EA0004100222805D10221280000F099FB1220A0
:104EB000286328684168DFF82006014028684160BF
:104EC00000206863DFF83C06E862F80606D510208B
:104ED0002968C861686C50F00400686495F8410066
:104EE000602806D1780704D52868406AC0B20090CF
:104EF0000098280000F0DDFA6C6C95F841006028FD
:104F000001D0002C04D0696C280000F0F1F940E0D9
:104F100095F8410021281CD1202085F8410000206F
:104F2000286395F84200402809D1002085F8420006
:104F3000002085F84000280003F083FD29E00020D0
:104F400085F84200002085F840002800FCF706FAAA
:104F50001FE095F8410022281BD1202085F8410050
:104F60000020286395F84200402809D1002085F8E8
:104F70004200002085F84000280003F063FD08E0AF
:104F8000002085F84200002085F84000280003F04A
:104F900055FDF1BD2DE9F84304000D0020680668B9
:104FA0002F0094F8418020202168C8614046C0B29B
:104FB000212803D04046C0B2292807D148F2010178
:104FC000200000F00DFB212020630EE04046C0B21F
:104FD000222803D04046C0B22A2806D148F2020156
:104FE000200000F0FDFA222020632068406850F481
:104FF00000402168486020684168DFF8DC04014017
:1050000020684160200000F054FA700472D52068D6
:10501000006830F4804021680860A06B002800F030
:10502000CF80A06B0068DFF81414884259D0A06BC1
:105030000068DFF80C14884253D0A06B0068DFF8DA
:10504000041488424DD0A06B0068DFF8FC1388423E
:1050500047D0A06B0068DFF8F413884241D0A06B02
:105060000068DFF8EC1388423BD0A06B0068DFF8E3
:10507000E413884235D0A06B0068DFF8DC13884267
:105080002FD0A06B0068DFF8D413884229D0A06B22
:105090000068DFF8CC13884223D0A06B0068DFF8EB
:1050A000C41388421DD0A06B0068DFF8BC1388428F
:1050B00017D0A06B0068DFF8B413884211D0A06B42
:1050C0000068DFF8AC1388420BD0A06B0068DFF8F3
:1050D000A413884205D0A06B0068DFF89C138842B7
:1050E00003D1A06B0068406802E0A06B00684068D4
:1050F000608565E0300463D52068006830F40040C6
:1051000021680860E06B00285AD0E06B0068DFF887
:105110002C1388424CD0E06B0068DFF824138842DF
:1051200046D0E06B0068DFF81C13884240D0E06B8B
:105130000068C54988423BD0E06B0068C34988429B
:1051400036D0E06B0068C249884231D0E06B00681D
:10515000C04988422CD0E06B0068BF49884227D004
:10516000E06B0068BD49884222D0E06B0068BC4912
:1051700088421DD0E06B0068BA49884218D0E06BC5
:105180000068B949884213D0E06B0068B74988428B
:105190000ED0E06B0068B649884209D0E06B006829
:1051A000B449884204D0E06B0068B349884203D117
:1051B000E06B0068406802E0E06B00684068608572
:1051C000780711D537F004072068406A616A0870D3
:1051D000606A401C6062208D002805D0208D401E32
:1051E0002085608D401E6085608D002803D0606C36
:1051F00050F004006064002084F8420000206063E6
:10520000606C00280CD0616C200000F071F894F8FC
:105210004100282835D13900200000F034F830E072
:10522000DFF8A893E06A484510D02000FFF7E5FDBD
:10523000C4F82C90202084F8410000202063002036
:1052400084F84000200003F0FEFB1AE094F84100CF
:1052500022280BD1202084F8410000202063002068
:1052600084F84000200003F0EBFB0AE0202084F8E3
:10527000410000202063002084F84000200003F05B
:10528000DEFBBDE8F18338B504000D00DFF83C0318
:10529000E06200202063202084F84100002084F890
:1052A000420000206063680713D52068406A616A85
:1052B0000870606A401C6062208D002809D0208D33
:1052C000401E2085608D401E6085606C50F004009B
:1052D000606448F20301200000F082F91020216888
:1052E000C861002084F84000200003F0ACFB31BD11
:1052F000F8B504000D0094F84160002084F84200E5
:10530000DFF80002E06200206085606C2843606482
:105310003000C0B2282807D03000C0B2292803D0FE
:105320003000C0B22A280AD10321200000F058F929
:10533000282084F84100DFF89802606322E048F2F8
:105340000301200000F04CF9200000F0B2F894F8BE
:105350004100602814D0202084F841002068806932
:1053600080060DD520688069C00606D5102021680A
:10537000C861606C50F00400606420202168C8613E
:1053800000206063276BA06B002827D0112F01D06D
:10539000212F23D120680068400405D520680068CB
:1053A00030F4804021680860A06B01F0C5FC012842
:1053B00010D00FF22910A16B0865002084F840007E
:1053C000A06B01F0BFFA002836D0A06BA16B096D6D
:1053D000884731E0200000F051F82DE0E06B002814
:1053E00027D0122F01D0222F23D12068006800047B
:1053F00005D52068006830F4004021680860E06B43
:1054000001F09AFC012810D00FF2D100E16B086581
:10541000002084F84000E06B01F094FA00280BD0E3
:10542000E06BE16B096D884706E0200000F026F88C
:1054300002E0200000F022F8F1BD00001000024060
:105440002800024040000240580002407000024024
:1054500088000240A0000240B80002401004024050
:1054600028040240400402405804024070040240F4
:1054700088040240A0040240B804024010B50400B1
:1054800094F8410060280BD1202084F841000020CE
:105490002063002084F84000200003F0D5FA07E0E4
:1054A00000202063002084F84000200003F0CDFAA3
:1054B00010BD01688969890702D5002102689162DF
:1054C00001688969C90705D40168896951F001013A
:1054D000026891617047000000E800FE38B50400E2
:1054E000A56BA86B002802D00020A96B0865E86BAB
:1054F000002802D00020E96B08652800FFF7BEFFF6
:1055000031BD00000000FFFFF0B4049C0D00ADB2FF
:10551000AD05AD0D1600F6B255EA06451D4325430F
:1055200025F00045066876682A4F57EA5457BE436F
:105530002E4307687E60F0BC704710B40022436BB6
:10554000254CA34203D0436B244CA34218D10B003B
:105550009BB21B0401D552F0B8020B009BB2102B7A
:1055600001D152F090020B009BB2202B01D152F0DE
:1055700060020B009BB2402B20D152F040021DE094
:105580000B009BB21B0401D552F0B8020B009BB27A
:10559000DB0701D552F0F2020B009BB29B0701D54D
:1055A00052F0F4020B009BB2102B01D152F090028A
:1055B0000B009BB2202B01D152F0200203681B6824
:1055C00013430468236010BC704700000000FFFF15
:1055D00061470008FF63FF03A5480008F149000880
:1055E00010B400220B009BB2DB0709D552F0420237
:1055F00090F8413013F02803282B01D052F0B0026C
:105600000B009BB29B0709D552F0440290F8413041
:1056100013F02803282B01D052F0B0020B009BB2EC
:105620001B0401D552F0B8020B009BB2102B01D124
:1056300052F090020B009BB2202B01D152F02002BD
:105640000B009BB2402B01D152F0400203681B6853
:1056500093430468236010BC70472E0070B50400AB
:1056600000F002FF0500260016F1010F02D00448E9
:105670000078361800F0F8FE401BB042FAD370BD37
:105680009800002010B50400002C01D1012035E065
:1056900094F83D00002805D1002084F83C0020004B
:1056A00003F0D4F9022084F83D00211D206800F0A9
:1056B00051F9012084F84800012084F83E000120BF
:1056C00084F83F00012084F84000012084F8410064
:1056D000012084F84200012084F84300012084F86E
:1056E0004400012084F84500012084F84600012090
:1056F00084F84700012084F83D00002010BD01001F
:1057000091F83D00012801D0012048E0022081F8F5
:105710003D000868C06850F001000B68D860086858
:10572000DFF87C30984221D00868B0F1804F1DD05E
:105730000868DFF87030984218D00868DFF86830E1
:10574000984213D00868DFF8643098420ED0086899
:10575000DFF85C30984209D00868DFF8583098428A
:1057600004D00868DFF85030984211D10868836887
:10577000DFF8480003401A00062A0FD0B2F5803F38
:105780000CD00868006850F001000B68186005E054
:105790000868006850F001000B681860002070472E
:1057A000000001400004004000080040000C0040E0
:1057B00000040140001800400040014007000100C3
:1057C00010B504002068006980071AD52068C068F9
:1057D000800716D57FF0020021680861012020773C
:1057E0002068806910F0030F03D0200003F02FF928
:1057F00005E0200003F02CF9200003F02AF9002036
:1058000020772068006940071AD52068C0684007E3
:1058100016D57FF0040021680861022020772068F7
:10582000806910F4407F03D0200003F010F905E0F8
:10583000200003F00DF9200003F00BF90020207781
:105840002068006900071AD52068C068000716D5CF
:105850007FF0080021680861042020772068C06973
:1058600010F0030F03D0200003F0F1F805E0200052
:1058700003F0EEF8200003F0ECF800202077206819
:105880000069C0061AD52068C068C00616D57FF02A
:10589000100021680861082020772068C06910F492
:1058A000407F03D0200003F0D2F805E0200003F091
:1058B000CFF8200003F0CDF80020207720680069A1
:1058C000C0070AD52068C068C00706D57FF0010070
:1058D000216808612000FBF74FFD20680069000681
:1058E0000AD52068C068000606D57FF080002168D0
:1058F0000861200003F0AEF820680069C0050AD5F1
:105900002068C068000606D57FF4807021680861B1
:10591000200003F0A0F82068006940060AD520683E
:10592000C068400606D57FF040002168086120006D
:1059300003F092F82068006980060AD52068C068E4
:10594000800606D57FF0200021680861200003F062
:1059500084F810BD10B40468DFF8C030984212D04B
:10596000B0F1804F0FD0DFF8B82090420BD0DFF8B5
:10597000B420904207D0DFF8B020904203D0DFF887
:10598000AC20904203D134F070044A68144398422A
:105990001ED0B0F1804F1BD0DFF88420904217D08A
:1059A000DFF88020904213D0DFF87C2090420FD0A7
:1059B000DFF8782090420BD0DFF87420904207D0B7
:1059C000DFF87020904203D0DFF86C20904203D1C2
:1059D00034F44074CA68144334F080044A691443B0
:1059E00004608A68C2620A68826298420FD0DFF857
:1059F0003C2090420BD0DFF83820904207D0DFF8EF
:105A00003420904203D0DFF83020904201D10A695F
:105A100002630122426110BC704700000000014097
:105A20000004004000080040000C00400004014059
:105A300000400140004401400048014062F30F2251
:105A400062F31F42401810F0030308D0C91A1FD395
:105A5000DB0748BF00F8012D28BF20F8022D1300F6
:105A600030B414461546103928BF20E93C00FAD856
:105A7000490728BF20E90C0048BF40F8042D8900E1
:105A800028BF20F8022D48BF00F8012D30BC704718
:105A9000C91818BF00F8012DCB0728BF00F8012D49
:105AA0007047430038B50400DFF848000168490733
:105AB00008D4006810F00700A04201D0012018E0CF
:105AC000002016E00168C908C9002143016000F008
:105AD000CBFC0500DFF820000068800408D400F04B
