:020000040800F2
:10000000100B0020ED8B0008C58B0008C78B000883
:10001000C98B0008CB8B0008CD8B000800000000C6
:10002000000000000000000000000000CF8B00086E
:10003000D18B000800000000D38B0008D58B00088E
:10004000118C0008158C0008198C00081D8C000804
:10005000218C0008258C0008298C00082D8C0008B4
:10006000318C0008793C0008833C0008358C00087E
:10007000398C00083D8C0008418C0008458C000834
:10008000498C00084D8C0008518C0008558C0008E4
:10009000598C00085D8C0008618C0008658C000894
:1000A000698C00086D8C0008718C0008758C000844
:1000B000113C0008213C0008313C0008453C000888
:1000C000798C00087D8C0008818C0008858C0008E4
:1000D000898C00088D8C0008E93B0008F93B00087A
:1000E000918C0008958C000800000000998C000895
:1000F0009D8C0008A18C0008A58C0008A98C000824
:10010000AD8C0008B18C0008B58C0008B98C0008D3
:10011000BD8C0008C18C0008C58C0008C98C000883
:10012000CD8C0008D18C0008D58C0008D98C000833
:10013000DD8C0008E18C0008E58C0008E98C0008E3
:1001400000000000000000000000000000000000AF
:10015000ED8C0008F18C0008F58C0008F98C000883
:10016000FD8C0008018D0008058D0008098D000830
:100170000D8D0008118D0008158D0008000000008D
:10018000198D00081D8D0008218D0008258D00089F
:10019000298D00082D8D0008318D0008358D00084F
:1001A000398D00083D8D0008418D0008458D0008FF
:1001B000498D00084D8D0008518D0008558D0008AF
:1001C000598D00085D8D0008618D0008658D00085F
:1001D000698D00086D8D0008718D0008758D00080F
:1001E000798D00087D8D0008818D0008858D0008BF
:1001F000898D00088D8D0008918D0008958D00086F
:10020000998D00089D8D0008A18D0008A58D00081E
:10021000A98D0008AD8D0008B18D0008B58D0008CE
:10022000B98D0008BD8D0008C18D000800000000D8
:10023000C58D0008C98D000800000000CD8D0008A4
:10024000D18D0008D58D0008D98D0008DD8D0008FE
:10025000E18D0008E58D0008E98D0008ED8D0008AE
:10026000F18D0008F58D0008F98D0008FD8D00085E
:10027000018E0008058E0008098E000800000000AD
:100280000D8E0008118E0008158E00080000000079
:1002900000000000198E000810B50400002C01D1E8
:1002A000012037E0A0690028FFD1D4F88800002899
:1002B00005D1002084F88400200001F0F5FB242003
:1002C000C4F8880020680068400840002168086081
:1002D000200000F0F1FA012801D101201AE0A06A03
:1002E000002802D0200000F0CBFD2068406830F4E8
:1002F0009040216848602068806830F02A002168BA
:1003000088602068006850F00100216808602000C3
:1003100000F023FE10BD30B40300D3F8880020287D
:1003200050D1002903D0100080B2002801D1012053
:1003300049E01965A3F85420A3F8562000209867D7
:100340000020C3F890002120C3F88800586EB0F157
:10035000005F1CD19868B0F5805F06D1186900284D
:1003600003D1DFF8C400986702E0DFF8C0009867A7
:100370001868083050E8000F50F4000004001868B6
:1003800010F1080545E800400028F1D118E0986810
:10039000B0F5805F06D11869002803D1DFF890001E
:1003A000986702E0DFF88C009867186850E8000F43
:1003B00050F0800004001D6845E800400028F4D19A
:1003C000002000E0022030BC704770B505000C0032
:1003D0001600D5F88C00202824D1002C03D0300042
:1003E00080B2002801D101201DE00020E8662868C5
:1003F000DFF8441088420ED02868406800020AD511
:10040000286850E8000F50F0806001002A6842E838
:1004100000100028F4D1320092B22100280000F030
:1004200052FE00E0022070BD191400089B13000862
:1004300037130008DF120008000C00582DE9F047C0
:1004400006003068C7693068D0F800803068D0F89E
:10045000089040F60F043C40002C0ED1B8060CD595
:100460005FEA886002D45FEAC90006D5706F002891
:1004700002D03000716F884713E2002C00F0B28088
:10048000DFF8280419EA000F05D1DFF8241418EA70
:10049000010F00F0A78017F00101C9B200290BD0AD
:1004A0005FEAC85108D5012132681162D6F8901070
:1004B00051F00101C6F89010B9070DD519F00101EE
:1004C000C9B2002908D0022132681162D6F8901012
:1004D00051F00401C6F8901079070DD519F001010B
:1004E000C9B2002908D0042132681162D6F89010F0
:1004F00051F00201C6F8901039070ED55FEA886105
:1005000002D419EA000F08D0082031680862D6F832
:10051000900050F00800C6F8900038050CD55FEA4E
:10052000481009D54FF4006031680862D6F8900091
:1005300050F02000C6F89000D6F89000002850D067
:10054000B8060BD55FEA886002D45FEAC90005D51A
:10055000706F002802D03000716F8847D6F8900085
:10056000050030688068400602D415F0280F32D0AC
:10057000300000F055FE30688068400627D53068AE
:10058000083050E8000F30F040000100306810F1F2
:10059000080242E800100028F1D1D6F880000028B7
:1005A00011D0DFF81003D6F880100865D6F8800067
:1005B00001F0E6FC002814D0D6F88000D6F88010B0
:1005C000096D88470DE0300001F0D7FE09E03000EA
:1005D00001F0D3FE05E0300001F0CFFE0020C6F8A8
:1005E00090005EE1F06E012840F02481F80640F1B1
:1005F00021815FEAC86040F11D81102031680862E6
:1006000030688068400640F1D480D6F880000068E9
:10061000DFF82818884268D0D6F880000068DFF834
:100620002018884261D0D6F880000068DFF81418DE
:1006300088425AD0D6F880000068DFF80C1888424B
:1006400053D0D6F880000068DFF8001888424CD0FC
:10065000D6F880000068DFF8F817884245D0D6F851
:1006600080000068DFF8EC1788423ED0D6F88000A2
:100670000068DFF8E417884237D0D6F880000068B9
:10068000DFF8D817884230D0D6F880000068DFF84D
:10069000D017884229D0D6F880000068DFF8C41748
:1006A000884222D0D6F880000068DFF8BC17884264
:1006B0001BD0D6F880000068DFF8B017884214D04D
:1006C000D6F880000068DFF8A81788420DD0D6F869
:1006D00080000068DFF89C17884206D0D6F88000BA
:1006E0000068DFF89417884205D1D6F880000068CA
:1006F000D0F804A004E0D6F880000068D0F804A088
:10070000504680B2002853D05046B6F85C1080B2F4
:1007100088424DD2A6F85EA0D6F88000C069B0F538
:10072000807F3AD0306850E8000F30F480700100CC
:10073000326842E800100028F4D13068083050E8F0
:10074000000F400840000100306810F1080242E844
:1007500000100028F1D13068083050E8000F30F068
:1007600040000100306810F1080242E80010002843
:10077000F1D12020C6F88C000020F066306850E8E7
:10078000000F30F010000100326842E8001000282D
:10079000F4D1D6F8800001F08DF902203067B6F868
:1007A0005C10B6F85E00091A89B2300001F0E6FD6F
:1007B00077E0B6F85C00B6F85EA0B0EB0A0AB6F8CF
:1007C0005E00002835D0504680B2002831D0306815
:1007D00050E8000F30F490700100326842E80010D9
:1007E0000028F4D13068083050E8002F2E4802402D
:1007F0001100306810F1080242E800100028F1D121
:100800002020C6F88C000020F06600207067306859
:1008100050E8000F30F010000100326842E800108C
:100820000028F4D102203067514689B2300001F02F
:10083000A5FD36E0F8020AD55FEA492007D55FF446
:10084000801031680862300001F099FD29E0380617
:100850000CD55FEA086002D45FEA092006D5B06FC4
:10086000002802D03000B16F88471AE0780606D51C
:100870005FEA486003D5300000F010FE11E0380256
:1008800006D55FEA480003D5300001F079FD08E0A5
:10089000F80106D5B8F1000F03D5300001F071FD65
:1008A000FFE7BDE8F0870000FEFFFFEF010000104A
:1008B00020010004C51200082DE9F84F86B004009D
:1008C0000026DFF8B81520688842FFD0A2682069AA
:1008D000024360690243E069024320680368DFF86D
:1008E000A40903401343206803602068436833F47D
:1008F0004053E068034320684360D4F818802068C0
:10090000884202D0206A50EA080820688268DFF82E
:100910007809024058EA0202206882602068C26AB0
:1009200012091201606A02432068C2622068DFF87F
:100930005C2990421FD1DFF85809006810F0380098
:1009400000280AD008280AD010280AD018280AD06F
:1009500020280AD028280AD00BE0012724E1042708
:1009600022E1082720E110271EE120271CE1402773
:100970001AE1802718E12068DFF8182990421DD17C
:10098000DFF80C09006810F00700002808D00228E2
:100990000AD007D304280BD008D305280AD00BE0CF
:1009A000002701E10427FFE00827FDE01027FBE016
:1009B0002027F9E04027F7E08027F5E02068DFF8FE
:1009C000D82890421DD1DFF8C808006810F0070051
:1009D000002808D002280AD007D304280BD008D357
:1009E00005280AD00BE00027DEE00427DCE008271A
:1009F000DAE01027D8E02027D6E04027D4E080278F
:100A0000D2E02068DFF8942890421DD1DFF88008FA
:100A1000006810F00700002808D002280AD007D389
:100A200004280BD008D305280AD00BE00027BBE030
:100A30000427B9E00827B7E01027B5E02027B3E086
:100A40004027B1E08027AFE02068DFF854289042CB
:100A50001DD1DFF83C08006810F00700002808D01E
:100A600002280AD007D304280BD008D305280AD0BF
:100A70000BE0002798E0042796E0082794E0102771
:100A800092E0202790E040278EE080278CE02068CD
:100A9000DFF8102890421FD1DFF8F407006810F04B
:100AA000380000280AD008280AD010280AD01828B0
:100AB0000AD020280AD028280AD00BE0012773E0AA
:100AC000042771E008276FE010276DE020276BE016
:100AD000402769E0802767E02068DFF8CC27904254
:100AE0001DD1DFF8AC07006810F00700002808D01F
:100AF00002280AD007D304280BD008D305280AD02F
:100B00000BE0002750E004274EE008274CE01027B8
:100B10004AE0202748E0402746E0802744E020685C
:100B2000DFF8882790421DD1DFF86407006810F0D5
:100B30000700002808D002280AD007D304280BD0C9
:100B400008D305280AD00BE000272DE004272BE06E
:100B5000082729E0102727E0202725E0402723E069
:100B6000802721E0206888421DD1DFF84407006813
:100B700010F00700002808D002280AD007D3042864
:100B80000BD008D305280AD00BE002270CE004277D
:100B90000AE0082708E0102706E0202704E04027A5
:100BA00002E0802700E08027206888426FD138006B
:100BB000C0B202280AD004280CD0082810D010286F
:100BC00014D0202822D0402823D025E001F0DAFBE1
:100BD000814625E003A801F0E5FBDDF810901FE059
:100BE000684601F0F7FCDDF8049019E0DFF8C40670
:100BF0000168890607D5DFF8C0960068C0F3C10018
:100C000039FA00F901E0DFF8B09609E0DFF8AC96B8
:100C100006E04FF4004903E05FF000090120060000
:100C2000B9F1000F00F0FA80DFF89416606A31F82D
:100C30001000B9FBF0F082466268032042439245FF
:100C400005D362684FF480504243524502D20120DE
:100C50000600E3E0606A31F81000B9FBF0F24FF4EF
:100C60008073606840080021E3FB02016268002392
:100C700001F0D8FD0500B5F5407F05D3B5F5801F1F
:100C800002D22068C560C9E001200600C6E0E06924
:100C9000B0F5004F66D13800C0B200280CD0012852
:100CA0000ED0042810D0082814D0102818D02028DE
:100CB00026D0402827D029E002F03BF9814629E0E0
:100CC00002F044F9814625E003A801F06BFBDDF852
:100CD00010901FE0684601F07DFCDDF8049019E0FB
:100CE000DFF8D0050168890607D5DFF8CC950068E4
:100CF000C0F3C10039FA00F901E0DFF8BC9509E062
:100D0000DFF8B89506E04FF4004903E05FF0000912
:100D100001200600B9F1000F00F08080DFF8A00587
:100D2000616A30F81100B9FBF0F06168490811EB15
:100D300040016068B1FBF0F00500102D0FD3B5F550
:100D4000803F0CD24FF6F07129402800C0F34200DA
:100D500001438B46584680B22168C8605EE001209E
:100D600006005BE03800C0B200280CD001280ED08D
:100D7000042810D0082814D0102818D0202826D0F5
:100D8000402827D029E002F0D4F8814629E002F07B
:100D9000DDF8814625E003A801F004FBDDF81090A2
:100DA0001FE0684601F016FCDDF8049019E0DFF85A
:100DB00004050168890607D5DFF8FC940068C0F3D4
:100DC000C10039FA00F901E0DFF8EC9409E0DFF83E
:100DD000EC9406E04FF4004903E05FF000090120C5
:100DE0000600B9F1000F19D0DFF8D404616A30F8B9
:100DF0001100B9FBF0F0616810EB51006168B0FBC5
:100E0000F1F00500102D07D3B5F5803F04D228007E
:100E100080B22168C86001E0012006000120A4F82A
:100E20006A000120A4F86800002060670020A06725
:100E30003000C0B207B0BDE8F08F000010000240E3
:100E4000280002404000024058000240700002406A
:100E500088000240A0000240B80002401004024096
:100E6000280402404004024058040240700402403A
:100E700088040240A0040240B8040240000C00585C
:100E800090F82810C90707D501684A6832F4003283
:100E9000C16A0A4301684A6090F82810890707D59B
:100EA00001684A6832F48032016B0A4301684A6083
:100EB00090F82810490707D501684A6832F4802263
:100EC000416B0A4301684A6090F82810090707D56A
:100ED00001684A6832F40042816B0A4301684A6043
:100EE00090F82810C90607D501688A6832F4805244
:100EF000C16B0A4301688A6090F82810890607D5FB
:100F000001688A6832F40052016C0A4301688A6001
:100F100090F82810490613D501684A6832F4801207
:100F2000416C0A4301684A60416CB1F5801F07D1EA
:100F300001684A6832F4C002816C0A4301684A6061
:100F400090F82810090607D501684A6832F4002293
:100F5000C16C0A4301684A60704738B5040000203C
:100F6000C4F8900002F02AF8050020680068000725
:100F70001ED57FF07E4000902B0000225FF4001110
:100F8000200000F055F8002812D0206850E8000F2B
:100F900030F080000100226842E800100028F4D1FF
:100FA0002020C4F88800002084F8840003203EE05C
:100FB0002068006840072CD57FF07E4000902B0011
:100FC00000225FF48001200000F032F8002820D0D9
:100FD000206850E8000F30F490700100226842E869
:100FE00000100028F4D12068083050E8000F4008B5
:100FF00040000100206810F1080242E800100028BB
:10100000F1D12020C4F88C00002084F88400032053
:101010000DE02020C4F888002020C4F88C000020B7
:10102000E06600202067002084F88400002032BDA4
:101030002DE9F04105000E0090461F00069C28682F
:10104000C0693040B04201D1012000E0002041469B
:10105000C9B2884234D114F1010FF0D001F0AEFFD3
:10106000C01B844201D3002C01D1032029E0286851
:1010700000684007E3D52868C06900070DD508203F
:1010800029680862280000F0CBF80820C5F8900015
:10109000002085F88400012013E02868C06900055D
:1010A000CDD54FF4006029680862280000F0B8F838
:1010B0002020C5F89000002085F88400032000E07F
:1010C0000020BDE8F08130B403009965A3F85C20EE
:1010D000A3F85E20002058679868B0F5805F0BD1B8
:1010E0001869002804D140F2FF10A3F8600023E043
:1010F000FF20A3F860001FE0986800280AD1186953
:10110000002803D1FF20A3F8600015E07F20A3F89A
:10111000600011E09868B0F1805F0AD1186900287A
:1011200003D17F20A3F8600006E03F20A3F8600011
:1011300002E00020A3F860000020C3F89000222005
:10114000C3F88C001868083050E8000F50F0010018
:101150000400186810F1080545E800400028F1D1A6
:10116000586EB0F1005F30D11000B3F8684080B223
:10117000A0422AD39868B0F5805F06D1186900288C
:1011800003D10FF21D70586702E00FF2215058672B
:10119000186900280AD0186850E8000F50F48070D1
:1011A00004001D6845E800400028F4D118680830A4
:1011B00050E8000F50F080500400186810F1080546
:1011C00045E800400028F1D127E09868B0F5805F3D
:1011D00006D11869002803D10FF2E130586702E008
:1011E0000FF2E9205867186900280BD0186850E8FA
:1011F000000F50F4907004001D6845E8004000287E
:10120000F4D10AE0186850E8000F50F02000040004
:101210001D6845E800400028F4D1002030BC70472C
:10122000016851E8001F31F490710A00036843E837
:1012300000210029F4D10168083151E8003FDFF8AE
:1012400058180B401A00016811F1080343E8002107
:101250000029F0D1C16E01290AD1016851E8001FAF
:1012600031F010010A00036843E800210029F4D19D
:101270002021C0F88C100021C16600214167704711
:1012800000000000F369FFCFFFF4FF1100100140E0
:10129000544402580044004000480040004C0040C4
:1012A000005000400014014000780040007C0040E5
:1012B00058440258004402580090D00300093D00F1
:1012C000948B000838B50400A56B0020A5F85E00DB
:1012D0000020A5F85600280001F04FF831BDD0F8E5
:1012E0008810212926D1B0F85610002916D101689E
:1012F00051E8001F31F080010A00036843E8002133
:101300000029F4D1016851E8001F51F040010A00A2
:10131000036843E800210029F4D10BE0016D09784E
:1013200002689162016D491C0165B0F85610491EB2
:10133000A0F85610704710B40100D1F88800212899
:1013400029D1B1F85600002816D1086850E8000FDE
:1013500030F0800003000C6844E800300028F4D12D
:10136000086850E8000F50F0400003000C6844E8A3
:1013700000300028F4D10EE0086D02001088C0058E
:10138000C00D0B689862086D801C0865B1F85600A6
:10139000401EA1F8560010BC704710B40100D1F8EF
:1013A0008800212836D1B1F86A000200100080B20E
:1013B00000282FD0B1F85600002819D1086808304D
:1013C00050E8000F30F400000300086810F1080432
:1013D00044E800300028F1D1086850E8000F50F0D0
:1013E000400003000C6844E800300028F4D111E00C
:1013F0000868C06900060BD5086D00780B68986214
:10140000086D401C0865B1F85600401EA1F8560052
:10141000521ECBE710BC704730B40100D1F88800F1
:10142000212839D1B1F86A000300180080B20028E1
:1014300032D0B1F85600002819D10868083050E8B9
:10144000000F30F400000400086810F1080545E8BA
:1014500000400028F1D1086850E8000F50F040002B
:1014600004000D6845E800400028F4D114E0086845
:10147000C06900060ED5086D02001088C005C00DB9
:101480000C68A062086D801C0865B1F85600401E0B
:10149000A1F856005B1EC8E730BC704710B50400C9
:1014A000206850E8000F30F040000100226842E858
:1014B00000100028F4D12020C4F888000020A06784
:1014C000200002F04BFB10BD0000000070B50500CD
:1014D000B5F86060D5F88C00222867D12868406A8A
:1014E000040016EA0400A96D0870A86D401CA865E8
:1014F000B5F85E00401EA5F85E00B5F85E00002855
:101500005AD1286850E8000F30F4907001002A6822
:1015100042E800100028F4D12868083050E8000F95
:10152000400840000100286810F1080242E800105D
:101530000028F1D12020C5F88C0000206867002029
:1015400028672868DFF8541588420ED0286840685C
:1015500000020AD5286850E8000F30F080600100D2
:101560002A6842E800100028F4D1E86E012819D159
:101570000020E866286850E8000F30F010000100F5
:101580002A6842E800100028F4D12868C069C00623
:1015900002D5102029680862B5F85C10280000F018
:1015A000EDFE09E0280002F077FA05E0286880697E
:1015B00050F008002968886170BD0000F8B505008A
:1015C000B5F86070D5F88C00222868D12868406A88
:1015D0000400A86D060017EA04003080A86D801C86
:1015E000A865B5F85E00401EA5F85E00B5F85E007F
:1015F00000285AD1286850E8000F30F4907001009C
:101600002A6842E800100028F4D12868083050E821
:10161000000F400840000100286810F1080242E86D
:1016200000100028F1D12020C5F88C000020686748
:10163000002028672868DFF8641488420ED02868E4
:10164000406800020AD5286850E8000F30F080603A
:1016500001002A6842E800100028F4D1E86E012851
:1016600019D10020E866286850E8000F30F010001B
:1016700001002A6842E800100028F4D12868C069F7
:10168000C00602D5102029680862B5F85C10280051
:1016900000F074FE09E0280002F0FEF905E0286879
:1016A000806950F0080029688861F1BD2DE9F84F84
:1016B0000700B7F860803868D0F81C903868D0F818
:1016C00000A03868D0F808B0D7F88C00222840F085
:1016D000DF80B7F868000500280080B2002800F01D
:1016E000AE805FEA896040F1AA803868406A0400F1
:1016F00018EA0400B96D0870B86D401CB865B7F8F9
:101700005E00401EA7F85E003868C069814619F087
:10171000070F3CD019F00100C0B200280BD05FEADF
:10172000CA5008D5012039680862D7F8900050F0F7
:101730000100C7F890005FEA89700DD51BF0010029
:10174000C0B2002808D0022039680862D7F890009B
:1017500050F00400C7F890005FEA49700DD51BF007
:101760000100C0B2002808D0042039680862D7F808
:10177000900050F00200C7F89000D7F890000028C1
:1017800005D0380000F0F9FD0020C7F89000B7F848
:101790005E000028A0D1386850E8000F30F4807057
:1017A00001003A6842E800100028F4D13868083097
:1017B00050E8002FB84802401100386810F10802C4
:1017C00042E800100028F1D12020C7F88C0000204A
:1017D0007867002038673868B04988420ED038688A
:1017E000406800020AD5386850E8000F30F0806089
:1017F00001003A6842E800100028F4D1F86E012890
:1018000019D10020F866386850E8000F30F0100059
:1018100001003A6842E800100028F4D13868C06935
:10182000C00602D5102039680862B7F85C1038008D
:1018300000F0A4FD50E7380002F02EF94CE7B7F8AD
:101840005E000600300080B2002827D03000B7F8D4
:10185000681080B2884221D23868083050E8000F02
:1018600030F080500100386810F1080242E80010A2
:101870000028F1D18A487867386850E8000F50F0A6
:10188000200001003A6842E800100028F4D105E089
:101890003868806950F0080039688861BDE8F18FC8
:1018A0002DE9F84F0600B6F860803068D0F81C903B
:1018B0003068D0F800A03068D0F808B0D6F88C00B6
:1018C000222840F0E180B6F86800ADF80000BDF8CD
:1018D0000000002800F0AF805FEA896040F1AB8033
:1018E0003068406A0400B06D070018EA04003880D0
:1018F000B06D801CB065B6F85E00401EA6F85E00B4
:101900003068C069814619F0070F3CD019F001001A
:10191000C0B200280BD05FEACA5008D50120316858
:101920000862D6F8900050F00100C6F890005FEA17
:1019300089700DD51BF00100C0B2002808D002202C
:1019400031680862D6F8900050F00400C6F89000A4
:101950005FEA49700DD51BF00100C0B2002808D025
:10196000042031680862D6F8900050F00200C6F8F2
:101970009000D6F89000002805D0300000F0FDFC63
:101980000020C6F89000B6F85E0000289FD13068AD
:1019900050E8000F30F480700100326842E8001017
:1019A0000028F4D13068083050E8002F3A4802404F
:1019B0001100306810F1080242E800100028F1D14F
:1019C0002020C6F88C000020706700203067306847
:1019D000324988420ED03068406800020AD530682B
:1019E00050E8000F30F080600100326842E80010DB
:1019F0000028F4D1F06E012819D10020F06630687B
:101A000050E8000F30F010000100326842E800108A
:101A10000028F4D13068C069C00602D510203168B2
:101A20000862B6F85C10300000F0A8FC4FE7300008
:101A300002F032F84BE7B6F85E000500280080B2ED
:101A4000002827D02800B6F8681080B2884221D23A
:101A50003068083050E8000F30F0805001003068E6
:101A600010F1080242E800100028F1D10D4870671B
:101A7000306850E8000F50F020000100326842E862
:101A800000100028F4D105E03068806950F00800AB
:101A900031688861BDE8F18FFEFFFFEF000C005850
:101AA000CD140008BD15000870470268531C036080
:101AB000117070472DE9F843040001F07FFA070028
:101AC000002C01D101202EE294F83500022806D026
:101AD00080206065002084F83400012023E2DFF8D4
:101AE0004C94206848454AD02068DFF84414884266
:101AF00045D02068DFF83C14884240D02068DFF8E9
:101B0000381488423BD02068DFF83014884236D041
:101B10002068DFF82C14884231D02068DFF82414C4
:101B200088422CD02068DFF82014884227D0206813
:101B3000DFF81814884222D02068DFF81414884295
:101B40001DD02068DFF80C14884218D02068DFF818
:101B50000814884213D02068DFF8001488420ED0A1
:101B60002068DFF8FC13884209D02068DFF8F413FE
:101B7000884204D02068DFF8F013884201D10120A8
:101B800000E00020C0B200280ED02068006830F0CD
:101B90001E00216808602068406930F080002168DC
:101BA0004861D4F8008007E02068006830F00E003B
:101BB00021680860D4F800802068484572D0206809
:101BC000DFF86C1388426DD02068DFF86813884214
:101BD00068D02068DFF86013884263D02068DFF89F
:101BE0005C1388425ED02068DFF85413884259D0D5
:101BF0002068DFF85013884254D02068DFF848137B
:101C000088424FD02068DFF8441388424AD02068C9
:101C1000DFF83C13884245D02068DFF8381388424B
:101C200040D02068DFF8301388423BD02068DFF8CE
:101C30002C13884236D02068DFF82413884231D034
:101C40002068DFF8201388422CD02068DFF81813B2
:101C5000884227D02068DFF81413884222D02068F9
:101C6000DFF80C1388421DD02068DFF80813884283
:101C700018D02068DFF80013884213D02068DFF8FE
:101C8000FC1288420ED02068DFF88416884209D002
:101C90002068DFF88016884204D02068DFF87816C4
:101CA000884201D1012000E00020C0B2002805D008
:101CB000206E006830F48070216E0860206848450E
:101CC0003BD020689A49884237D020689949884299
:101CD00033D02068984988422FD02068974988429D
:101CE0002BD020689649884227D0206895498842A1
:101CF00023D02068944988421FD0206893498842A5
:101D00001BD020689249884217D0206891498842A8
:101D100013D02068904988420FD020688F498842AC
:101D20000BD020688E49884207D020688D498842B0
:101D300003D020688C49884206D12068006840089A
:101D400040002168086005E0206800684008400005
:101D500021680860D8F80000C0070ED501F02EF900
:101D6000C01B0628F6D320206065032084F83500C8
:101D7000002084F834000120D5E0206848453BD09D
:101D800020686B49884237D020686A49884233D03E
:101D90002068694988422FD02068684988422BD042
:101DA00020686749884227D020686649884223D046
:101DB0002068654988421FD02068644988421BD04A
:101DC00020686349884217D020686249884213D04E
:101DD0002068614988420FD02068604988420BD052
:101DE00020685F49884207D020685E49884203D056
:101DF00020685D49884201D1012000E00020C0B286
:101E0000002809D0A06D05003F2094F85C1011F067
:101E10001F018840A86008E0A06D0600012094F82A
:101E20005C1011F01F0188407060206848455ED04A
:101E300020683F4988425AD020683E49884256D09F
:101E400020683D49884252D020683C4988424ED0A3
:101E500020683B4988424AD020683A49884246D0A7
:101E600020683949884242D02068384988423ED0AB
:101E70002068374988423AD020683649884236D0AF
:101E800020683549884232D02068344988422ED0B3
:101E90002068334988422AD020683249884226D0B7
:101EA00020683149884222D02068304988421ED0BB
:101EB00020682F4988421AD020682E49884216D0BF
:101EC00020682D49884212D020682C4988420ED0C3
:101ED0002068DFF83C14884209D02068DFF8341409
:101EE000884204D02068DFF83014884201D10120F4
:101EF00000E00020C0B200280ED0A06E616E4860E5
:101F0000E06E002808D0E06E006830F48070E16E6A
:101F10000860606F216F4860012084F83500002060
:101F200084F834000020BDE8F28300001000024075
:101F30002800024040000240580002407000024069
:101F400088000240A0000240B80002401004024095
:101F50002804024040040240580402407004024039
:101F600088040240A0040240B80402400854025809
:101F70001C540258305402584454025858540258C1
:101F800038B50400002C01D10120BFE194F83500E0
:101F9000022803D0802060650120B7E1DFF88013BC
:101FA000206888424AD02068DFF87823904245D0E4
:101FB0002068DFF87423904240D02068DFF86C235B
:101FC00090423BD02068DFF86823904236D02068EA
:101FD000DFF86023904231D02068DFF85C23904224
:101FE0002CD02068DFF85423904227D02068DFF8F7
:101FF0005023904222D02068DFF8482390421DD021
:102000002068DFF84423904218D02068DFF83C2392
:10201000904213D02068DFF8382390420ED0206819
:10202000DFF83023904209D02068DFF82C2390425B
:1020300004D02068DFF8E422904201D1012000E0C2
:102040000020C0B200285DD0042084F8350020684C
:10205000884249D02068DFF8CC12884244D02068FA
:10206000DFF8C41288423FD02068DFF8C0128842EF
:102070003AD02068DFF8B812884235D02068DFF8FF
:10208000B412884230D02068DFF8AC1288422BD0DE
:102090002068DFF8A812884226D02068DFF8A01256
:1020A000884221D02068DFF89C1288421CD020682A
:1020B000DFF89412884217D02068DFF89012884227
:1020C00012D02068DFF8881288420DD02068DFF82F
:1020D0008412884208D02068DFF87C12884203D03E
:1020E00020688E49884206D1206800684008400078
:1020F0002168086009E12068006840084000216804
:10210000086002E12068006830F00E00226810606C
:102110002068884249D02068DFF80822904244D0E5
:102120002068DFF8042290423FD02068DFF8FC21CD
:1021300090423AD02068DFF8F821904235D02068EC
:10214000DFF8F021904230D02068DFF8EC21904297
:102150002BD02068DFF8E421904226D02068DFF8F9
:10216000E021904221D02068DFF8D82190421CD095
:102170002068DFF8D421904217D02068DFF8CC2106
:10218000904212D02068DFF8C82190420DD020681C
:10219000DFF8C021904208D02068DFF8BC219042CF
:1021A00003D020685D4A904206D12068006840084C
:1021B00040002268106005E0206800684008400088
:1021C00022681060206888426FD02068DFF85411C0
:1021D00088426AD02068DFF85011884265D02068B4
:1021E000DFF84811884260D02068DFF84411884247
:1021F0005BD02068DFF83C11884256D02068DFF8B9
:102200003811884251D02068DFF8301188424CD014
:102210002068DFF82C11884247D02068DFF82411AD
:10222000884242D02068DFF8201188423DD02068E3
:10223000DFF81811884238D02068DFF8141188427E
:1022400033D02068DFF80C1188422ED02068DFF8E8
:102250000811884229D020683049884225D020685A
:10226000DFF8F810884220D02068DFF8F4108842A8
:102270001BD02068DFF8EC10884216D02068DFF809
:10228000E810884211D02068DFF8E01088420CD0B6
:1022900020681F49884208D020681E49884204D01F
:1022A0002068DFF8CC10884201D1012000E0002036
:1022B000C0B200281DD0206E006830F48070216EFE
:1022C0000860A06D0500012094F85C1011F01F015A
:1022D00088406860A06E616E4860E06E002808D09B
:1022E000E06E006830F48070E16E0860606F216F0E
:1022F0004860012084F83500002084F83400206D07
:10230000002802D02000216D8847002032BD000047
:102310006C5402588054025894540258B804024035
:1023200010000240280002404000024058000240D5
:102330007000024088000240A0000240B800024045
:1023400010040240280402404004024058040240A5
:102350007004024088040240A0040240085402585D
:102360001C540258305402584454025858540258CD
:102370009454025890F83500704770477047704782
:102380007047704780B500F0B9FDDFF87814DFF8CA
:1023900078241268C2F30212895C11F01F01C84050
:1023A00002BD000030B485490A6812F003020968D2
:1023B000C1F30531824B1B68C3F30013DFF84C44B3
:1023C0002468C4F3CC0404FB03F401EE104AB8EE15
:1023D000411A002900F0EA80002A03D0022A70D0B6
:1023E0004FD38EE0DFF804442568AD0629D5DFF829
:1023F00000542468C4F3C104E54001EE905AB0EEE5
:10240000610AF8EE401A02EE101AB8EE422AC1EE46
:10241000821ADFF8FC432468E405E40D02EE104A5A
:10242000B8EE422ADFED672AC1EE222A32EE222AD6
:10243000F7EE002A32EE222A61EE821AF0EE610AED
:102440001EE001EE901AF8EE611A9FED5F2AC2EECF
:10245000211ADFF8BC432468E405E40D02EE104ABB
:10246000B8EE422ADFED572AC1EE222A32EE222AA6
:10247000F7EE002A32EE222A61EE821AF0EE610AAD
:102480005EE001EE901AF8EE611A9FED502AC2EE5E
:10249000211ADFF87C432468E405E40D02EE104ABB
:1024A000B8EE422ADFED472AC1EE222A32EE222A76
:1024B000F7EE002A32EE222A61EE821AF0EE610A6D
:1024C0003EE001EE901AF8EE611A9FED412AC2EE4D
:1024D000211ADFF83C432468E405E40D02EE104ABB
:1024E000B8EE422ADFED372AC1EE222A32EE222A46
:1024F000F7EE002A32EE222A61EE821AF0EE610A2D
:102500001EE001EE901AF8EE611A9FED302AC2EE3D
:10251000211ADFF8FC422468E405E40D02EE104ABB
:10252000B8EE422ADFED272AC1EE222A32EE222A15
:10253000F7EE002A32EE222A61EE821AF0EE610AEC
:10254000DFF8CC422568C5F3462501EE905AF8EE37
:10255000611AB7EE002A71EE821AC0EEA11AFCEEE3
:10256000E11AC0ED001A2568C5F3064501EE905A40
:10257000F8EE611AB7EE002A71EE821AC0EEA11AC7
:10258000FCEEE11AC0ED011A2468C4F3066401EE02
:10259000904AF8EE611AB7EE002A71EE821AC0EE88
:1025A000A11AFCEEE11AC0ED021A05E00024046055
:1025B000002444600024846030BC704728440258E2
:1025C0002C440258000000460024744C0024744A35
:1025D00020BCBE4B30B4DFF83C120A6812F0030294
:1025E0000968C1F30551DFF830321B68C3F30023DB
:1025F000DFF828422468C4F3CC0404FB03F401EEA2
:10260000104AB8EE411A002900F0E880002A03D0F1
:10261000022A6ED04DD38CE0744C2568AD0628D5C7
:10262000734D2468C4F3C104E54001EE905AB0EE46
:10263000610AF8EE401A02EE101AB8EE422AC1EE14
:10264000821ADFF8DC412468E405E40D02EE104A4A
:10265000B8EE422ADFED672AC1EE222A32EE222AA4
:10266000F7EE002A32EE222A61EE821AF0EE610ABB
:102670001EE001EE901AF8EE611A9FED5F2AC2EE9D
:10268000211ADFF89C412468E405E40D02EE104AAB
:10269000B8EE422ADFED572AC1EE222A32EE222A74
:1026A000F7EE002A32EE222A61EE821AF0EE610A7B
:1026B0005EE001EE901AF8EE611A9FED502AC2EE2C
:1026C000211ADFF85C412468E405E40D02EE104AAB
:1026D000B8EE422ADFED472AC1EE222A32EE222A44
:1026E000F7EE002A32EE222A61EE821AF0EE610A3B
:1026F0003EE001EE901AF8EE611A9FED412AC2EE1B
:10270000211ADFF81C412468E405E40D02EE104AAA
:10271000B8EE422ADFED372AC1EE222A32EE222A13
:10272000F7EE002A32EE222A61EE821AF0EE610AFA
:102730001EE001EE901AF8EE611A9FED302AC2EE0B
:10274000211ADFF8DC402468E405E40D02EE104AAB
:10275000B8EE422ADFED272AC1EE222A32EE222AE3
:10276000F7EE002A32EE222A61EE821AF0EE610ABA
:10277000DFF8AC402568C5F3462501EE905AF8EE27
:10278000611AB7EE002A71EE821AC0EEA11AFCEEB1
:10279000E11AC0ED001A2568C5F3064501EE905A0E
:1027A000F8EE611AB7EE002A71EE821AC0EEA11A95
:1027B000FCEEE11AC0ED011A2468C4F3066401EED0
:1027C000904AF8EE611AB7EE002A71EE821AC0EE56
:1027D000A11AFCEEE11AC0ED021A05E00024046023
:1027E000002444600024846030BC704700440258D8
:1027F0000090D003000000460024744C0024744A6A
:1028000020BCBE4BDC8B0008204402583C440258DC
:1028100038440258284402582C4402584444025870
:1028200040440258BBBBE1B1B2F5803F80F07E80EE
:10283000022A1ED98C46B1FBF2F102FB11C31B0424
:1028400043EA1043B3FBF2FC02FB1C3380B240EAC4
:102850000343B3FBF2F002FB103240EA0C400023CA
:102860007047022A05D98446B0FBF2F002FB10C281
:1028700070474AB105D100F0010249085FEA300013
:10288000704700220023704701F020BE0B000200B9
:10289000002100207047904271EB030CF6D3B3F592
:1028A000803F2FD2F0B5B3FA83F7B1FA81F4A7F1E4
:1028B0000F0E3D1B5340CEF1200602FA0EF2F341FB
:1028C0005340B5F10F0746D80F3C2C444140C4F1AA
:1028D0002006A040F1414140B1FBF3F603FB161185
:1028E000A2FB0645001BA94102D2761E8018594161
:1028F00080EA010221FA0EF362FA0EF200215A4038
:102900003046F0BD30B4B1FBF3FC03FB1C11A2FB5D
:102910000C45001BA94103D2ACF1010C80185941B0
:1029200030BC02460B46604600217047B2F1807F02
:1029300065D3F0B5B2FA82F7B1FA81F4C7F10F06A8
:102940003D1B22FA06F307F1110EF24120355A40E1
:10295000B5F10F07B8D94140C4F12006A040F141BC
:102960004140B1FBF3FC03FB1C11A2FB0C45001B17
:10297000A94103D2BCF1010C801859410F2F12D389
:102980000F3FC90341EA5041B1FBF3F603FB1611B7
:10299000A2FB0645D4EBC030A94102D2761E8018B6
:1029A000594146EACC3C07B34140C7F12006B84044
:1029B000F1414140B1FBF3F603FB1611A2FB0645C2
:1029C000001BA94102D2761E8018594180EA0102FB
:1029D00021FA0EF3C7F1200462FA0EF20CFA07F0A6
:1029E0005A402CFA04F13043F0BD80EA010221FA8A
:1029F0000EF3002162FA0EF260465A40F0BD8C469A
:102A0000B1FBF2F102FB11C31B0243EA1063B3FBFB
:102A1000F2FC02FB1C331B024CEA002043EA106369
:102A2000B3FBF2FC02FB1C331B024CEA002043EA1E
:102A30001063B3FBF2FC02FB1C331B024CEA0020C8
:102A400043EA1063B3FBF2FC02FB1C324CEA0020A9
:102A5000002370472DE9F04104000D00002C01D146
:102A600001203DE1DFF81075386810F00F00A84232
:102A70000BD238680009000128433860386810F02C
:102A80000F00A84201D001202AE1207840070DD58F
:102A9000DFF80015086810F070002269904205D236
:102AA0000A6832F07002206902430A602078000749
:102AB0000DD5DFF8E414086810F0700062699042E8
:102AC00005D20A6832F07002606902430A60207819
:102AD000C0060DD5DFF8C014086810F4E060A269E4
:102AE000904205D20A6832F4E062A06902430A60AB
:102AF000207880060DD5DFF8A414086810F0700067
:102B0000E269904205D20A6832F07002E06902433D
:102B10000A60207880070DD5DFF87814086810F077
:102B20000F00E268904205D20A6812091201E068BB
:102B300002430A602078C0074AD5DFF858140A68B3
:102B400032F47062A06802430A606068022806D10D
:102B5000DFF82804006880031CD40120C0E060680E
:102B6000032806D1DFF814040068800112D4012084
:102B7000B6E06068012806D1DFF800040068C005EF
:102B800008D40120ACE0DFF8F4030068400701D46A
:102B90000120A5E0DFF8E883D8F80010C908C900D3
:102BA00060680143C8F8001000F008FA0600D8F881
:102BB000000010F038006168B0EBC10F08D000F0E1
:102BC000FDF9801B41F289318842F0D3032087E070
:102BD000207880070DD5DFF8BC13E0680A6812F092
:102BE0000F02904205D20A6812091201E0680243FE
:102BF0000A60386810F00F0085420BD2386800096F
:102C0000000128433860386810F00F00A84201D056
:102C1000012065E0207840070DD5DFF878132069A2
:102C20000A6812F07002904205D20A6832F070020F
:102C3000206902430A60207800070DD5DFF8581399
:102C400060690A6812F07002904205D20A6832F098
:102C50007002606902430A602078C0060DD5DFF873
:102C60003813A0690A6812F4E062904205D20A683B
:102C700032F4E062A06902430A60207880060DD534
:102C8000DFF81813E0690A6812F07002904205D26A
:102C90000A6832F07002E06902430A6000F022F82C
:102CA0000700DFF80C13DFF8EC020268C2F303221E
:102CB0008A5C12F01F02D740006810F00F00085C19
:102CC00010F01F003900C140DFF8C0020160DFF8DA
:102CD000B8020760DFF8B802006801F0F9FBC0B283
:102CE000BDE8F08110B4DFF89802006810F03800F9
:102CF000002806D0082813D0102814D0182815D082
:102D0000F9E0DFF878422068800606D5DFF8740223
:102D10002468C4F3C104E04001E0DFF86802EBE09E
:102D2000DFF89002E8E0DFF89002E5E0DFF87002FB
:102D3000046814F0030422000068C0F305100100C9
:102D4000DFF86002006810F001000300DFF85C02A9
:102D50000068C0F3CC0000FB03F002EE100AB8EEEE
:102D6000422AB0EE421A002900F0C380002A03D0A4
:102D7000022A6FD04FD38CE0DFF800020468A4066B
:102D800029D5DFF800420068C0F3C100C44002EE5C
:102D9000104AF0EE420AB8EE602A02EE901AF8EEFF
:102DA000622A82EE222ADFF800020068C005C00D08
:102DB00002EE900AF8EE622A9FED6B3A81EE033A3A
:102DC00072EE832AB7EE003A72EE832A22EE222AAE
:102DD000F0EE421A1EE002EE101AB8EE422ADFEDC3
:102DE000632A82EE822ADFF8C0010068C005C00DA8
:102DF00002EE900AF8EE622A9FED5B3A81EE033A0A
:102E000072EE832AB7EE003A72EE832A22EE222A6D
:102E1000F0EE421A5BE002EE101AB8EE422ADFED45
:102E2000542A82EE822A60480068C005C00D02EE76
:102E3000900AF8EE622A9FED4C3A81EE033A72EE68
:102E4000832AB7EE003A72EE832A22EE222AF0EEAF
:102E5000421A3CE002EE101AB8EE422ADFED452A93
:102E600082EE822A50480068C005C00D02EE900A2A
:102E7000F8EE622A9FED3C3A81EE033A72EE832A25
:102E8000B7EE003A72EE832A22EE222AF0EE421AC0
:102E90001DE002EE101AB8EE422ADFED352A82EE6E
:102EA000822A41480068C005C00D02EE900AF8EE83
:102EB000622A9FED2D3A81EE033A72EE832AB7EE35
:102EC000003A72EE832A22EE222AF0EE421A3648A7
:102ED0000068C0F34620401C02EE100AB0EE420A21
:102EE000B8EE402A81EE822ABCEEC22A12EE100A07
:102EF00000E0002000E02F4810BC704780B5FFF7CD
:102F0000F1FE010023482A4A0368C3F30323D35C7C
:102F100013F01F03D9401D4B006810F00F00105C28
:102F200010F01F000A00C2401A60174801601868BC
:102F300002BD80B5FFF7E2FF1D49174A1268C2F3D0
:102F40000212895C11F01F01C84002BD80B5FFF775
:102F5000D5FF1749104A1268C2F30222895C11F0AA
:102F60001F01C84002BD0000000000460024744C50
:102F70000024744A20BCBE4B00200052004402587A
:102F8000104402580090D0031000002014000020CC
:102F90000C000020184402581C44025820440258D7
:102FA000284402582C4402583044025834440258F1
:102FB000DC8B000800093D0040787D010148006875
:102FC000704700BF000700202DE9F84F01F0C0F85E
:102FD00001F0AAFA00F0CCFF01F01FF801F0E8F8C8
:102FE00001F05FF901F0DEF9DFF8B40C00F047F909
:102FF0000121DFF8AC0C00F031FCFFF773FEDFF8C5
:10300000381B0860DFF89C0CDFF8301B0160DFF82C
:10301000301B4160DFF82C1B4161DFF82C1B816104
:10302000DFF8281BC161002181600021C160002000
:10303000DFF8E81B0860DFF8181B0860DFF8144BA6
:103040002060DFF8141B0860DFF8080C0021016025
:103050000068DFF8041C08600020DFF8501C0860DE
:103060000020DFF8F81B08600020DFF8441C08602F
:103070000420DFF8401C08700120DFF8781B08608E
:10308000DFF8805B01222900DFF8B40BFDF79DF922
:10309000DFF8786B3068642857DB2068012854DB40
:1030A000280001F07BFA284410F8010C0A2806D108
:1030B000280001F073FA2844002100F8011CDFF811
:1030C000A07B2900380001F085FA2900DFF8940B75
:1030D00001F080FADFF8908BDFF8909BDFF890AB7F
:1030E000DFF890BBCDF800B053464A46DFF8C81B66
:1030F00000F0DCF8C8F80000380001F04FFA0200D8
:1031000092B23900DFF8380BFDF705F9D8F8000066
:1031100000280FD1DFF8887B9BED000ADAF8003039
:10312000D9F800203900280000F068F900213800A3
:1031300000F094FB002030600020206000200A286E
:1031400003DA00212954401CF9E720680A282FDB04
:10315000DFF8686B280000F0DFFB30603068002883
:1031600012D1DFF8FC6A2A00DFF8541B300001F0AE
:103170003DFA300001F012FA020092B23100DFF89D
:10318000C00AFDF7C8F811E0DFF8D46A2A00DFF8BA
:10319000341B300001F02AFA01223100DFF8A00AC6
:1031A000FDF7B9F80120DFF8741A086000202060EC
:1031B000DFF8146B306873280CD1DFF8107B387897
:1031C000002807D101220121DFF8040B01F050FB98
:1031D00001203870706873280CD1DFF8F07A7878A5
:1031E000002807D101220221DFF8E80A01F040FBA4
:1031F00001207870B06873280DD1DFF8D07AB878E4
:10320000002808D101224FF48041DFF8C40A01F000
:103210002FFB0120B870306878280CD1DFF8AC7A29
:103220003878012807D100220121DFF8A40A01F033
:103230001FFB00203870706878280CD1DFF88C7A7A
:103240007878012807D100220221DFF8880A01F0EE
:103250000FFB00207870B06878287FF419AFDFF892
:103260006C6AB07801287FF413AF00224FF48041DC
:10327000DFF85C0A01F0FCFA0020B07008E73321A7
:103280000170342180F88010352180F8001136213A
:1032900080F8801100214170002180F88110002108
:1032A00080F80111002180F8811170472DE9F84F55
:1032B00086B004000D0016001F00DDF840805FF0AE
:1032C000000A5FF00009207858280DD1200001F095
:1032D00065F9022806D36078522803D10120DFF86F
:1032E000CC190860504685E02078472801D1504627
:1032F00080E0200001F052F9022801D2012079E09B
:10330000207846282BD02078522828D020784C28A6
:1033100025D02078422822D0207858281FD0207825
:103320005A281CD02078432819D02078592816D044
:1033300020784A2813D02078552810D020784828A3
:103340000DD020784E280AD020784D2807D020783C
:10335000512804D02078452801D001204AE00122DC
:10336000611C03A801F0C0FA00208DF80D0003A82D
:1033700001F092FB3060002801D101203AE0207872
:10338000512802D02078452833D1200001F006F9D9
:10339000062801D201202DE00222A11C684601F07E
:1033A000A3FAEB4600208BF80200684601F074FB9C
:1033B0008146002801D101201CE01E2000FB09F0FD
:1033C00038600222211D684601F08EFA00208BF839
:1033D0000200684601F0C2FCB7EEC00B88ED000A9F
:1033E00098ED000AB5EE400AF1EE10FA01D1012085
:1033F00000E0504607B0BDE8F08F00002DE9F04135
:103400002DED028B04000D0016001F00B0EE408A67
:103410000A2000FB06F05B2190FBF1F801FB180885
:10342000207847280DD100F0B5FA00206870002000
:1034300085F88100002085F80101002085F88101D0
:1034400046E1207846280DD185F80180FF2000FB59
:1034500008F085F88100FF2000FB08F085F80101E5
:1034600085F88181207842280CD1FF2000FB08F0EC
:10347000687085F8818085F80181FF2000FB08F0E5
:1034800085F8810120784C2812D1FF2000FB08F03C
:103490006870FF2000FB08F085F88100FF2000FB2A
:1034A00008F085F80101FF2000FB08F085F8810194
:1034B0002078522807D185F8018085F8818085F829
:1034C000018185F8818120785A280DD185F8018005
:1034D000FF2000FB08F085F8810085F80181FF20BE
:1034E00000FB08F085F88101207843280CD1FF20EB
:1034F00000FB08F0687085F88180FF2000FB08F071
:1035000085F8010185F88181207859280ED10020A5
:103510006870FF2000FB08F085F88100FF2000FBA9
:1035200008F085F80101002085F8810120785528F0
:1035300009D185F80180002085F88100002085F8F8
:10354000010185F8818120784A2808D1002068701F
:1035500085F8818085F80181002085F88101207837
:1035600048280ED1FF2000FB08F06870002085F885
:103570008100002085F80101FF2000FB08F085F89C
:10358000810120784E282DD100EE108AB8EEC00BB4
:1035900001EE108AB8EEC11B9FEDAC3B01EE030BB0
:1035A000BDEEC00B10EE100A68705FF0FF3000FB3C
:1035B00008F000EE100AB8EEC00B01EE108AB8EE6B
:1035C000C11B9FEDA43B01EE030BBDEEC00B10EE43
:1035D000100A85F88100FF2000FB08F085F8010142
:1035E00085F8818120784D282ED185F80180FF2033
:1035F00000FB08F085F881005FF0FF3000FB08F069
:1036000000EE100AB8EEC00B01EE108AB8EEC11B36
:103610009FED903B01EE030BBDEEC00B10EE100AC8
:1036200085F8010100EE108AB8EEC00B01EE108A99
:10363000B8EEC11B9FED853B01EE030BBDEEC00B49
:1036400010EE100A85F88101207858280AD1002050
:103650006870002085F88100002085F801010020B5
:1036600085F881012078512817D1B2EE040A88EE3E
:10367000008A0022B0EE480A390000EE908AF8EE87
:10368000E00ADFF8200690ED071A60EE810AFDEEF1
:10369000E00A10EE900A00F01FF82078452817D1B4
:1036A000B2EE040A88EE008A0122B0EE480A390020
:1036B00000EE908AF8EEE00ADFF8E80590ED071AD0
:1036C00060EE810AFDEEE00A10EE900A00F004F8C8
:1036D000BDEC028BBDE8F0812DE9F8432DED0A8B9E
:1036E00084B006000D00B0EE408A1400B52D02DB58
:1036F0007642B1EE488A002C00D07642DFEDA48AF3
:1037000000EE106AB8EEC09B00EE105AB8EEC00A88
:1037100020EE280AB7EEC00A01F08EFC29EE000B5D
:10372000B7EEC09B00EE106AB8EEC0AB00EE105AC8
:10373000B8EEC00A20EE280AB7EEC00A01F07EFCFF
:103740002AEE000BF7EEC09BDFF8588598ED000AD3
:10375000F0EE000A80EE200AD8ED010AB0EE001A61
:10376000C0EE810A30EE200A20EE08AA39EEC90A1E
:1037700070EE0AAA39EE890A30EE4ABA39EEC90A61
:1037800070EE4ABA39EE890A30EE0ACA8DED00CAE7
:103790006F46B1EE6A0A87ED010AB1EE6B0A87ED5A
:1037A000020A87ED03BA5FF00009B9F1040F07DAE6
:1037B000684600EB890000F033F819F10109F4E7DD
:1037C00000EE106AB8EEC00A88ED020AC8F80C5084
:1037D00088ED048ADFF8C8049DED000ABDEEC00A3A
:1037E00010EE101A417097ED010ABDEEC00A10EEFE
:1037F000101A80F8811097ED020ABDEEC00A10EE93
:10380000101A80F8011197ED030ABDEEC00A10EE00
:10381000101A80F8811104B0BDEC0A8BBDE8F18369
:1038200090ED000AB7EEC00A9FED992B80EE020BD7
:10383000B7EEC00B80ED000A90ED000ABDEEC00AA5
:10384000B8EEC00A80ED000A704700009A99999975
:103850009999C93F9A9999999999C9BF7CB50500D9
:103860000C00002C02D02800FFF709FD28788DF805
:1038700000006E466878707095F88100B07095F819
:103880000101F07095F88101307108236A466821C2
:10389000DFF8080B01F03AFCDFF810140868002884
:1038A00009D00020DFF8B02310600020DFF8A42347
:1038B00010600020086070785B2807DBF0785B28D8
:1038C00004DB0320DFF8EC13087024E07078002894
:1038D00007D0F0785B2804DB0020DFF8D8130870ED
:1038E00019E070785B2807DBF078002804D002200C
:1038F000DFF8C01308700EE07078002807D0F07869
:10390000002804D00120DFF8AC13087003E0042085
:10391000DFF8A013087076BD70B50400DFF89C5383
:103920000020286020784C2803D0012028602868D7
:103930002CE0DFF80C6B601C01F0AEF830603068F2
:10394000012802DB3068042803DB01202860286896
:103950001CE0A07873280CD0A0786C2809D0A0783F
:10396000682806D0A078782803D00120286028682D
:103970000CE0DFF8D00AA17801600068DFF8481396
:10398000326801EB820141F8040C286870BD000028
:1039900035FA8E3CF8B5B14C01202060AE4D286858
:1039A000012818DBBE4E9FEDA10A00230222310040
:1039B00095A0FFF723FD00213000FFF74FFF286897
:1039C000012803DBBA4800680028F8D00121300044
:1039D000FFF744FF1AE02868002817D5B04E9FED86
:1039E000930A00230222310094A0FFF707FD002173
:1039F0003000FFF733FF2868002803D5AC48006883
:103A00000028F8D001213000FFF728FF914E3068E0
:103A1000012818DBA24F9FED850A002302223900FE
:103A20008BA0FFF7EBFC00213800FFF717FF306891
:103A3000012803DB9E4800680028F8D001213800E7
:103A4000FFF70CFF1AE03068002817D5944F9FED60
:103A5000770A00230222390093A0FFF7CFFC002150
:103A60003800FFF7FBFE3068002803D59048006857
:103A70000028F8D001213800FFF7F0FE0020286070
:103A80000020306000202060002089490860F1BDDE
:103A900000000000008015401CB5040000208DF8D7
:103AA00000002068DFF8A019884215D1DFF89C09D2
:103AB00000688DF8000027480168802907DA9DF822
:103AC0000010504A0368D1540168491C016001226A
:103AD00069462000FCF779FC2068DFF874198842F9
:103AE00029D1012269462000FCF76FFCDFF8640948
:103AF00000688DF800005948006800280BD09DF838
:103B00000000472806D09DF800000A2802D00120B6
:103B1000674908600FE00F48016880290BDA9DF8BB
:103B20000010384A0368D1540168491C0160002024
:103B3000DFF82419086013BDB806002000004143D7
:103B400000005B430000C0420020B4450000AC40D0
:103B5000A00600209C060020A80600201CB504003A
:103B600000208DF800002068DFF8DC1888421AD1A8
:103B7000DFF8E80829490A6803689A420DDA3848EC
:103B80000A68805C8DF800000868401C086001220B
:103B900069462000FCF7BFFB05E00A680068824226
:103BA00001DB002008602068DFF8A41888421AD1E1
:103BB000DFF8A80819490A6803689A420DDA28480C
:103BC0000A68805C8DF800000868401C08600122CB
:103BD00069462000FCF79FFB05E00A680068824206
:103BE00001DB0020086013BD80B5DFF87408FCF726
:103BF00025FC01BDFC06002080B5DFF86808FCF755
:103C00001DFC01BDC403002042320000CC06002090
:103C100080B5DFF8540802F0BDFB01BDA40600200A
:103C200080B5DFF8480802F0B5FB01BD00000000D8
:103C300080B5DFF83C0802F0ADFB01BD4632000064
:103C40003003002080B5DFF82C0801F0B3FA01BD85
:103C50004C320000EC060020E8060020F8060020A8
:103C600044040020C4040020C8060020D40600201C
:103C7000DC060020D806002080B5082000F005FEF4
:103C800001BD80B5102000F000FE01BD0168DFF825
:103C9000E827914203D10121DFF8E0271160704746
:103CA0009C0000207C06002052320000F00600201C
:103CB000F406002008070020D0060020AC060020F3
:103CC000088C0008FC8B000800000020C4060020BF
:103CD0000004025800100258F8B504002068B0F142
:103CE000804F7AD1DFF8985728686C2805D068682B
:103CF0006C2802D0A8686C286FD1DFF88867002094
:103D0000306028686C280ED1DFF87C77387800287E
:103D100009D101220121DFF8740700F0A9FD01207B
:103D200038700120306068686C280ED1DFF8587751
:103D30007878002809D101220221DFF8540700F029
:103D400097FD0120787001203060A8686C280FD1A1
:103D5000DFF83477B87800280AD101224FF4804187
:103D6000DFF8280700F084FD0120B87001203060E2
:103D70003068012800F0C48028686C280CD1DFF876
:103D800008673078012807D100220121DFF8FC06FE
:103D900000F06EFD0020307068686C280CD1DFF8F0
:103DA000E8667078012807D100220221DFF8E006DA
:103DB00000F05EFD00207070A8686C280DD1DFF85F
:103DC000C856A878012808D100224FF48041DFF8B6
:103DD000BC0600F04DFD0020A8702068DFF8B41686
:103DE000884279D1DFF898562868682805D0686835
:103DF000682802D0A86868286ED1DFF89C66002089
:103E00003060286868280ED1DFF87C763878002882
:103E100009D101220121DFF8740600F029FD0120FB
:103E2000387001203060686868280ED1DFF8587655
:103E30007878002809D101220221DFF8540600F029
:103E400017FD0120787001203060A86868280FD124
:103E5000DFF83476B87800280AD101224FF4804187
:103E6000DFF8280600F004FD0120B8700120306062
:103E70003068012844D0286868280CD1DFF808662B
:103E80003078012807D100220121DFF8000600F078
:103E9000EFFC00203070686868280CD1DFF8E86516
:103EA0007078012807D100220221DFF8E40500F034
:103EB000DFFC00207070A86868280DD1DFF8C855B5
:103EC000A878012808D100224FF48041DFF8BC0512
:103ED00000F0CEFC0020A8702068DFF8C0158842F2
:103EE0000ED1DFF8BC050168491C0160DFF86805E8
:103EF0000168491C0160DFF8AC050168491C0160DC
:103F0000F1BD10B50400200080B208282FD1210097
:103F100089B2DFF8940500F0A0FC012827D1DFF872
:103F20008C150878042822D00878002805D1DFF8FD
:103F300070040168491C016019E00878022805D165
:103F4000DFF85C040168491E016010E00878012870
:103F500005D1DFF85C050168491C016007E00878BD
:103F6000032804D1DFF848050168491E016010BD2F
:103F700010B59CB04C21002209AC200002F048FB97
:103F80002021002201AC200002F042FB022002F0BE
:103F900073FB00200090DFF81C0501684908490008
:103FA0000160006810F001000090DFF80C050121AD
:103FB000026861F38F320260016811F440410091A0
:103FC000009901688904FCD50220099001200C9019
:103FD00040200D900020129009A802F079FB0028E3
:103FE00001D000F071FA3F200190002002900020E3
:103FF00003900020049000200590002006900020EF
:10400000079000200890012101A8FEF723FD002859
:1040100001D000F059FA1CB010BD38B586B014219B
:1040200000226C46200002F0F3FADFF890040168E9
:1040300051F002010160016811F00201059105993A
:10404000016851F008010160016811F00801059153
:104050000599016851F010010160016811F010012B
:1040600005910599016851F001010160016811F0A5
:10407000010105910599016851F004010160006892
:1040800010F0040005900598DFF8004400224FF47A
:104090008041200000F0ECFB4FF4804000900120B4
:1040A000019002200290002003906946200000F059
:1040B000BDFADFF8DC5300220221280000F0D8FB13
:1040C0000220009001200190022002900020039025
:1040D0006946280000F0AAFA00220121200000F021
:1040E000C7FB0120009001200190022002900020D7
:1040F00003906946200000F099FA082000905FF4D0
:10410000881401940220029003200390E64D694632
:10411000280000F08BFA00220221092002F0D3FED1
:10412000092002F0E2FE102000900194022002908B
:10413000032003906946280000F078FA002202214B
:104140000A2002F0C0FE0A2002F0CFFE07B030BD08
:104150001FB5102100226C46200002F059FA02F02F
:10416000D1FE01208DF8000000208DF80100002014
:1041700001901F208DF8080087208DF8090000208D
:104180008DF80A0000208DF80B0001208DF80C003E
:1041900001208DF80D0000208DF80E0000208DF814
:1041A0000F00684602F0C7FE042002F0B6FE1FBDF5
:1041B00070B586B0C248016851F4003101600168F1
:1041C00011F4003105910599016851F480210160D5
:1041D000006810F4802005900598142100226C4698
:1041E000200002F015FA60200090022001900120CA
:1041F00002900320039007200490AB4E69463000E4
:1042000000F014FA964C904820605FF4E135656048
:104210000020A0600020E060002020610C20606190
:104220000020A0610020E0614FF440700090022067
:10423000019001200290032003900720049069461A
:10424000300000F0F3F9874E81483060756000203F
:10425000B0600020F060002030610C207061002010
:10426000B0610020F06100220121262002F02BFE27
:10427000262002F03AFE00220121272002F023FE30
:10428000272002F032FE2000FCF706F8002800D0BC
:10429000FEE73000FCF700F8002800D0FEE706B08B
:1042A00070BD7CB58648016851F00101016001686C
:1042B00011F0010100910099016851F002010160C3
:1042C000016811F0020100910099016851F00401A8
:1042D0000160006810F0040000900098624C5FF0EC
:1042E0008040206041F6FF0060600021A16042F242
:1042F0000F71E160002121610021A1615B4D6549E1
:10430000296068600021A96041F28731E9600021DD
:1043100029610021A961564E60493160706000201A
:10432000B0600A20F060002030610020B061200001
:1043300001F092FF002801D000F0C6F8280001F03B
:104340008BFF002801D000F0BFF8300001F084FF9F
:10435000002801D000F0B8F8002203211C2002F050
:10436000B2FD1C2002F0C1FD002202211D2002F03E
:10437000AAFD1D2002F0B9FD002200211E2002F03E
:10438000A2FD1E2002F0B1FD200001F0A2FF2800D6
:1043900001F09FFF300001F09CFF73BD4405002039
:1043A000E806002010B586B04548016851F40011B8
:1043B0000160006810F400100090009814210022A1
:1043C00001AC200002F024F94FF44070019012205B
:1043D000029001200390032004900420059001A97D
:1043E0002A4800F023F9234C2348206035486060B8
:1043F0000020A0600120E0600020206100206061BA
:104400000020A0610020E06100202062200000F078
:1044100017FE2068006850F0420021680860002202
:1044200000211F2002F04FFD1F2002F05EFD200042
:1044300000F006FE002800D0FEE706B010BD000028
:10444000B0060020B4060020004400402444004090
:104450000048004024480040CC060020A006002070
:104460009C0200203003002098050020E405002075
:10447000300600204405002000540040E4060020DF
:1044800000000020BC060020C406002000040258E2
:104490000010025800040040C00600200008004040
:1044A000A8060020E0060020000C025808070020A3
:1044B000EC0600202C04005818480258E04402582A
:1044C000E84402586C21C00072B6FEE770472E0027
:1044D00010B5040011490878002801D101201BE023
:1044E0004FF47A700978B0FBF1F00D490968B1FB1F
:1044F000F0F002F001FD002801D001200CE0102CAA
:1045000009D2002221005FF0FF3002F0DCFC0548F8
:104510000460002000E0012010BD00BF98000020D2
:10452000100000200C00002010B5032002F0C5FC94
:10453000FEF7D8FB0400DFF85000DFF850100268E7
:10454000C2F303228A5C12F01F02D440006810F00C
:104550000F00085C10F01F002100C140DFF83000A0
:104560000160DFF8300004600F20FFF7B1FF002882
:1045700001D0012002E002F025FD002010BDDFF88F
:1045800018000068000C704718440258DC8B0008C3
:1045900014000020100000200010005C00F1010356
:1045A000810704D010F8011B820781B1FAD102689B
:1045B000A2F10131914311F0803104BF50F8042F72
:1045C000F6E709BAB1FA81F100EBD100401CC01A3C
:1045D000704743005FEA000C11F8012B00F8012B33
:1045E00012B111F8012BF9E7604670470CB430B5F1
:1045F00083B00A4606A9029104460025019400955D
:1046000002AB01A9084878441E3002F0EBFC019A85
:10461000157000284EBF04460198041B204603B0C5
:1046200030BC5DF80CFB00BF83D4FFFFF8B503007E
:104630000025DFF878620868E840002800F00C8167
:104640000127D1F800C017FA05F010EA0C0C6246F9
:10465000002A00F0FF80087910F00300012804D040
:10466000087910F0030002281FD1D3F808C05FF0CA
:10467000030E2800C0B240001EFA00FE3CEA0E0CF9
:10468000D1F80CE02800C0B240001EFA00FE5EEA3D
:104690000C0CC3F808C05868AF40B8434F68C7F364
:1046A0000017AF40384304005C60087910F0030045
:1046B000032814D0DF685FF0030C2800C0B240006C
:1046C0001CFA00FC37EA0C07D1F808C02800C0B279
:1046D00040001CFA00FC5CEA07073C00DC6008793B
:1046E00010F0030002281ED12800C00803EB800050
:1046F000076A5FF00F0C15F00700C0B280001CFACB
:1047000000FC37EA0C07D1F810C015F00700C0B262
:1047100080001CFA00FC5CEA07073C002800C00887
:1047200003EB800004621F685FF0030C2800C0B236
:1047300040001CFA00FC37EA0C0791F804C01CF09A
:10474000030C2800C0B240001CFA00FC5CEA07071A
:104750003C001C60486810F4403F7BD0DFF85001FB
:10476000076857F002070760006810F00200009029
:104770000098DFF840C1280080085CF820705FF0E6
:104780000F0E15F00300C0B280001EFA00FE37EADB
:104790000E07DFF82401834201D100242DE04748B1
:1047A000834201D1012428E04548834201D10224FB
:1047B00023E04448834201D103241EE0424883425F
:1047C00001D1042419E04148834201D1052414E0B9
:1047D0003F48834201D106240FE03E48834201D185
:1047E00007240AE03C48834201D1082405E03B4805
:1047F000834201D1092400E00A2415F00300C0B26D
:10480000800084402743280080084CF820705FF027
:10481000B04420689043D1F804C05FEACC2C00D5A6
:10482000104320602E4F3C689443D1F804C05FEAE7
:104830008C2C00D514433C60706890434F68BF03D4
:1048400000D510437060346894434F68FF0300D56F
:10485000144334606D1CEEE6F1BD020010690B00DC
:104860009BB2184201D0012000E00020C0B2704786
:104870001300DBB2002B03D00B009BB2836103E07B
:104880000B009BB21B048361704710B504001548F0
:104890000168220092B2114206D0210089B2016063
:1048A000200080B2FFF72DFB10BD000080000058F3
:1048B000F44402580804005800000258000402584A
:1048C00000080258000C0258001002580014025848
:1048D00000180258001C02580020025800240258F8
:1048E000040000588800005801B58B071AD18307CF
:1048F00024D1121F21D351F8043BA3F1013C2CEA2F
:10490000030C1CF0803C04BF40F8043BF1E79CFA28
:104910008CFCBCFA8CF1C1F118018B40CB4040F803
:10492000043B13E0042A09D311F8013B521E00F89E
:10493000013B5BB18B07F7D1D9E7121D5AB111F8D2
:10494000013B521E00F8013B03B1F8D111001CBF1E
:10495000002201F061FE01BD2DE9F84F84B00E4642
:1049600017460BB100221A600446A04601E008F188
:10497000010898F8000003F0CCFA0028F7D198F865
:1049800000002D2816BF2B2818F8015B2B25002FBF
:10499000019603D4012F01D0252F03DB002E55D023
:1049A000346053E0002F0CDD102F04BF98F8000096
:1049B000302802BF98F8010040F02000782811D17B
:1049C0000CE098F80000302818BF0A270AD198F8A0
:1049D000010040F02000782803D1102708F10208D8
:1049E00000E00827CDF80C8001E008F1010898F8F4
:1049F00000003028F9D0064E7E4414364FF00009EE
:104A000006F12800CDF80880CA468DF800000BE0BA
:104A1000F83F00009DF80010401ACA465FFA80FB7C
:104A200007FB09B908F1010898F8000003F07BFAC8
:104A300001463A4606F1280003F080FA0028E9D141
:104A40000399414504D1019800B10460002020E0A1
:104A50000299F05DA8EB0101081A002810D406DCC9
:104A6000B9EB0B0103D3B1FBF7F0504508D0AFF31E
:104A70000080049808B1012101604FF0FF3903E084
:104A80002D2D08BFC9F10009019808B1C0F80080B8
:104A9000484605B0BDE8F08FFFE700230A22002159
:104AA0005AE7000038B52DED028B040082B00D46A8
:104AB00000F0BB8051EC100B20F0000231F00043FD
:104AC00008BF002A00F0B18048004015401C02D108
:104AD000090300F0AA80002CB7EE008B48D5644291
:104AE0005449794401F5A771082008E0E20744BF62
:104AF00091ED001B28EE018B64080831401E002C4C
:104B000018BF0028F2D1684603F044FA009880EEFE
:104B1000080B03F08DFA51EC100B20F0000231F07D
:104B2000004308BF002A6AD048004015401C01D14C
:104B3000090364D0002C62D0684603F02BFA009879
:104B40009FED782B20EE020B03F072FA51EC100B64
:104B500020F0000231F0004308BF002A4FD0480087
:104B60004015401C01D1090349D0641EE4D146E040
:104B700045DD30497944BC310820E20744BF91ED5E
:104B8000001B28EE018B64100831401E002C01DD53
:104B90000028F2D1684603F0FDF9009820EE080BDA
:104BA00003F046FA51EC100B20F0000231F0004304
:104BB00008BF002A23D048004015401C01D109033A
:104BC0001DD0002C1BDD684603F0E4F900989FED32
:104BD000572B20EE020B03F02BFA51EC100B20F0B8
:104BE000000231F0004308BF002A08D048004015F9
:104BF000401C01D1090302D0641E002CE3DC51ECFF
:104C0000100B20F0000231F0004308BF002A05D04D
:104C100048004015401C08D1090306D1AFF30080BD
:104C20001DB1286840F00100286002B0BDEC028B85
:104C300031BD00BF243E00002DE9F14185B088461A
:104C400016461D001CBF00202860059F05A803F024
:104C500067FAC41020F00800012804F0010425D1EF
:104C60000220009001AB05994246384603F0EAFA6B
:104C700010B99FED300B15E09DED020A0228B8EE49
:104C8000C00B0FDB03A9401E9FED2C1B51F8042B1A
:104C9000B0EE402B00EE102AB8EEC00B401E02EE24
:104CA000010BF3D101982946801927E0022828D169
:104CB000009001AB05994246384603F09FFB10B9BE
:104CC0009FED1C0B15E09DED020A0228B8EEC00B0B
:104CD0000FDB03A9401E9FED1B1B51F8042BB0EE08
:104CE000402B00EE102AB8EEC00B401E02EE010B66
:104CF000F3D1019803F09CF929463046FFF7D2FE24
:104D00000AE0032808BF9FED110B05D004280CBF53
:104D10009FED100B9FED070B0CB1B1EE400B06B0F1
:104D2000BDE8F081436FAC642806C80A3CBF737FBE
:104D3000DD4F1575000000000000000000000000BD
:104D400065CDCD41000000000000B0410000000032
:104D50000000F07FFFFFFFFFFFFFFF7F0023002227
:104D6000002169E79FED882B20EE021B53EC112BED
:104D7000F0B423F0004155EC114B0D4645EC124BBD
:104D80009FED834BB4EE442BF1EE10FA2DED068B24
:104D90002BD5B6EE002B55EC124B03F000432B4302
:104DA00057EC126B1F4647EC126B31EE021BBDEE47
:104DB000C11B11EE101A002900F08B80BAEEC21B45
:104DC0009FED753B01EE030B9FED755B01EE050B4F
:104DD0009FED757B01EE070B9FED759B01EE090BB7
:104DE0009FED753B01EE030B73E055EC104B690032
:104DF0004915491C08D12A0340F0C180BDEC068B3F
:104E00009FED6F0BF0BC704735F0004508BF002CDC
:104E100008D1002800F0B380BDEC068BB7EE000B84
:104E2000F0BC7047B6EE002B55EC124B03F000437C
:104E30002B4357EC126B1F4647EC126B31EE021BF3
:104E400053EC112B5D0045EAD2755400002D08BFCC
:104E5000002C19D040F23341A1EB5554352C04DB22
:104E600002F0000203F000430CE0202C03DD203CA4
:104E7000E340A34000E001D1002203E0002CC4BFC6
:104E8000E240A24043EC112B53EC112B22F0000422
:104E900033F0004508BF002C17D09FED4B3B21EEAF
:104EA000032B9FED3D5B02EE050B9FED3D7B02EE7C
:104EB000070B9FED3D9B02EE090B9FED3DAB02EE14
:104EC0000A0B9FED3D5B02EE050BBDEEC11B11EE23
:104ED000101A53EC102B23F0004255EC104B1546E2
:104EE00045EC114B9FED3A3B01F00301B4EE431B3F
:104EF0000818F1EE10FA00F0010104D500293AD0AB
:104F0000B7EE000B37E020EE001BD1B19FED322B46
:104F10009FED334B01EE024B9FED336B04EE016BC3
:104F20009FED338B06EE018B9FED332B08EE012BAB
:104F30009FED334B02EE014BB7EE000B04EE010B7D
:104F400019E09FED317B9FED324B01EE074B9FED5A
:104F5000328B04EE018B9FED32AB08EE01AB9FED7F
:104F6000327B0AEE017B9FED324B20EE012B07EEE8
:104F7000014B02EE040B800748BFB1EE400BBDECC5
:104F8000068BF0BC7047000083C8C96D305FE43FFA
:104F90000000A0FFFFFFDF4100000050FB21B9C16E
:104FA00000000060B41011C00000002026A651BE11
:104FB000000000005C14D3BC000000209A833BBBBF
:104FC000FFFFFFFFFFFFFF7F000000000000303EFB
:104FD000000000000000403E09260A1039BA213EB8
:104FE0003BA861C6F97D92BE63AC30909F01FA3E4A
:104FF000F6FB51166CC156BFB10255555555A53F2C
:10500000AEFFFFFFFFFFDFBFB08F2FC310D8E53D1E
:105010008F0C73A1E1E55ABE4DADE44FE31DC73ED1
:105020003EE3B519A0012ABFFAF010111111813F1A
:10503000425555555555C5BF012093E6002091E6D0
:1050400010B50400002C01D101205EE094F841006D
:10505000002805D1002084F84000200003F0D2FA97
:10506000242084F84100206800684008400021683E
:105070000860606830F070602168086120688068AE
:1050800030F4004021688860E068012805D1A068FC
:1050900050F400402168886004E0A06850F40440A7
:1050A00021688860E068022803D14FF4006021681D
:1050B00048602068406840F0007050F4004021686B
:1050C00048602068C06830F400402168C8602169E9
:1050D00060690143A06951EA00212068C160E1696B
:1050E000206A0143206801602068006850F00100D8
:1050F0002168086000206064202084F841000020BE
:105100002063002084F84200002010BD2DE9FC41FE
:1051100004000D0016001F0094F8410020283FD124
:1051200020688069000401D502203AE094F840002C
:10513000012801D1022034E0012084F84000212020
:1051400084F84100102084F8420000206064666208
:105150006785DFF85800E062DFF854006063608D17
:10516000B0F5807F04D3FF2020855FF0807803E0D6
:10517000608D20855FF00078DFF82C0000904346BA
:10518000228DD2B2290089B2200000F0BBFF00209E
:1051900084F840000121200000F0CDFF002000E055
:1051A0000220BDE8F6810000002000800000FFFF23
:1051B000D551000870B5040020688569206806682C
:1051C000606B002804D0320029002000636B9847F0
:1051D00070BD00002DE9FC4104000D001600A8463A
:1051E00094F84000012801D10220B4E0012084F8A5
:1051F00040005FEAC8600CD5F0060AD5102021688F
:10520000C861606C50F004006064200000F04FFF43
:1052100094E05FEA487011D570070FD538F00408A4
:105220002068406A616A0870606A401C6062208D74
:10523000401E2085608D401E60857FE05FEA88709B
:105240000FD5B0070DD5606A007821688862606A62
:10525000401C6062208D401E2085608D401E608550
:105260006CE05FEA086049D5700647D5608D00287C
:1052700037D0208D002834D1206840688005800D0B
:105280000700608DB0F5807F0DD3FF2020850020C2
:1052900000905FF08073228DD2B2390089B2200075
:1052A00000F030FF4AE0608D2085E06ADFF80C16E0
:1052B00088420AD000200090E36A228DD2B23900E1
:1052C00089B2200000F01EFF38E0002000905FF05F
:1052D0000073228DD2B2390089B2200000F012FF93
:1052E0002CE020684068800103D4200000F056FBC9
:1052F00024E04021200000F0F9FD1FE05FEA486053
:105300001CD570061AD5608D002813D1206840681E
:10531000800113D4E06ADFF8A415884206D1206822
:10532000406850F480402168486007E0200000F0A9
:1053300035FB03E04021200000F0D8FD5FEA8860E3
:1053400005D5B00603D54146200000F094FB0020AF
:1053500084F840000020BDE8F68100002DE9F0410E
:1053600005000E001700EC6AB04695F840000128D1
:1053700001D1022092E0012085F840005FEA8860B8
:1053800005D5B80603D54146280000F001FC5FEAC8
:10539000C86037D5F80635D5688D002821D195F835
:1053A0004100282807D1B4F1007F04D141462800EC
:1053B00000F067FD6EE095F8410029280DD1DFF877
:1053C000FC04844209D010202968C861280000F03C
:1053D0006EFE280000F00FFB5CE010202968C86119
:1053E00058E010202968C861686C50F004006864B7
:1053F000002C02D0B4F1807F4CD1696C280000F001
:1054000075FD47E05FEA48701CD578071AD5688DAE
:1054100000280CD02868406A696A0870686A401CD5
:105420006862288D401E2885688D401E6885688DBD
:1054300000282FD1DFF8840484422BD0280000F00C
:10544000DAFA27E05FEA087006D5380704D5414646
:10545000280000F035FA1DE05FEA88701AD5B80719
:1054600018D5688D00280DD0686A00782968886290
:10547000686A401C6862688D401E6885288D401EE1
:10548000288507E0B4F1807F01D0002C02D12800EC
:1054900000F0B1FA002085F840000020BDE8F0815E
:1054A0002DE9FC4104000D00160094F8400001288D
:1054B00001D1022097E0012084F84000E80610D5D1
:1054C000F0060ED510202168C861606C50F0040011
:1054D00060642021200000F02EFE200000F0E7FD97
:1054E0007DE0280653D5700651D52068006830F05D
:1054F000400021680860608D00283BD0206840682B
:105500008005800D0700608DB0F5807F05D3FF20FA
:1055100020855FF0807080460CE0608D2085E06A19
:10552000DFF89813884202D0E06A804602E05FF01C
:1055300000708046002000904346228DD2B2390090
:1055400089B2200000F0DEFD618D208D091A618591
:1055500094F84100222806D12068006850F40040E9
:10556000216808603BE02068006850F480402168B2
:10557000086034E020684068800103D4200000F017
:105580000DFA2CE04021200000F0B0FC27E0680676
:105590001DD570061BD5608D002813D1206840688A
:1055A00080011CD4E06ADFF81413884206D1206819
:1055B000406850F480402168486010E0200000F00E
:1055C000EDF90CE04021200000F090FC07E0A80677
:1055D00005D5B00603D52900200000F04CFA0020C4
:1055E00084F840000020BDE8F68100002DE9F84372
:1055F00006000F009046F46A5FF0000996F840003C
:10560000012801D1022056E1012086F84000B806A9
:1056100006D55FEA886003D53900300000F0B8FA9B
:10562000F80640F13B815FEAC86040F1378118F429
:10563000404F00F02F81F06B00286DD05FEA0840EA
:105640006AD5F06B0068DFF8F019884259D0F06B2A
:105650000068DFF8E819884253D0F06B0068DFF883
:10566000E01988424DD0F06B0068DFF8D819884205
:1056700047D0F06B0068DFF8D019884241D0F06B5A
:105680000068DFF8C81988423BD0F06B0068DFF88B
:10569000C019884235D0F06B0068DFF8B81988422D
:1056A0002FD0F06B0068DFF8B019884229D0F06B7A
:1056B0000068DFF8A819884223D0F06B0068DFF893
:1056C000A01988421DD0F06B0068DFF89819884255
:1056D00017D0F06B0068DFF89019884211D0F06B9A
:1056E0000068DFF8881988420BD0F06B0068DFF89B
:1056F0008019884205D0F06B0068DFF8781988427D
:1057000003D1F06B0068406802E0F06B006840680D
:10571000002801D101208146B06B00286DD05FEADE
:1057200048406AD5B06B0068DFF80C19884259D040
:10573000B06B0068DFF80419884253D0B06B006882
:10574000DFF8FC1888424DD0B06B0068DFF8F41821
:10575000884247D0B06B0068DFF8EC18884241D02F
:10576000B06B0068DFF8E41888423BD0B06B00688B
:10577000DFF8DC18884235D0B06B0068DFF8D41849
:1057800088422FD0B06B0068DFF8CC18884229D04F
:10579000B06B0068DFF8C418884223D0B06B006893
:1057A000DFF8BC1888421DD0B06B0068DFF8B41871
:1057B000884217D0B06B0068DFF8AC18884211D06F
:1057C000B06B0068DFF8A41888420BD0B06B00689B
:1057D000DFF89C18884205D0B06B0068DFF8941899
:1057E000884203D1B06B0068406802E0B06B00688B
:1057F0004068002801D101208146B9F1010F20D174
:1058000096F84100282807D1B4F1007F04D139006F
:10581000300000F036FB4AE096F8410029280CD110
:105820002648844209D010203168C861300000F059
:105830003EFC300000F0DFF839E010203168C8612C
:1058400035E010203168C861706C50F0040070645D
:1058500096F841000500002C02D0B4F1807F26D1DB
:105860002800C0B2212803D02800C0B2292802D1C4
:105870002120306309E02800C0B2222803D028008C
:10588000C0B22A2801D122203063716C300000F0B0
:105890002DFB0CE010203168C86108E0380706D500
:1058A0005FEA087003D53900300000F009F80020E5
:1058B00086F840000020BDE8F28300000000FFFFF2
:1058C0002DE9F84304000D0094F8410010F0280081
:1058D00028285BD120688069000C10F001000600C8
:1058E00020688069000C10F0FE00070020688068C6
:1058F0008005800D80462068C06810F0FE0081465B
:10590000E068022832D1380080B210F0060041462B
:1059100089B2C90911F00601884216D14746A06C28
:10592000401CA064A06C022836D10020A06408208E
:105930002168C861002084F840003A0092B231002A
:10594000C9B2200002F05FFE26E04F464FF400414E
:10595000200000F043FC002084F840003A0092B29E
:105960003100C9B2200002F04EFE15E04FF40041B4
:10597000200000F033FC002084F840003A0092B28E
:105980003100C9B2200002F03EFE05E00820216887
:10599000C861002084F84000BDE8F18310B5040020
:1059A000002084F8420094F84100212811D12020E1
:1059B00084F8410011202063002060630121200051
:1059C00000F00CFC002084F840002000FEF75EF997
:1059D00010E0202084F84100122020630020606342
:1059E0000221200000F0FAFB002084F84000200093
:1059F00002F00AFE10BD38B50400206805680020DA
:105A000084F84200680406D52068006830F48040BD
:105A10002168086007E0280405D52068006830F494
:105A200000402168086094F8410029280FD12820FF
:105A300084F84100212020630121200000F0CEFBEA
:105A4000002084F84000200002F0DFFD12E094F80E
:105A500041002A280ED1282084F84100222020630A
:105A60000221200000F0BAFB002084F84000200052
:105A700002F0CCFD31BDF8B505000E003700202046
:105A80002968C86195F84100212806D10121280024
:105A900000F0A4FB1120286309E095F841002228BA
:105AA00005D10221280000F099FB12202863286804
:105AB0004168DFF8200601402868416000206863E3
:105AC000DFF83C06E862F80606D510202968C861B0
:105AD000686C50F00400686495F84100602806D1B5
