:020000040800F2
:10000000E80A0020B57D00088D7D00088F7D00087E
:10001000917D0008937D0008957D00080000000098
:10002000000000000000000000000000977D0008B4
:10003000997D0008000000009B7D00089D7D000860
:10004000D97D0008DD7D0008E17D0008E57D000820
:10005000E97D0008ED7D0008F17D0008F57D0008D0
:10006000F97D0008453900084F390008FD7D00087A
:10007000017E0008057E0008097E00080D7E00084C
:10008000117E0008157E0008197E00081D7E0008FC
:10009000217E0008257E0008297E00082D7E0008AC
:1000A000317E0008357E0008397E00083D7E00085C
:1000B0000D390008193900082539000831390008C0
:1000C000417E0008457E0008497E00084D7E0008FC
:1000D000517E0008557E0008F538000801390008F7
:1000E000597E00085D7E000800000000617E000867
:1000F000657E0008697E00086D7E0008717E00083C
:10010000757E0008797E00087D7E0008817E0008EB
:10011000857E0008897E00088D7E0008917E00089B
:10012000957E0008997E00089D7E0008A17E00084B
:10013000A57E0008A97E0008AD7E0008B17E0008FB
:1001400000000000000000000000000000000000AF
:10015000B57E0008B97E0008BD7E0008C17E00089B
:10016000C57E0008C97E0008CD7E0008D17E00084B
:10017000D57E0008D97E0008DD7E00080000000062
:10018000E17E0008E57E0008E97E0008ED7E0008BB
:10019000F17E0008F57E0008F97E0008FD7E00086B
:1001A000017F0008057F0008097F00080D7F000817
:1001B000117F0008157F0008197F00081D7F0008C7
:1001C000217F0008257F0008297F00082D7F000877
:1001D000317F0008357F0008397F00083D7F000827
:1001E000417F0008457F0008497F00084D7F0008D7
:1001F000517F0008557F0008597F00085D7F000887
:10020000617F0008657F0008697F00086D7F000836
:10021000717F0008757F0008797F00087D7F0008E6
:10022000817F0008857F0008897F000800000000AA
:100230008D7F0008917F000800000000957F000876
:10024000997F00089D7F0008A17F0008A57F000816
:10025000A97F0008AD7F0008B17F0008B57F0008C6
:10026000B97F0008BD7F0008C17F0008C57F000876
:10027000C97F0008CD7F0008D17F00080000000082
:10028000D57F0008D97F0008DD7F0008000000004E
:1002900000000000E17F000810B50400002C01D12F
:1002A000012037E0A0690028FFD1D4F88800002899
:1002B00005D1002084F88400200001F0F5FB242003
:1002C000C4F8880020680068400840002168086081
:1002D000200000F0F1FA012801D101201AE0A06A03
:1002E000002802D0200000F0CBFD2068406830F4E8
:1002F0009040216848602068806830F02A002168BA
:1003000088602068006850F00100216808602000C3
:1003100000F023FE10BD30B40300D3F8880020287D
:1003200050D1002903D0100080B2002801D1012053
:1003300049E01965A3F85420A3F8562000209867D7
:100340000020C3F890002120C3F88800586EB0F157
:10035000005F1CD19868B0F5805F06D1186900284D
:1003600003D1DFF8C400986702E0DFF8C0009867A7
:100370001868083050E8000F50F4000004001868B6
:1003800010F1080545E800400028F1D118E0986810
:10039000B0F5805F06D11869002803D1DFF890001E
:1003A000986702E0DFF88C009867186850E8000F43
:1003B00050F0800004001D6845E800400028F4D19A
:1003C000002000E0022030BC704770B505000C0032
:1003D0001600D5F88C00202824D1002C03D0300042
:1003E00080B2002801D101201DE00020E8662868C5
:1003F000DFF8441088420ED02868406800020AD511
:10040000286850E8000F50F0806001002A6842E838
:1004100000100028F4D1320092B22100280000F030
:1004200052FE00E0022070BD191400089B13000862
:1004300037130008DF120008000C00582DE9F047C0
:1004400006003068C7693068D0F800803068D0F89E
:10045000089040F60F043C40002C0ED1B8060CD595
:100460005FEA886002D45FEAC90006D5706F002891
:1004700002D03000716F884713E2002C00F0B28088
:10048000DFF8280419EA000F05D1DFF8241418EA70
:10049000010F00F0A78017F00101C9B200290BD0AD
:1004A0005FEAC85108D5012132681162D6F8901070
:1004B00051F00101C6F89010B9070DD519F00101EE
:1004C000C9B2002908D0022132681162D6F8901012
:1004D00051F00401C6F8901079070DD519F001010B
:1004E000C9B2002908D0042132681162D6F89010F0
:1004F00051F00201C6F8901039070ED55FEA886105
:1005000002D419EA000F08D0082031680862D6F832
:10051000900050F00800C6F8900038050CD55FEA4E
:10052000481009D54FF4006031680862D6F8900091
:1005300050F02000C6F89000D6F89000002850D067
:10054000B8060BD55FEA886002D45FEAC90005D51A
:10055000706F002802D03000716F8847D6F8900085
:10056000050030688068400602D415F0280F32D0AC
:10057000300000F055FE30688068400627D53068AE
:10058000083050E8000F30F040000100306810F1F2
:10059000080242E800100028F1D1D6F880000028B7
:1005A00011D0DFF81003D6F880100865D6F8800067
:1005B00001F0E6FC002814D0D6F88000D6F88010B0
:1005C000096D88470DE0300001F0D7FE09E03000EA
:1005D00001F0D3FE05E0300001F0CFFE0020C6F8A8
:1005E00090005EE1F06E012840F02481F80640F1B1
:1005F00021815FEAC86040F11D81102031680862E6
:1006000030688068400640F1D480D6F880000068E9
:10061000DFF82818884268D0D6F880000068DFF834
:100620002018884261D0D6F880000068DFF81418DE
:1006300088425AD0D6F880000068DFF80C1888424B
:1006400053D0D6F880000068DFF8001888424CD0FC
:10065000D6F880000068DFF8F817884245D0D6F851
:1006600080000068DFF8EC1788423ED0D6F88000A2
:100670000068DFF8E417884237D0D6F880000068B9
:10068000DFF8D817884230D0D6F880000068DFF84D
:10069000D017884229D0D6F880000068DFF8C41748
:1006A000884222D0D6F880000068DFF8BC17884264
:1006B0001BD0D6F880000068DFF8B017884214D04D
:1006C000D6F880000068DFF8A81788420DD0D6F869
:1006D00080000068DFF89C17884206D0D6F88000BA
:1006E0000068DFF89417884205D1D6F880000068CA
:1006F000D0F804A004E0D6F880000068D0F804A088
:10070000504680B2002853D05046B6F85C1080B2F4
:1007100088424DD2A6F85EA0D6F88000C069B0F538
:10072000807F3AD0306850E8000F30F480700100CC
:10073000326842E800100028F4D13068083050E8F0
:10074000000F400840000100306810F1080242E844
:1007500000100028F1D13068083050E8000F30F068
:1007600040000100306810F1080242E80010002843
:10077000F1D12020C6F88C000020F066306850E8E7
:10078000000F30F010000100326842E8001000282D
:10079000F4D1D6F8800001F08DF902203067B6F868
:1007A0005C10B6F85E00091A89B2300001F0E6FD6F
:1007B00077E0B6F85C00B6F85EA0B0EB0A0AB6F8CF
:1007C0005E00002835D0504680B2002831D0306815
:1007D00050E8000F30F490700100326842E80010D9
:1007E0000028F4D13068083050E8002F2E4802402D
:1007F0001100306810F1080242E800100028F1D121
:100800002020C6F88C000020F06600207067306859
:1008100050E8000F30F010000100326842E800108C
:100820000028F4D102203067514689B2300001F02F
:10083000A5FD36E0F8020AD55FEA492007D55FF446
:10084000801031680862300001F099FD29E0380617
:100850000CD55FEA086002D45FEA092006D5B06FC4
:10086000002802D03000B16F88471AE0780606D51C
:100870005FEA486003D5300000F010FE11E0380256
:1008800006D55FEA480003D5300001F079FD08E0A5
:10089000F80106D5B8F1000F03D5300001F071FD65
:1008A000FFE7BDE8F0870000FEFFFFEF010000104A
:1008B00020010004C51200082DE9F84F86B004009D
:1008C0000026DFF8B81520688842FFD0A2682069AA
:1008D000024360690243E069024320680368DFF86D
:1008E000A40903401343206803602068436833F47D
:1008F0004053E068034320684360D4F818802068C0
:10090000884202D0206A50EA080820688268DFF82E
:100910007809024058EA0202206882602068C26AB0
:1009200012091201606A02432068C2622068DFF87F
:100930005C2990421FD1DFF85809006810F0380098
:1009400000280AD008280AD010280AD018280AD06F
:1009500020280AD028280AD00BE0012724E1042708
:1009600022E1082720E110271EE120271CE1402773
:100970001AE1802718E12068DFF8182990421DD17C
:10098000DFF80C09006810F00700002808D00228E2
:100990000AD007D304280BD008D305280AD00BE0CF
:1009A000002701E10427FFE00827FDE01027FBE016
:1009B0002027F9E04027F7E08027F5E02068DFF8FE
:1009C000D82890421DD1DFF8C808006810F0070051
:1009D000002808D002280AD007D304280BD008D357
:1009E00005280AD00BE00027DEE00427DCE008271A
:1009F000DAE01027D8E02027D6E04027D4E080278F
:100A0000D2E02068DFF8942890421DD1DFF88008FA
:100A1000006810F00700002808D002280AD007D389
:100A200004280BD008D305280AD00BE00027BBE030
:100A30000427B9E00827B7E01027B5E02027B3E086
:100A40004027B1E08027AFE02068DFF854289042CB
:100A50001DD1DFF83C08006810F00700002808D01E
:100A600002280AD007D304280BD008D305280AD0BF
:100A70000BE0002798E0042796E0082794E0102771
:100A800092E0202790E040278EE080278CE02068CD
:100A9000DFF8102890421FD1DFF8F407006810F04B
:100AA000380000280AD008280AD010280AD01828B0
:100AB0000AD020280AD028280AD00BE0012773E0AA
:100AC000042771E008276FE010276DE020276BE016
:100AD000402769E0802767E02068DFF8CC27904254
:100AE0001DD1DFF8AC07006810F00700002808D01F
:100AF00002280AD007D304280BD008D305280AD02F
:100B00000BE0002750E004274EE008274CE01027B8
:100B10004AE0202748E0402746E0802744E020685C
:100B2000DFF8882790421DD1DFF86407006810F0D5
:100B30000700002808D002280AD007D304280BD0C9
:100B400008D305280AD00BE000272DE004272BE06E
:100B5000082729E0102727E0202725E0402723E069
:100B6000802721E0206888421DD1DFF84407006813
:100B700010F00700002808D002280AD007D3042864
:100B80000BD008D305280AD00BE002270CE004277D
:100B90000AE0082708E0102706E0202704E04027A5
:100BA00002E0802700E08027206888426FD138006B
:100BB000C0B202280AD004280CD0082810D010286F
:100BC00014D0202822D0402823D025E001F0DAFBE1
:100BD000814625E003A801F0E5FBDDF810901FE059
:100BE000684601F0F7FCDDF8049019E0DFF8C40670
:100BF0000168890607D5DFF8C0960068C0F3C10018
:100C000039FA00F901E0DFF8B09609E0DFF8AC96B8
:100C100006E04FF4004903E05FF000090120060000
:100C2000B9F1000F00F0FA80DFF89416606A31F82D
:100C30001000B9FBF0F082466268032042439245FF
:100C400005D362684FF480504243524502D20120DE
:100C50000600E3E0606A31F81000B9FBF0F24FF4EF
:100C60008073606840080021E3FB02016268002392
:100C700001F0D8FD0500B5F5407F05D3B5F5801F1F
:100C800002D22068C560C9E001200600C6E0E06924
:100C9000B0F5004F66D13800C0B200280CD0012852
:100CA0000ED0042810D0082814D0102818D02028DE
:100CB00026D0402827D029E002F03BF9814629E0E0
:100CC00002F044F9814625E003A801F06BFBDDF852
:100CD00010901FE0684601F07DFCDDF8049019E0FB
:100CE000DFF8D0050168890607D5DFF8CC950068E4
:100CF000C0F3C10039FA00F901E0DFF8BC9509E062
:100D0000DFF8B89506E04FF4004903E05FF0000912
:100D100001200600B9F1000F00F08080DFF8A00587
:100D2000616A30F81100B9FBF0F06168490811EB15
:100D300040016068B1FBF0F00500102D0FD3B5F550
:100D4000803F0CD24FF6F07129402800C0F34200DA
:100D500001438B46584680B22168C8605EE001209E
:100D600006005BE03800C0B200280CD001280ED08D
:100D7000042810D0082814D0102818D0202826D0F5
:100D8000402827D029E002F0D4F8814629E002F07B
:100D9000DDF8814625E003A801F004FBDDF81090A2
:100DA0001FE0684601F016FCDDF8049019E0DFF85A
:100DB00004050168890607D5DFF8FC940068C0F3D4
:100DC000C10039FA00F901E0DFF8EC9409E0DFF83E
:100DD000EC9406E04FF4004903E05FF000090120C5
:100DE0000600B9F1000F19D0DFF8D404616A30F8B9
:100DF0001100B9FBF0F0616810EB51006168B0FBC5
:100E0000F1F00500102D07D3B5F5803F04D228007E
:100E100080B22168C86001E0012006000120A4F82A
:100E20006A000120A4F86800002060670020A06725
:100E30003000C0B207B0BDE8F08F000010000240E3
:100E4000280002404000024058000240700002406A
:100E500088000240A0000240B80002401004024096
:100E6000280402404004024058040240700402403A
:100E700088040240A0040240B8040240000C00585C
:100E800090F82810C90707D501684A6832F4003283
:100E9000C16A0A4301684A6090F82810890707D59B
:100EA00001684A6832F48032016B0A4301684A6083
:100EB00090F82810490707D501684A6832F4802263
:100EC000416B0A4301684A6090F82810090707D56A
:100ED00001684A6832F40042816B0A4301684A6043
:100EE00090F82810C90607D501688A6832F4805244
:100EF000C16B0A4301688A6090F82810890607D5FB
:100F000001688A6832F40052016C0A4301688A6001
:100F100090F82810490613D501684A6832F4801207
:100F2000416C0A4301684A60416CB1F5801F07D1EA
:100F300001684A6832F4C002816C0A4301684A6061
:100F400090F82810090607D501684A6832F4002293
:100F5000C16C0A4301684A60704738B5040000203C
:100F6000C4F8900002F02AF8050020680068000725
:100F70001ED57FF07E4000902B0000225FF4001110
:100F8000200000F055F8002812D0206850E8000F2B
:100F900030F080000100226842E800100028F4D1FF
:100FA0002020C4F88800002084F8840003203EE05C
:100FB0002068006840072CD57FF07E4000902B0011
:100FC00000225FF48001200000F032F8002820D0D9
:100FD000206850E8000F30F490700100226842E869
:100FE00000100028F4D12068083050E8000F4008B5
:100FF00040000100206810F1080242E800100028BB
:10100000F1D12020C4F88C00002084F88400032053
:101010000DE02020C4F888002020C4F88C000020B7
:10102000E06600202067002084F88400002032BDA4
:101030002DE9F04105000E0090461F00069C28682F
:10104000C0693040B04201D1012000E0002041469B
:10105000C9B2884234D114F1010FF0D001F0AEFFD3
:10106000C01B844201D3002C01D1032029E0286851
:1010700000684007E3D52868C06900070DD508203F
:1010800029680862280000F0CBF80820C5F8900015
:10109000002085F88400012013E02868C06900055D
:1010A000CDD54FF4006029680862280000F0B8F838
:1010B0002020C5F89000002085F88400032000E07F
:1010C0000020BDE8F08130B403009965A3F85C20EE
:1010D000A3F85E20002058679868B0F5805F0BD1B8
:1010E0001869002804D140F2FF10A3F8600023E043
:1010F000FF20A3F860001FE0986800280AD1186953
:10110000002803D1FF20A3F8600015E07F20A3F89A
:10111000600011E09868B0F1805F0AD1186900287A
:1011200003D17F20A3F8600006E03F20A3F8600011
:1011300002E00020A3F860000020C3F89000222005
:10114000C3F88C001868083050E8000F50F0010018
:101150000400186810F1080545E800400028F1D1A6
:10116000586EB0F1005F30D11000B3F8684080B223
:10117000A0422AD39868B0F5805F06D1186900288C
:1011800003D10FF21D70586702E00FF2215058672B
:10119000186900280AD0186850E8000F50F48070D1
:1011A00004001D6845E800400028F4D118680830A4
:1011B00050E8000F50F080500400186810F1080546
:1011C00045E800400028F1D127E09868B0F5805F3D
:1011D00006D11869002803D10FF2E130586702E008
:1011E0000FF2E9205867186900280BD0186850E8FA
:1011F000000F50F4907004001D6845E8004000287E
:10120000F4D10AE0186850E8000F50F02000040004
:101210001D6845E800400028F4D1002030BC70472C
:10122000016851E8001F31F490710A00036843E837
:1012300000210029F4D10168083151E8003FDFF8AE
:1012400058180B401A00016811F1080343E8002107
:101250000029F0D1C16E01290AD1016851E8001FAF
:1012600031F010010A00036843E800210029F4D19D
:101270002021C0F88C100021C16600214167704711
:1012800000000000F369FFCFFFF4FF1100100140E0
:10129000544402580044004000480040004C0040C4
:1012A000005000400014014000780040007C0040E5
:1012B00058440258004402580090D00300093D00F1
:1012C0005C7D000838B50400A56B0020A5F85E0021
:1012D0000020A5F85600280001F04FF831BDD0F8E5
:1012E0008810212926D1B0F85610002916D101689E
:1012F00051E8001F31F080010A00036843E8002133
:101300000029F4D1016851E8001F51F040010A00A2
:10131000036843E800210029F4D10BE0016D09784E
:1013200002689162016D491C0165B0F85610491EB2
:10133000A0F85610704710B40100D1F88800212899
:1013400029D1B1F85600002816D1086850E8000FDE
:1013500030F0800003000C6844E800300028F4D12D
:10136000086850E8000F50F0400003000C6844E8A3
:1013700000300028F4D10EE0086D02001088C0058E
:10138000C00D0B689862086D801C0865B1F85600A6
:10139000401EA1F8560010BC704710B40100D1F8EF
:1013A0008800212836D1B1F86A000200100080B20E
:1013B00000282FD0B1F85600002819D1086808304D
:1013C00050E8000F30F400000300086810F1080432
:1013D00044E800300028F1D1086850E8000F50F0D0
:1013E000400003000C6844E800300028F4D111E00C
:1013F0000868C06900060BD5086D00780B68986214
:10140000086D401C0865B1F85600401EA1F8560052
:10141000521ECBE710BC704730B40100D1F88800F1
:10142000212839D1B1F86A000300180080B20028E1
:1014300032D0B1F85600002819D10868083050E8B9
:10144000000F30F400000400086810F1080545E8BA
:1014500000400028F1D1086850E8000F50F040002B
:1014600004000D6845E800400028F4D114E0086845
:10147000C06900060ED5086D02001088C005C00DB9
:101480000C68A062086D801C0865B1F85600401E0B
:10149000A1F856005B1EC8E730BC704710B50400C9
:1014A000206850E8000F30F040000100226842E858
:1014B00000100028F4D12020C4F888000020A06784
:1014C000200002F0D3F910BD0000000070B5050047
:1014D000B5F86060D5F88C00222867D12868406A8A
:1014E000040016EA0400A96D0870A86D401CA865E8
:1014F000B5F85E00401EA5F85E00B5F85E00002855
:101500005AD1286850E8000F30F4907001002A6822
:1015100042E800100028F4D12868083050E8000F95
:10152000400840000100286810F1080242E800105D
:101530000028F1D12020C5F88C0000206867002029
:1015400028672868DFF8541588420ED0286840685C
:1015500000020AD5286850E8000F30F080600100D2
:101560002A6842E800100028F4D1E86E012819D159
:101570000020E866286850E8000F30F010000100F5
:101580002A6842E800100028F4D12868C069C00623
:1015900002D5102029680862B5F85C10280000F018
:1015A000EDFE09E0280002F014F905E028688069E2
:1015B00050F008002968886170BD0000F8B505008A
:1015C000B5F86070D5F88C00222868D12868406A88
:1015D0000400A86D060017EA04003080A86D801C86
:1015E000A865B5F85E00401EA5F85E00B5F85E007F
:1015F00000285AD1286850E8000F30F4907001009C
:101600002A6842E800100028F4D12868083050E821
:10161000000F400840000100286810F1080242E86D
:1016200000100028F1D12020C5F88C000020686748
:10163000002028672868DFF8641488420ED02868E4
:10164000406800020AD5286850E8000F30F080603A
:1016500001002A6842E800100028F4D1E86E012851
:1016600019D10020E866286850E8000F30F010001B
:1016700001002A6842E800100028F4D12868C069F7
:10168000C00602D5102029680862B5F85C10280051
:1016900000F074FE09E0280002F09BF805E02868DD
:1016A000806950F0080029688861F1BD2DE9F84F84
:1016B0000700B7F860803868D0F81C903868D0F818
:1016C00000A03868D0F808B0D7F88C00222840F085
:1016D000DF80B7F868000500280080B2002800F01D
:1016E000AE805FEA896040F1AA803868406A0400F1
:1016F00018EA0400B96D0870B86D401CB865B7F8F9
:101700005E00401EA7F85E003868C069814619F087
:10171000070F3CD019F00100C0B200280BD05FEADF
:10172000CA5008D5012039680862D7F8900050F0F7
:101730000100C7F890005FEA89700DD51BF0010029
:10174000C0B2002808D0022039680862D7F890009B
:1017500050F00400C7F890005FEA49700DD51BF007
:101760000100C0B2002808D0042039680862D7F808
:10177000900050F00200C7F89000D7F890000028C1
:1017800005D0380000F0F9FD0020C7F89000B7F848
:101790005E000028A0D1386850E8000F30F4807057
:1017A00001003A6842E800100028F4D13868083097
:1017B00050E8002FB84802401100386810F10802C4
:1017C00042E800100028F1D12020C7F88C0000204A
:1017D0007867002038673868B04988420ED038688A
:1017E000406800020AD5386850E8000F30F0806089
:1017F00001003A6842E800100028F4D1F86E012890
:1018000019D10020F866386850E8000F30F0100059
:1018100001003A6842E800100028F4D13868C06935
:10182000C00602D5102039680862B7F85C1038008D
:1018300000F0A4FD50E7380001F0CBFF4CE7B7F80B
:101840005E000600300080B2002827D03000B7F8D4
:10185000681080B2884221D23868083050E8000F02
:1018600030F080500100386810F1080242E80010A2
:101870000028F1D18A487867386850E8000F50F0A6
:10188000200001003A6842E800100028F4D105E089
:101890003868806950F0080039688861BDE8F18FC8
:1018A0002DE9F84F0600B6F860803068D0F81C903B
:1018B0003068D0F800A03068D0F808B0D6F88C00B6
:1018C000222840F0E180B6F86800ADF80000BDF8CD
:1018D0000000002800F0AF805FEA896040F1AB8033
:1018E0003068406A0400B06D070018EA04003880D0
:1018F000B06D801CB065B6F85E00401EA6F85E00B4
:101900003068C069814619F0070F3CD019F001001A
:10191000C0B200280BD05FEACA5008D50120316858
:101920000862D6F8900050F00100C6F890005FEA17
:1019300089700DD51BF00100C0B2002808D002202C
:1019400031680862D6F8900050F00400C6F89000A4
:101950005FEA49700DD51BF00100C0B2002808D025
:10196000042031680862D6F8900050F00200C6F8F2
:101970009000D6F89000002805D0300000F0FDFC63
:101980000020C6F89000B6F85E0000289FD13068AD
:1019900050E8000F30F480700100326842E8001017
:1019A0000028F4D13068083050E8002F3A4802404F
:1019B0001100306810F1080242E800100028F1D14F
:1019C0002020C6F88C000020706700203067306847
:1019D000324988420ED03068406800020AD530682B
:1019E00050E8000F30F080600100326842E80010DB
:1019F0000028F4D1F06E012819D10020F06630687B
:101A000050E8000F30F010000100326842E800108A
:101A10000028F4D13068C069C00602D510203168B2
:101A20000862B6F85C10300000F0A8FC4FE7300008
:101A300001F0CFFE4BE7B6F85E000500280080B24B
:101A4000002827D02800B6F8681080B2884221D23A
:101A50003068083050E8000F30F0805001003068E6
:101A600010F1080242E800100028F1D10D4870671B
:101A7000306850E8000F50F020000100326842E862
:101A800000100028F4D105E03068806950F00800AB
:101A900031688861BDE8F18FFEFFFFEF000C005850
:101AA000CD140008BD15000870470268531C036080
:101AB000117070472DE9F843040001F07FFA070028
:101AC000002C01D101202EE294F83500022806D026
:101AD00080206065002084F83400012023E2DFF8D4
:101AE0004C94206848454AD02068DFF84414884266
:101AF00045D02068DFF83C14884240D02068DFF8E9
:101B0000381488423BD02068DFF83014884236D041
:101B10002068DFF82C14884231D02068DFF82414C4
:101B200088422CD02068DFF82014884227D0206813
:101B3000DFF81814884222D02068DFF81414884295
:101B40001DD02068DFF80C14884218D02068DFF818
:101B50000814884213D02068DFF8001488420ED0A1
:101B60002068DFF8FC13884209D02068DFF8F413FE
:101B7000884204D02068DFF8F013884201D10120A8
:101B800000E00020C0B200280ED02068006830F0CD
:101B90001E00216808602068406930F080002168DC
:101BA0004861D4F8008007E02068006830F00E003B
:101BB00021680860D4F800802068484572D0206809
:101BC000DFF86C1388426DD02068DFF86813884214
:101BD00068D02068DFF86013884263D02068DFF89F
:101BE0005C1388425ED02068DFF85413884259D0D5
:101BF0002068DFF85013884254D02068DFF848137B
:101C000088424FD02068DFF8441388424AD02068C9
:101C1000DFF83C13884245D02068DFF8381388424B
:101C200040D02068DFF8301388423BD02068DFF8CE
:101C30002C13884236D02068DFF82413884231D034
:101C40002068DFF8201388422CD02068DFF81813B2
:101C5000884227D02068DFF81413884222D02068F9
:101C6000DFF80C1388421DD02068DFF80813884283
:101C700018D02068DFF80013884213D02068DFF8FE
:101C8000FC1288420ED02068DFF88416884209D002
:101C90002068DFF88016884204D02068DFF87816C4
:101CA000884201D1012000E00020C0B2002805D008
:101CB000206E006830F48070216E0860206848450E
:101CC0003BD020689A49884237D020689949884299
:101CD00033D02068984988422FD02068974988429D
:101CE0002BD020689649884227D0206895498842A1
:101CF00023D02068944988421FD0206893498842A5
:101D00001BD020689249884217D0206891498842A8
:101D100013D02068904988420FD020688F498842AC
:101D20000BD020688E49884207D020688D498842B0
:101D300003D020688C49884206D12068006840089A
:101D400040002168086005E0206800684008400005
:101D500021680860D8F80000C0070ED501F02EF900
:101D6000C01B0628F6D320206065032084F83500C8
:101D7000002084F834000120D5E0206848453BD09D
:101D800020686B49884237D020686A49884233D03E
:101D90002068694988422FD02068684988422BD042
:101DA00020686749884227D020686649884223D046
:101DB0002068654988421FD02068644988421BD04A
:101DC00020686349884217D020686249884213D04E
:101DD0002068614988420FD02068604988420BD052
:101DE00020685F49884207D020685E49884203D056
:101DF00020685D49884201D1012000E00020C0B286
:101E0000002809D0A06D05003F2094F85C1011F067
:101E10001F018840A86008E0A06D0600012094F82A
:101E20005C1011F01F0188407060206848455ED04A
:101E300020683F4988425AD020683E49884256D09F
:101E400020683D49884252D020683C4988424ED0A3
:101E500020683B4988424AD020683A49884246D0A7
:101E600020683949884242D02068384988423ED0AB
:101E70002068374988423AD020683649884236D0AF
:101E800020683549884232D02068344988422ED0B3
:101E90002068334988422AD020683249884226D0B7
:101EA00020683149884222D02068304988421ED0BB
:101EB00020682F4988421AD020682E49884216D0BF
:101EC00020682D49884212D020682C4988420ED0C3
:101ED0002068DFF83C14884209D02068DFF8341409
:101EE000884204D02068DFF83014884201D10120F4
:101EF00000E00020C0B200280ED0A06E616E4860E5
:101F0000E06E002808D0E06E006830F48070E16E6A
:101F10000860606F216F4860012084F83500002060
:101F200084F834000020BDE8F28300001000024075
:101F30002800024040000240580002407000024069
:101F400088000240A0000240B80002401004024095
:101F50002804024040040240580402407004024039
:101F600088040240A0040240B80402400854025809
:101F70001C540258305402584454025858540258C1
:101F800038B50400002C01D10120BFE194F83500E0
:101F9000022803D0802060650120B7E1DFF88013BC
:101FA000206888424AD02068DFF87823904245D0E4
:101FB0002068DFF87423904240D02068DFF86C235B
:101FC00090423BD02068DFF86823904236D02068EA
:101FD000DFF86023904231D02068DFF85C23904224
:101FE0002CD02068DFF85423904227D02068DFF8F7
:101FF0005023904222D02068DFF8482390421DD021
:102000002068DFF84423904218D02068DFF83C2392
:10201000904213D02068DFF8382390420ED0206819
:10202000DFF83023904209D02068DFF82C2390425B
:1020300004D02068DFF8E422904201D1012000E0C2
:102040000020C0B200285DD0042084F8350020684C
:10205000884249D02068DFF8CC12884244D02068FA
:10206000DFF8C41288423FD02068DFF8C0128842EF
:102070003AD02068DFF8B812884235D02068DFF8FF
:10208000B412884230D02068DFF8AC1288422BD0DE
:102090002068DFF8A812884226D02068DFF8A01256
:1020A000884221D02068DFF89C1288421CD020682A
:1020B000DFF89412884217D02068DFF89012884227
:1020C00012D02068DFF8881288420DD02068DFF82F
:1020D0008412884208D02068DFF87C12884203D03E
:1020E00020688E49884206D1206800684008400078
:1020F0002168086009E12068006840084000216804
:10210000086002E12068006830F00E00226810606C
:102110002068884249D02068DFF80822904244D0E5
:102120002068DFF8042290423FD02068DFF8FC21CD
:1021300090423AD02068DFF8F821904235D02068EC
:10214000DFF8F021904230D02068DFF8EC21904297
:102150002BD02068DFF8E421904226D02068DFF8F9
:10216000E021904221D02068DFF8D82190421CD095
:102170002068DFF8D421904217D02068DFF8CC2106
:10218000904212D02068DFF8C82190420DD020681C
:10219000DFF8C021904208D02068DFF8BC219042CF
:1021A00003D020685D4A904206D12068006840084C
:1021B00040002268106005E0206800684008400088
:1021C00022681060206888426FD02068DFF85411C0
:1021D00088426AD02068DFF85011884265D02068B4
:1021E000DFF84811884260D02068DFF84411884247
:1021F0005BD02068DFF83C11884256D02068DFF8B9
:102200003811884251D02068DFF8301188424CD014
:102210002068DFF82C11884247D02068DFF82411AD
:10222000884242D02068DFF8201188423DD02068E3
:10223000DFF81811884238D02068DFF8141188427E
:1022400033D02068DFF80C1188422ED02068DFF8E8
:102250000811884229D020683049884225D020685A
:10226000DFF8F810884220D02068DFF8F4108842A8
:102270001BD02068DFF8EC10884216D02068DFF809
:10228000E810884211D02068DFF8E01088420CD0B6
:1022900020681F49884208D020681E49884204D01F
:1022A0002068DFF8CC10884201D1012000E0002036
:1022B000C0B200281DD0206E006830F48070216EFE
:1022C0000860A06D0500012094F85C1011F01F015A
:1022D00088406860A06E616E4860E06E002808D09B
:1022E000E06E006830F48070E16E0860606F216F0E
:1022F0004860012084F83500002084F83400206D07
:10230000002802D02000216D8847002032BD000047
:102310006C5402588054025894540258B804024035
:1023200010000240280002404000024058000240D5
:102330007000024088000240A0000240B800024045
:1023400010040240280402404004024058040240A5
:102350007004024088040240A0040240085402585D
:102360001C540258305402584454025858540258CD
:102370009454025890F83500704770477047704782
:102380007047704780B500F0B9FDDFF87814DFF8CA
:1023900078241268C2F30212895C11F01F01C84050
:1023A00002BD000030B485490A6812F003020968D2
:1023B000C1F30531824B1B68C3F30013DFF84C44B3
:1023C0002468C4F3CC0404FB03F401EE104AB8EE15
:1023D000411A002900F0EA80002A03D0022A70D0B6
:1023E0004FD38EE0DFF804442568AD0629D5DFF829
:1023F00000542468C4F3C104E54001EE905AB0EEE5
:10240000610AF8EE401A02EE101AB8EE422AC1EE46
:10241000821ADFF8FC432468E405E40D02EE104A5A
:10242000B8EE422ADFED672AC1EE222A32EE222AD6
:10243000F7EE002A32EE222A61EE821AF0EE610AED
:102440001EE001EE901AF8EE611A9FED5F2AC2EECF
:10245000211ADFF8BC432468E405E40D02EE104ABB
:10246000B8EE422ADFED572AC1EE222A32EE222AA6
:10247000F7EE002A32EE222A61EE821AF0EE610AAD
:102480005EE001EE901AF8EE611A9FED502AC2EE5E
:10249000211ADFF87C432468E405E40D02EE104ABB
:1024A000B8EE422ADFED472AC1EE222A32EE222A76
:1024B000F7EE002A32EE222A61EE821AF0EE610A6D
:1024C0003EE001EE901AF8EE611A9FED412AC2EE4D
:1024D000211ADFF83C432468E405E40D02EE104ABB
:1024E000B8EE422ADFED372AC1EE222A32EE222A46
:1024F000F7EE002A32EE222A61EE821AF0EE610A2D
:102500001EE001EE901AF8EE611A9FED302AC2EE3D
:10251000211ADFF8FC422468E405E40D02EE104ABB
:10252000B8EE422ADFED272AC1EE222A32EE222A15
:10253000F7EE002A32EE222A61EE821AF0EE610AEC
:10254000DFF8CC422568C5F3462501EE905AF8EE37
:10255000611AB7EE002A71EE821AC0EEA11AFCEEE3
:10256000E11AC0ED001A2568C5F3064501EE905A40
:10257000F8EE611AB7EE002A71EE821AC0EEA11AC7
:10258000FCEEE11AC0ED011A2468C4F3066401EE02
:10259000904AF8EE611AB7EE002A71EE821AC0EE88
:1025A000A11AFCEEE11AC0ED021A05E00024046055
:1025B000002444600024846030BC704728440258E2
:1025C0002C440258000000460024744C0024744A35
:1025D00020BCBE4B30B4DFF83C120A6812F0030294
:1025E0000968C1F30551DFF830321B68C3F30023DB
:1025F000DFF828422468C4F3CC0404FB03F401EEA2
:10260000104AB8EE411A002900F0E880002A03D0F1
:10261000022A6ED04DD38CE0744C2568AD0628D5C7
:10262000734D2468C4F3C104E54001EE905AB0EE46
:10263000610AF8EE401A02EE101AB8EE422AC1EE14
:10264000821ADFF8DC412468E405E40D02EE104A4A
:10265000B8EE422ADFED672AC1EE222A32EE222AA4
:10266000F7EE002A32EE222A61EE821AF0EE610ABB
:102670001EE001EE901AF8EE611A9FED5F2AC2EE9D
:10268000211ADFF89C412468E405E40D02EE104AAB
:10269000B8EE422ADFED572AC1EE222A32EE222A74
:1026A000F7EE002A32EE222A61EE821AF0EE610A7B
:1026B0005EE001EE901AF8EE611A9FED502AC2EE2C
:1026C000211ADFF85C412468E405E40D02EE104AAB
:1026D000B8EE422ADFED472AC1EE222A32EE222A44
:1026E000F7EE002A32EE222A61EE821AF0EE610A3B
:1026F0003EE001EE901AF8EE611A9FED412AC2EE1B
:10270000211ADFF81C412468E405E40D02EE104AAA
:10271000B8EE422ADFED372AC1EE222A32EE222A13
:10272000F7EE002A32EE222A61EE821AF0EE610AFA
:102730001EE001EE901AF8EE611A9FED302AC2EE0B
:10274000211ADFF8DC402468E405E40D02EE104AAB
:10275000B8EE422ADFED272AC1EE222A32EE222AE3
:10276000F7EE002A32EE222A61EE821AF0EE610ABA
:10277000DFF8AC402568C5F3462501EE905AF8EE27
:10278000611AB7EE002A71EE821AC0EEA11AFCEEB1
:10279000E11AC0ED001A2568C5F3064501EE905A0E
:1027A000F8EE611AB7EE002A71EE821AC0EEA11A95
:1027B000FCEEE11AC0ED011A2468C4F3066401EED0
:1027C000904AF8EE611AB7EE002A71EE821AC0EE56
:1027D000A11AFCEEE11AC0ED021A05E00024046023
:1027E000002444600024846030BC704700440258D8
:1027F0000090D003000000460024744C0024744A6A
:1028000020BCBE4BA47D0008204402583C44025822
:1028100038440258284402582C4402584444025870
:1028200040440258BBBBE1B1B2F5803F80F07E80EE
:10283000022A1ED98C46B1FBF2F102FB11C31B0424
:1028400043EA1043B3FBF2FC02FB1C3380B240EAC4
:102850000343B3FBF2F002FB103240EA0C400023CA
:102860007047022A05D98446B0FBF2F002FB10C281
:1028700070474AB105D100F0010249085FEA300013
:10288000704700220023704701F086BC0B00020055
:10289000002100207047904271EB030CF6D3B3F592
:1028A000803F2FD2F0B5B3FA83F7B1FA81F4A7F1E4
:1028B0000F0E3D1B5340CEF1200602FA0EF2F341FB
:1028C0005340B5F10F0746D80F3C2C444140C4F1AA
:1028D0002006A040F1414140B1FBF3F603FB161185
:1028E000A2FB0645001BA94102D2761E8018594161
:1028F00080EA010221FA0EF362FA0EF200215A4038
:102900003046F0BD30B4B1FBF3FC03FB1C11A2FB5D
:102910000C45001BA94103D2ACF1010C80185941B0
:1029200030BC02460B46604600217047B2F1807F02
:1029300065D3F0B5B2FA82F7B1FA81F4C7F10F06A8
:102940003D1B22FA06F307F1110EF24120355A40E1
:10295000B5F10F07B8D94140C4F12006A040F141BC
:102960004140B1FBF3FC03FB1C11A2FB0C45001B17
:10297000A94103D2BCF1010C801859410F2F12D389
:102980000F3FC90341EA5041B1FBF3F603FB1611B7
:10299000A2FB0645D4EBC030A94102D2761E8018B6
:1029A000594146EACC3C07B34140C7F12006B84044
:1029B000F1414140B1FBF3F603FB1611A2FB0645C2
:1029C000001BA94102D2761E8018594180EA0102FB
:1029D00021FA0EF3C7F1200462FA0EF20CFA07F0A6
:1029E0005A402CFA04F13043F0BD80EA010221FA8A
:1029F0000EF3002162FA0EF260465A40F0BD8C469A
:102A0000B1FBF2F102FB11C31B0243EA1063B3FBFB
:102A1000F2FC02FB1C331B024CEA002043EA106369
:102A2000B3FBF2FC02FB1C331B024CEA002043EA1E
:102A30001063B3FBF2FC02FB1C331B024CEA0020C8
:102A400043EA1063B3FBF2FC02FB1C324CEA0020A9
:102A5000002370472DE9F04104000D00002C01D146
:102A600001203DE1DFF81075386810F00F00A84232
:102A70000BD238680009000128433860386810F02C
:102A80000F00A84201D001202AE1207840070DD58F
:102A9000DFF80015086810F070002269904205D236
:102AA0000A6832F07002206902430A602078000749
:102AB0000DD5DFF8E414086810F0700062699042E8
:102AC00005D20A6832F07002606902430A60207819
:102AD000C0060DD5DFF8C014086810F4E060A269E4
:102AE000904205D20A6832F4E062A06902430A60AB
:102AF000207880060DD5DFF8A414086810F0700067
:102B0000E269904205D20A6832F07002E06902433D
:102B10000A60207880070DD5DFF87814086810F077
:102B20000F00E268904205D20A6812091201E068BB
:102B300002430A602078C0074AD5DFF858140A68B3
:102B400032F47062A06802430A606068022806D10D
:102B5000DFF82804006880031CD40120C0E060680E
:102B6000032806D1DFF814040068800112D4012084
:102B7000B6E06068012806D1DFF800040068C005EF
:102B800008D40120ACE0DFF8F4030068400701D46A
:102B90000120A5E0DFF8E883D8F80010C908C900D3
:102BA00060680143C8F8001000F008FA0600D8F881
:102BB000000010F038006168B0EBC10F08D000F0E1
:102BC000FDF9801B41F289318842F0D3032087E070
:102BD000207880070DD5DFF8BC13E0680A6812F092
:102BE0000F02904205D20A6812091201E0680243FE
:102BF0000A60386810F00F0085420BD2386800096F
:102C0000000128433860386810F00F00A84201D056
:102C1000012065E0207840070DD5DFF878132069A2
:102C20000A6812F07002904205D20A6832F070020F
:102C3000206902430A60207800070DD5DFF8581399
:102C400060690A6812F07002904205D20A6832F098
:102C50007002606902430A602078C0060DD5DFF873
:102C60003813A0690A6812F4E062904205D20A683B
:102C700032F4E062A06902430A60207880060DD534
:102C8000DFF81813E0690A6812F07002904205D26A
:102C90000A6832F07002E06902430A6000F022F82C
:102CA0000700DFF80C13DFF8EC020268C2F303221E
:102CB0008A5C12F01F02D740006810F00F00085C19
:102CC00010F01F003900C140DFF8C0020160DFF8DA
:102CD000B8020760DFF8B802006801F05FFAC0B21E
:102CE000BDE8F08110B4DFF89802006810F03800F9
:102CF000002806D0082813D0102814D0182815D082
:102D0000F9E0DFF878422068800606D5DFF8740223
:102D10002468C4F3C104E04001E0DFF86802EBE09E
:102D2000DFF89002E8E0DFF89002E5E0DFF87002FB
:102D3000046814F0030422000068C0F305100100C9
:102D4000DFF86002006810F001000300DFF85C02A9
:102D50000068C0F3CC0000FB03F002EE100AB8EEEE
:102D6000422AB0EE421A002900F0C380002A03D0A4
:102D7000022A6FD04FD38CE0DFF800020468A4066B
:102D800029D5DFF800420068C0F3C100C44002EE5C
:102D9000104AF0EE420AB8EE602A02EE901AF8EEFF
:102DA000622A82EE222ADFF800020068C005C00D08
:102DB00002EE900AF8EE622A9FED6B3A81EE033A3A
:102DC00072EE832AB7EE003A72EE832A22EE222AAE
:102DD000F0EE421A1EE002EE101AB8EE422ADFEDC3
:102DE000632A82EE822ADFF8C0010068C005C00DA8
:102DF00002EE900AF8EE622A9FED5B3A81EE033A0A
:102E000072EE832AB7EE003A72EE832A22EE222A6D
:102E1000F0EE421A5BE002EE101AB8EE422ADFED45
:102E2000542A82EE822A60480068C005C00D02EE76
:102E3000900AF8EE622A9FED4C3A81EE033A72EE68
:102E4000832AB7EE003A72EE832A22EE222AF0EEAF
:102E5000421A3CE002EE101AB8EE422ADFED452A93
:102E600082EE822A50480068C005C00D02EE900A2A
:102E7000F8EE622A9FED3C3A81EE033A72EE832A25
:102E8000B7EE003A72EE832A22EE222AF0EE421AC0
:102E90001DE002EE101AB8EE422ADFED352A82EE6E
:102EA000822A41480068C005C00D02EE900AF8EE83
:102EB000622A9FED2D3A81EE033A72EE832AB7EE35
:102EC000003A72EE832A22EE222AF0EE421A3648A7
:102ED0000068C0F34620401C02EE100AB0EE420A21
:102EE000B8EE402A81EE822ABCEEC22A12EE100A07
:102EF00000E0002000E02F4810BC704780B5FFF7CD
:102F0000F1FE010023482A4A0368C3F30323D35C7C
:102F100013F01F03D9401D4B006810F00F00105C28
:102F200010F01F000A00C2401A60174801601868BC
:102F300002BD80B5FFF7E2FF1D49174A1268C2F3D0
:102F40000212895C11F01F01C84002BD80B5FFF775
:102F5000D5FF1749104A1268C2F30222895C11F0AA
:102F60001F01C84002BD0000000000460024744C50
:102F70000024744A20BCBE4B00200052004402587A
:102F8000104402580090D0031000002014000020CC
:102F90000C000020184402581C44025820440258D7
:102FA000284402582C4402583044025834440258F1
:102FB000A47D000800093D0040787D0101480068BB
:102FC000704700BFD80600202DE9F84F00F02DFF14
:102FD00001F010F900F034FE00F08CFE00F055FF17
:102FE00000F0CCFF01F04CF8DFF8880900F048F958
:102FF0000121DFF8800900F0DCFAFFF773FEDFF84B
:10300000781908600020DFF874190860DFF870197B
:103010000860DFF870492060DFF86C592860DFF83D
:103020006C09002101600068DFF864190860002065
:10303000DFF8F01B08600020DFF858190860002056
:10304000DFF8E41B08600420DFF8E01B08700120B3
:10305000DFF844190860DFF84469DFF84479012299
:1030600031003800FDF7B1F9DFF83889D8F80000F1
:10307000642845DB2068022842DB300001F0F4F8C8
:10308000304410F8010C0A2806D1300001F0ECF8A9
:103090003044002100F8011CDFF80C99310048464B
:1030A00001F0FEF83100DFF8040901F0F9F8DFF86B
:1030B00000A9DFF8F8BA5A46DFF8F41A00F0F7F87A
:1030C000CAF80000484601F0CFF8020092B2494623
:1030D0003800FDF720F9DAF8000000280BD1DFF8FE
:1030E0009498DBF800204946300000F05BF900219D
:1030F000484600F05EFA0020C8F80000002020607A
:103100002068042832DB0020F070DFF8248B3000C8
:1031100000F0ADFAC8F80000D8F80000002811D17E
:10312000DFF884883200DFF88C1A404601F0C4F8DA
:10313000404601F099F8020092B241463800FDF78E
:10314000EAF810E0DFF860883200DFF8E81A40465D
:1031500001F0B2F8012241463800FDF7DCF8012009
:10316000DFF8181808600020206010E020680128AF
:103170000BDB28680B280ADB0020206088A13000C8
:1031800001F08EF80020286001E000202860DFF8C0
:103190005C8BD8F8000073280ED1DFF89C9A99F860
:1031A0000000002808D101220121DFF8440B01F0C2
:1031B000C5F9012089F80000D8F8040073280ED161
:1031C000DFF8749A99F80100002808D10122022141
:1031D000DFF8680A01F0B2F9012089F80100D8F897
:1031E000080073280FD1DFF8509A99F802000028E0
:1031F00009D101224FF48041DFF8F40A01F09EF971
:10320000012089F80200D8F8000078280ED1DFF8F4
:10321000289A99F80000012808D100220121DFF83E
:10322000D00A01F08BF9002089F80000D8F80400DA
:1032300078280ED1DFF8009A99F80100012808D10A
:1032400000220221DFF8F40901F078F9002089F862
:103250000100D8F8080078287FF406AFDFF8D88995
:1032600098F8020001287FF4FFAE00224FF480415D
:10327000DFF87C0A01F062F9002088F80200F3E62A
:1032800033210170342180F88010352180F800113D
:10329000362180F8801100214170002180F88110D2
:1032A000002180F80111002180F881117047F8B5E4
:1032B00086B004000D0016000027207858280DD194
:1032C000200000F0D1FF022806D36078522803D1F5
:1032D0000120DFF85019086038005EE020784728A8
:1032E00001D1380059E0200000F0BEFF022801D2D1
:1032F000012052E02078462825D02078522822D07C
:1033000020784C281FD0207842281CD020785828BC
:1033100019D020785A2816D02078432813D0207846
:10332000592810D020784A280DD0207855280AD066
:103330002078482807D020784E2804D020784D28BF
:1033400001D0012029E00122611C684601F032F918
:1033500000208DF80100684601F004FA3060002872
:1033600001D1012019E0200000F07EFF022803D1E6
:1033700042F20F7028600FE00422A11C03A801F0A4
:1033800019F900208DF8100003A801F0EBF928606E
:10339000002801D1012000E0380007B0F0BD000096
:1033A00000000000F8B504000D0016000A2000FB24
:1033B00006F05B2190FBF1F701FB17072078472807
:1033C0000DD100F08FF900206870002085F8810091
:1033D000002085F80101002085F88101E8E02078CF
:1033E00046280CD16F70FF2000FB07F085F88100A4
:1033F000FF2000FB07F085F8010185F88171207836
:1034000042280CD1FF2000FB07F0687085F881701E
:1034100085F80171FF2000FB07F085F88101207815
:103420004C2812D1FF2000FB07F06870FF2000FB42
:1034300007F085F88100FF2000FB07F085F8010107
:10344000FF2000FB07F085F881012078522806D183
:103450006F7085F8817085F8017185F88171207829
:103460005A280CD16F70FF2000FB07F085F881000F
:1034700085F80171FF2000FB07F085F881012078B5
:1034800043280CD1FF2000FB07F0687085F881709D
:10349000FF2000FB07F085F8010185F88171207895
:1034A00059280ED100206870FF2000FB07F085F836
:1034B0008100FF2000FB07F085F80101002085F85E
:1034C00081012078552808D16F70002085F881008F
:1034D000002085F8010185F8817120784A2808D1FB
:1034E0000020687085F8817085F80171002085F8EA
:1034F0008101207848280ED1FF2000FB07F068707A
:10350000002085F88100002085F80101FF2000FBE4
:1035100007F085F8810120784E281DD16F705FF08B
:10352000FF3000FB07F000EE100AB8EEC00B01EE12
:10353000107AB8EEC11BBEEE003B01EE030BBDEEF0
:10354000C00B10EE100A85F88100FF2000FB07F089
:1035500085F8010185F8817120784D281AD16F70A6
:10356000FF2000FB07F085F88100FF2000FB07F03B
:1035700085F8010100EE107AB8EEC00B01EE107B69
:10358000BAEEEF1B30EE010BBDEEC00B10EE100AD1
:1035900085F88101207858280AD100206870002021
:1035A00085F88100002085F80101002085F881015F
:1035B000F1BD7CB505000C00002C02D02800FFF7FF
:1035C0005FFE28788DF800006E466878707095F878
:1035D0008100B07095F80101F07095F881013071AB
:1035E00008236A466821DFF8900A01F027F9DFF81E
:1035F00034160868002809D00020DFF894231060F2
:103600000020DFF8882310600020086070785B28B5
:1036100007DBF0785B2804DB0320DFF81016087066
:1036200024E07078002807D0F0785B2804DB0020C5
:10363000DFF8F815087019E070785B2807DBF07880
:10364000002804D00220DFF8E41508700EE070783E
:10365000002807D0F078002804D00120DFF8CC152E
:10366000087003E00420DFF8C415087076BD70B55B
:103670000400DFF8BC550020286020784C2803D0D7
:103680000120286028682CE0DFF8906A601C01F0B7
:1036900069F830603068012802DB3068042803DBF9
:1036A0000120286028681CE0A07873280CD0A0783E
:1036B0006C2809D0A078682806D0A078782803D094
:1036C0000120286028680CE0DFF8540AA178016026
:1036D0000068DFF81816326801EB820141F8040C2B
:1036E000286870BDF8B5AB4C01202060A84D286853
:1036F000012816DB9F4E0222310090A0FFF752FEF8
:1037000000213000FFF755FF2868012804DBDFF8AF
:10371000180500680028F7D001213000FFF749FFA5
:1037200018E02868002815D5924E0222310084A0A6
:10373000FFF738FE00213000FFF73BFF2868002824
:1037400004D5DFF8E40400680028F7D00121300038
:10375000FFF72FFF8D4E3068012816DB854F0222C0
:10376000390082A0FFF71EFE00213800FFF721FF7D
:103770003068012804DBDFF8B00400680028F7D0C7
:1037800001213800FFF715FF18E03068002815D533
:10379000784F0222390076A0FFF704FE002138009E
:1037A000FFF707FF3068002804D5DFF87C040068C5
:1037B0000028F7D001213800FFF7FBFE0020286029
:1037C00000203060002020600020DFF85C140860DA
:1037D000F1BD1CB5040000208DF800002068DFF862
:1037E0004419884215D1DFF8400900688DF80000BF
:1037F00064480168802907DA9DF80010674A036869
:10380000D1540168491C0160012269462000FCF77F
:10381000DCFD2068DFF81419884226D101226946B0
:103820002000FCF7D2FDDFF8080900688DF80000E1
:103830005848006800280CD09DF80000472807D0A1
:103840009DF800000A2803D00120DFF8DC1308608F
:103850000BE04C480168802907DA9DF800104F4AB8
:103860000368D1540168491C016013BD1CB50400F4
:1038700000208DF800002068DFF8A818884219D1D0
:103880003F483E490A6803689A420DDA46480A688A
:10389000805C8DF800000868401C086001226946C1
:1038A0002000FCF738FD05E00A680068824201DB71
:1038B000002008602068DFF87418884219D1304869
:1038C0002E490A6803689A420DDA37480A68805C14
:1038D0008DF800000868401C08600122694620003D
:1038E000FCF719FD05E00A680068824201DB002050
:1038F000086013BD80B5DFF83C08FCF79FFD01BDF3
:1039000080B5DFF83408FCF799FD01BD80B5DFF81C
:103910002C0802F0D7F801BD80B5DFF8240802F0CA
:10392000D1F801BD80B5DFF81C0802F0CBF801BD6D
:1039300080B5DFF8140800F0D5FF01BD4232000069
:103940004632000080B5082000F005FE01BD80B5BC
:10395000102000F000FE01BD0168DFF8F027914261
:1039600003D10121DFF8E827116070474C320000D5
:10397000523200009C00002098060020840600209F
:10398000800600207C06002088060020C406002057
:10399000C0060020D0060020D4060020C40300206A
:1039A00030030020AC06002044040020C4040020A2
:1039B000A8060020F8B504002068B0F1804F6ED151
:1039C000DFF8285328686C2805D068686C2802D076
:1039D000A8686C2863D1DFF87C6700203060286815
:1039E0006C280CD1944F3878002808D1012201218D
:1039F000BF4800F0A3FD01203870012030606868E6
:103A00006C280CD18C4F7878002808D10122022133
:103A10008A4800F093FD0120787001203060A8688A
:103A20006C280DD1844FB878002809D101224FF4B9
:103A30008041AF4800F082FD0120B8700120306065
:103A40003068012800F0B18028686C280AD17A4ECD
:103A50003078012806D100220121A54800F06EFD32
:103A60000020307068686C280AD1734E7078012885
:103A700006D100220221714800F060FD0020707024
:103A8000A8686C280BD16C4DA878012807D10022BA
:103A90004FF48041964800F051FD0020A870206846
:103AA000DFF8B41688426CD1904D2868682805D09C
:103AB0006868682802D0A868682862D1DFF89C6628
:103AC00000203060286868280CD15B4F38780028C7
:103AD00008D101220121864800F030FD0120387014
:103AE00001203060686868280CD1534F787800282E
:103AF00008D101220221514800F020FD01207870F8
:103B000001203060A86868280DD14B4FB878002894
:103B100009D101224FF48041754800F00FFD0120CA
:103B2000B87001203060306801283ED028686828CD
:103B30000AD1414E3078012806D1002201216C487B
:103B400000F0FCFC00203070686868280AD13A4E0A
:103B50007078012806D100220221384800F0EEFCDE
:103B600000207070A86868280BD1334DA878012810
:103B700007D100224FF480415D4800F0DFFC0020B7
:103B8000A8702068DFF8D81588420ED1DFF8D40578
:103B90000168491C0160DFF8D0050168491C01601B
:103BA000DFF8C8050168491C0160F1BDB4060020BA
:103BB000B0060020D07D000810B50400200080B2BF
:103BC00008282ED1210089B2DFF8A40500F0ABFC53
:103BD000012826D115490878042822D00878002821
:103BE00005D1DFF898040168491C016019E00878E4
:103BF000022805D1DFF884040168491E016010E045
:103C00000878012805D1DFF86C050168491C0160BE
:103C100007E00878032804D1DFF858050168491E39
:103C2000016010BDC8060020CC060020E006002080
:103C30008C060020C47D0008A40600200010025855
:103C400010B59CB04C21002209AC200002F078F89D
:103C50002021002201AC200002F072F8022002F0C4
:103C6000A3F800200090DFF810050168490849001A
:103C70000160006810F001000090DFF800050121EC
:103C8000026861F38F320260016811F440410091D3
:103C9000009901688904FCD50220099001200C904C
:103CA00040200D900020129009A802F0A9F80028E9
:103CB00001D000F06FFA3F20019000200290002018
:103CC0000390002004900020059000200690002022
:103CD000079000200890012101A8FEF7BBFE0028F4
:103CE00001D000F057FA1CB010BD00000000002009
:103CF0000004025838B586B0142100226C4620001A
:103D000002F01EF8DFF87804016851F0020101604A
:103D1000016811F0020105910599016851F008014F
:103D20000160016811F0080105910599016851F0E1
:103D300010010160016811F01001059105990168F9
:103D400051F001010160016811F00101059105992F
:103D5000016851F004010160006810F00400059052
:103D60000598DFF8204400224FF48041200000F045
:103D7000E5FB4FF48040009001200190022002906A
:103D8000002003906946200000F0B6FADFF8F853EF
:103D900000220221280000F0D1FB02200090012027
:103DA000019002200290002003906946280000F054
:103DB000A3FA00220121200000F0C0FB01200090A6
:103DC000012001900220029000200390694620000B
:103DD00000F092FA082000905FF488140194022009
:103DE000029003200390E24D6946280000F084FA17
:103DF00000220221092002F0FEFB092002F00DFC46
:103E00001020009001940220029003200390694644
:103E1000280000F071FA002202210A2002F0EBFBD8
:103E20000A2002F0FAFB07B030BD1FB510210022B6
:103E30006C46200001F084FF02F0FCFB01208DF8AD
:103E4000000000208DF80100002001901F208DF857
:103E5000080087208DF8090000208DF80A00002056
:103E60008DF80B0001208DF80C0001208DF80D005D
:103E700000208DF80E0000208DF80F00684602F03B
:103E8000F2FB042002F0E1FB1FBD70B586B0BF4815
:103E9000016851F400310160016811F400310591AD
:103EA0000599016851F480210160006810F48020B8
:103EB00005900598142100226C46200001F040FF77
:103EC00060200090022001900120029003200390C6
:103ED00007200490A64E6946300000F00DFA954C7C
:103EE000904820605FF4E13565600020A06000200C
:103EF000E060002020610C2060610020A0610020B3
:103F0000E0614FF440700090022001900120029087
:103F100003200390072004906946300000F0ECF97C
:103F2000854E8248306075600020B0600020F060EF
:103F3000002030610C2070610020B0610020F06131
:103F400000220121262002F056FB262002F065FB0C
:103F500000220121272002F04EFB272002F05DFB0A
:103F60002000FCF799F9002800D0FEE73000FCF7AC
:103F700093F9002800D0FEE706B070BD7CB58348F9
:103F8000016851F001010160016811F00101009127
:103F90000099016851F002010160016811F002010D
:103FA00000910099016851F004010160006810F06F
:103FB000040000900098614C5FF08040206041F662
:103FC000FF0060600021A16042F20F71E1600021FA
:103FD00021610021A1615A4D5F492960686000217B
:103FE000A96041F28731E960002129610021A961BE
:103FF000544E5B49316070600020B0600A20F06070
:10400000002030610020B061200001F0BDFC0028DC
:1040100001D000F0BFF8280001F0B6FC002801D064
:1040200000F0B8F8300001F0AFFC002801D000F03B
:10403000B1F8002203211C2002F0DDFA1C2002F05E
:10404000ECFA002202211D2002F0D5FA1D2002F018
:10405000E4FA002200211E2002F0CDFA1E2002F018
:10406000DCFA200001F0CDFC280001F0CAFC300091
:1040700001F0C7FC73BD000044050020C00600200D
:1040800010B586B04148016851F400110160006824
:1040900010F40010009000981421002201AC2000C0
:1040A00001F04EFE4FF4407001901220029001206A
:1040B0000390032004900420059001A9314800F0EA
:1040C0001BF9214C21482060314860600020A0602D
:1040D0000120E06000202061002060610020A061DC
:1040E0000020E06100202062200000F041FB2068F9
:1040F000006850F0420021680860002200211F2063
:1041000002F079FA1F2002F088FA200000F030FB5C
:10411000002800D0FEE706B010BD00009006002089
:104120009406002000440040244400400048004021
:10413000244800409C020020300300209805002005
:10414000E405002030060020440500200054004013
:10415000BC0600209C06002000040040A0060020B1
:104160000008004088060020AC060020B8060020A9
:10417000000C0258C40600202C04005818480258AD
:10418000E04402580004025800100258E844025863
:104190006C21C00072B6FEE770472E0010B5040017
:1041A00011490878002801D101201BE04FF47A70F2
:1041B0000978B0FBF1F00D490968B1FBF0F002F0AD
:1041C00033FA002801D001200CE0102C09D2002283
:1041D00021005FF0FF3002F00EFA05480460002075
:1041E00000E0012010BD00BF98000020100000205A
:1041F0000C00002010B5032002F0F7F9FEF772FD65
:104200000400DFF85000DFF850100268C2F3032208
:104210008A5C12F01F02D440006810F00F00085CA6
:1042200010F01F002100C140DFF830000160DFF80E
:10423000300004600F20FFF7B1FF002801D00120FB
:1042400002E002F057FA002010BDDFF81800006805
:10425000000C704718440258A47D00081400002088
:10426000100000200010005C00F10103810704D061
:1042700010F8011B820781B1FAD10268A2F1013165
:10428000914311F0803104BF50F8042FF6E709BACA
:10429000B1FA81F100EBD100401CC01A7047430015
:1042A0005FEA000C11F8012B00F8012B12B111F894
:1042B000012BF9E7604670470CB430B583B00A466D
:1042C00006A90291044600250194009502AB01A9BC
:1042D000084878441E3002F01DFA019A1570002833
:1042E0004EBF04460198041B204603B030BC5DF865
:1042F0000CFB00BFB7D7FFFFF8B503000025DFF8C0
:1043000078620868E840002800F00C810127D1F8A5
:1043100000C017FA05F010EA0C0C6246002A00F003
:10432000FF80087910F00300012804D0087910F00C
:10433000030002281FD1D3F808C05FF0030E280045
:10434000C0B240001EFA00FE3CEA0E0CD1F80CE0B0
:104350002800C0B240001EFA00FE5EEA0C0CC3F852
:1043600008C05868AF40B8434F68C7F30017AF4064
:10437000384304005C60087910F00300032814D06F
:10438000DF685FF0030C2800C0B240001CFA00FC9C
:1043900037EA0C07D1F808C02800C0B240001CFA68
:1043A00000FC5CEA07073C00DC60087910F00300C1
:1043B00002281ED12800C00803EB8000076A5FF0C6
:1043C0000F0C15F00700C0B280001CFA00FC37EAA1
:1043D0000C07D1F810C015F00700C0B280001CFA1D
:1043E00000FC5CEA07073C002800C00803EB8000E3
:1043F00004621F685FF0030C2800C0B240001CFA82
:1044000000FC37EA0C0791F804C01CF0030C2800EC
:10441000C0B240001CFA00FC5CEA07073C001C60CC
:10442000486810F4403F7BD0DFF85001076857F030
:1044300002070760006810F0020000900098DFF8A3
:1044400040C1280080085CF820705FF00F0E15F066
:104450000300C0B280001EFA00FE37EA0E07DFF844
:104460002401834201D100242DE04748834201D139
:10447000012428E04548834201D1022423E0444836
:10448000834201D103241EE04248834201D1042427
:1044900019E04148834201D1052414E03F4883429A
:1044A00001D106240FE03E48834201D107240AE0EF
:1044B0003C48834201D1082405E03B48834201D1B6
:1044C000092400E00A2415F00300C0B280008440F3
:1044D0002743280080084CF820705FF0B044206823
:1044E0009043D1F804C05FEACC2C00D51043206083
:1044F0002E4F3C689443D1F804C05FEA8C2C00D561
:1045000014433C60706890434F68BF0300D510436C
:104510007060346894434F68FF0300D514433460DF
:104520006D1CEEE6F1BD020010690B009BB2184253
:1045300001D0012000E00020C0B270471300DBB2C0
:10454000002B03D00B009BB2836103E00B009BB2F6
:104550001B048361704710B50400154801682200F0
:1045600092B2114206D0210089B20160200080B2CF
:10457000FFF722FB10BD000080000058F4440258F1
:1045800008040058000002580004025800080258AD
:10459000000C02580010025800140258001802586B
:1045A000001C025800200258002402580400005841
:1045B0008800005801B58B071AD1830724D1121F38
:1045C00021D351F8043BA3F1013C2CEA030C1CF06D
:1045D000803C04BF40F8043BF1E79CFA8CFCBCFA39
:1045E0008CF1C1F118018B40CB4040F8043B13E043
:1045F000042A09D311F8013B521E00F8013B5BB1BC
:104600008B07F7D1D9E7121D5AB111F8013B521EA1
:1046100000F8013B03B1F8D111001CBF002201F0EA
:1046200093FB01BD2DE9F84F84B00E4617460BB140
:1046300000221A600446A04601E008F1010898F83B
:10464000000002F0FEFF0028F7D198F800002D28A6
:1046500016BF2B2818F8015B2B25002F019603D4D9
:10466000012F01D0252F03DB002E55D0346053E0FD
:10467000002F0CDD102F04BF98F80000302802BF77
:1046800098F8010040F02000782811D10CE098F84B
:104690000000302818BF0A270AD198F8010040F01E
:1046A0002000782803D1102708F1020800E008272D
:1046B000CDF80C8001E008F1010898F800003028DE
:1046C000F9D0064E7E4414364FF0000906F128005A
:1046D000CDF80880CA468DF800000BE03C3500009C
:1046E0009DF80010401ACA465FFA80FB07FB09B923
:1046F00008F1010898F8000002F0ADFF01463A46C3
:1047000006F1280002F0B2FF0028E9D103994145E3
:1047100004D1019800B10460002020E00299F05D0E
:10472000A8EB0101081A002810D406DCB9EB0B0134
:1047300003D3B1FBF7F0504508D0AFF300800498E5
:1047400008B1012101604FF0FF3903E02D2D08BFB2
:10475000C9F10009019808B1C0F80080484605B0C9
:10476000BDE8F08FFFE700230A2200215AE700008E
:1047700010B50400002C01D101205EE094F8410046
:10478000002805D1002084F84000200002F09AFFA4
:10479000242084F841002068006840084000216817
:1047A0000860606830F07060216808612068806887
:1047B00030F4004021688860E068012805D1A068D5
:1047C00050F400402168886004E0A06850F4044080
:1047D00021688860E068022803D14FF400602168F6
:1047E00048602068406840F0007050F40040216844
:1047F00048602068C06830F400402168C8602169C2
:1048000060690143A06951EA00212068C160E16943
:10481000206A0143206801602068006850F00100B0
:104820002168086000206064202084F84100002096
:104830002063002084F84200002010BD2DE9FC41D7
:1048400004000D0016001F0094F8410020283FD1FD
:1048500020688069000401D502203AE094F8400005
:10486000012801D1022034E0012084F840002120F9
:1048700084F84100102084F84200002060646662E1
:104880006785DFF85800E062DFF854006063608DF0
:10489000B0F5807F04D3FF2020855FF0807803E0AF
:1048A000608D20855FF00078DFF82C000090434693
:1048B000228DD2B2290089B2200000F0BBFF002077
:1048C00084F840000121200000F0CDFF002000E02E
:1048D0000220BDE8F6810000002000800000FFFFFC
:1048E0000549000870B504002068856920680668DD
:1048F000606B002804D0320029002000636B9847C9
:1049000070BD00002DE9FC4104000D001600A84612
:1049100094F84000012801D10220B4E0012084F87D
:1049200040005FEAC8600CD5F0060AD51020216867
:10493000C861606C50F004006064200000F04FFF1C
:1049400094E05FEA487011D570070FD538F004087D
:104950002068406A616A0870606A401C6062208D4D
:10496000401E2085608D401E60857FE05FEA887074
:104970000FD5B0070DD5606A007821688862606A3B
:10498000401C6062208D401E2085608D401E608529
:104990006CE05FEA086049D5700647D5608D002855
:1049A00037D0208D002834D1206840688005800DE4
:1049B0000700608DB0F5807F0DD3FF20208500209B
:1049C00000905FF08073228DD2B2390089B220004E
:1049D00000F030FF4AE0608D2085E06ADFF80C16B9
:1049E00088420AD000200090E36A228DD2B23900BA
:1049F00089B2200000F01EFF38E0002000905FF038
:104A00000073228DD2B2390089B2200000F012FF6B
:104A10002CE020684068800103D4200000F056FBA1
:104A200024E04021200000F0F9FD1FE05FEA48602B
:104A30001CD570061AD5608D002813D120684068F7
:104A4000800113D4E06ADFF8A415884206D12068FB
:104A5000406850F480402168486007E0200000F082
:104A600035FB03E04021200000F0D8FD5FEA8860BC
:104A700005D5B00603D54146200000F094FB002088
:104A800084F840000020BDE8F68100002DE9F041E7
:104A900005000E001700EC6AB04695F840000128AA
:104AA00001D1022092E0012085F840005FEA886091
:104AB00005D5B80603D54146280000F001FC5FEAA1
:104AC000C86037D5F80635D5688D002821D195F80E
:104AD0004100282807D1B4F1007F04D141462800C5
:104AE00000F067FD6EE095F8410029280DD1DFF850
:104AF000FC04844209D010202968C861280000F015
:104B00006EFE280000F00FFB5CE010202968C861F1
:104B100058E010202968C861686C50F0040068648F
:104B2000002C02D0B4F1807F4CD1696C280000F0D9
:104B300075FD47E05FEA48701CD578071AD5688D87
:104B400000280CD02868406A696A0870686A401CAE
:104B50006862288D401E2885688D401E6885688D96
:104B600000282FD1DFF8840484422BD0280000F0E5
:104B7000DAFA27E05FEA087006D5380704D541461F
:104B8000280000F035FA1DE05FEA88701AD5B807F2
:104B900018D5688D00280DD0686A00782968886269
:104BA000686A401C6862688D401E6885288D401EBA
:104BB000288507E0B4F1807F01D0002C02D12800C5
:104BC00000F0B1FA002085F840000020BDE8F08137
:104BD0002DE9FC4104000D00160094F84000012866
:104BE00001D1022097E0012084F84000E80610D5AA
:104BF000F0060ED510202168C861606C50F00400EA
:104C000060642021200000F02EFE200000F0E7FD6F
:104C10007DE0280653D5700651D52068006830F035
:104C2000400021680860608D00283BD02068406803
:104C30008005800D0700608DB0F5807F05D3FF20D3
:104C400020855FF0807080460CE0608D2085E06AF2
:104C5000DFF89813884202D0E06A804602E05FF0F5
:104C600000708046002000904346228DD2B2390069
:104C700089B2200000F0DEFD618D208D091A61856A
:104C800094F84100222806D12068006850F40040C2
:104C9000216808603BE02068006850F4804021688B
:104CA000086034E020684068800103D4200000F0F0
:104CB0000DFA2CE04021200000F0B0FC27E068064F
:104CC0001DD570061BD5608D002813D12068406863
:104CD00080011CD4E06ADFF81413884206D12068F2
:104CE000406850F480402168486010E0200000F0E7
:104CF000EDF90CE04021200000F090FC07E0A80650
:104D000005D5B00603D52900200000F04CFA00209C
:104D100084F840000020BDE8F68100002DE9F8434A
:104D200006000F009046F46A5FF0000996F8400014
:104D3000012801D1022056E1012086F84000B80682
:104D400006D55FEA886003D53900300000F0B8FA74
:104D5000F80640F13B815FEAC86040F1378118F402
:104D6000404F00F02F81F06B00286DD05FEA0840C3
:104D70006AD5F06B0068DFF8F019884259D0F06B03
:104D80000068DFF8E819884253D0F06B0068DFF85C
:104D9000E01988424DD0F06B0068DFF8D8198842DE
:104DA00047D0F06B0068DFF8D019884241D0F06B33
:104DB0000068DFF8C81988423BD0F06B0068DFF864
:104DC000C019884235D0F06B0068DFF8B819884206
:104DD0002FD0F06B0068DFF8B019884229D0F06B53
:104DE0000068DFF8A819884223D0F06B0068DFF86C
:104DF000A01988421DD0F06B0068DFF8981988422E
:104E000017D0F06B0068DFF89019884211D0F06B72
:104E10000068DFF8881988420BD0F06B0068DFF873
:104E20008019884205D0F06B0068DFF87819884255
:104E300003D1F06B0068406802E0F06B00684068E6
:104E4000002801D101208146B06B00286DD05FEAB7
:104E500048406AD5B06B0068DFF80C19884259D019
:104E6000B06B0068DFF80419884253D0B06B00685B
:104E7000DFF8FC1888424DD0B06B0068DFF8F418FA
:104E8000884247D0B06B0068DFF8EC18884241D008
:104E9000B06B0068DFF8E41888423BD0B06B006864
:104EA000DFF8DC18884235D0B06B0068DFF8D41822
:104EB00088422FD0B06B0068DFF8CC18884229D028
:104EC000B06B0068DFF8C418884223D0B06B00686C
:104ED000DFF8BC1888421DD0B06B0068DFF8B4184A
:104EE000884217D0B06B0068DFF8AC18884211D048
:104EF000B06B0068DFF8A41888420BD0B06B006874
:104F0000DFF89C18884205D0B06B0068DFF8941871
:104F1000884203D1B06B0068406802E0B06B006863
:104F20004068002801D101208146B9F1010F20D14C
:104F300096F84100282807D1B4F1007F04D1390048
:104F4000300000F036FB4AE096F8410029280CD1E9
:104F50002648844209D010203168C861300000F032
:104F60003EFC300000F0DFF839E010203168C86105
:104F700035E010203168C861706C50F00400706436
:104F800096F841000500002C02D0B4F1807F26D1B4
:104F90002800C0B2212803D02800C0B2292802D19D
:104FA0002120306309E02800C0B2222803D0280065
:104FB000C0B22A2801D122203063716C300000F089
:104FC0002DFB0CE010203168C86108E0380706D5D9
:104FD0005FEA087003D53900300000F009F80020BE
:104FE00086F840000020BDE8F28300000000FFFFCB
:104FF0002DE9F84304000D0094F8410010F028005A
:1050000028285BD120688069000C10F001000600A0
:1050100020688069000C10F0FE000700206880689E
:105020008005800D80462068C06810F0FE00814633
:10503000E068022832D1380080B210F00600414604
:1050400089B2C90911F00601884216D14746A06C01
:10505000401CA064A06C022836D10020A064082067
:105060002168C861002084F840003A0092B2310003
:10507000C9B2200002F027FB26E04F464FF4004162
:10508000200000F043FC002084F840003A0092B277
:105090003100C9B2200002F016FB15E04FF40041C8
:1050A000200000F033FC002084F840003A0092B267
:1050B0003100C9B2200002F006FB05E0082021689B
:1050C000C861002084F84000BDE8F18310B50400F9
:1050D000002084F8420094F84100212811D12020BA
:1050E00084F841001120206300206063012120002A
:1050F00000F00CFC002084F840002000FEF72CFC9F
:1051000010E0202084F8410012202063002060631A
:105110000221200000F0FAFB002084F8400020006B
:1051200002F0D2FA10BD38B50400206805680020EE
:1051300084F84200680406D52068006830F4804096
:105140002168086007E0280405D52068006830F46D
:1051500000402168086094F8410029280FD12820D8
:1051600084F84100212020630121200000F0CEFBC3
:10517000002084F84000200002F0A7FA12E094F822
:1051800041002A280ED1282084F8410022202063E3
:105190000221200000F0BAFB002084F8400020002B
:1051A00002F094FA31BDF8B505000E00370020205A
:1051B0002968C86195F84100212806D101212800FD
:1051C00000F0A4FB1120286309E095F84100222893
:1051D00005D10221280000F099FB122028632868DD
:1051E0004168DFF8200601402868416000206863BC
:1051F000DFF83C06E862F80606D510202968C86189
:10520000686C50F00400686495F84100602806D18D
:10521000780704D52868406AC0B20090009828003A
:1052200000F0DDFA6C6C95F84100602801D0002C8C
:1052300004D0696C280000F0F1F940E095F84100D5
:1052400021281CD1202085F841000020286395F8F2
:105250004200402809D1002085F84200002085F84E
:105260004000280002F033FA29E0002085F84200CF
:10527000002085F840002800FEF76EFB1FE095F83F
:10528000410022281BD1202085F8410000202863FE
:1052900095F84200402809D1002085F842000020FE
:1052A00085F84000280002F013FA08E0002085F895
:1052B0004200002085F84000280002F005FAF1BD08
:1052C0002DE9F84304000D00206806682F0094F8CB
:1052D000418020202168C8614046C0B2212803D007
:1052E0004046C0B2292807D148F20101200000F051
:1052F0000DFB212020630EE04046C0B2222803D0DF
:105300004046C0B22A2806D148F20201200000F02F
:10531000FDFA222020632068406850F40040216894
:10532000486020684168DFF8DC0401402068416083
:10533000200000F054FA700472D52068006830F440
:10534000804021680860A06B002800F0CF80A06B2F
:105350000068DFF81414884259D0A06B0068DFF8A9
:105360000C14884253D0A06B0068DFF80414884204
:105370004DD0A06B0068DFF8FC13884247D0A06BCB
:105380000068DFF8F413884241D0A06B0068DFF8B2
:10539000EC1388423BD0A06B0068DFF8E41388422E
:1053A00035D0A06B0068DFF8DC1388422FD0A06BEB
:1053B0000068DFF8D413884229D0A06B0068DFF8BA
:1053C000CC13884223D0A06B0068DFF8C413884256
:1053D0001DD0A06B0068DFF8BC13884217D0A06B0B
:1053E0000068DFF8B413884211D0A06B0068DFF8C2
:1053F000AC1388420BD0A06B0068DFF8A41388427E
:1054000005D0A06B0068DFF89C13884203D1A06B25
:105410000068406802E0A06B00684068608565E055
:10542000300463D52068006830F4004021680860CB
:10543000E06B00285AD0E06B0068DFF82C1388423C
:105440004CD0E06B0068DFF82413884246D0E06B54
:105450000068DFF81C13884240D0E06B0068C54943
:1054600088423BD0E06B0068C349884236D0E06B8D
:105470000068C249884231D0E06B0068C049884268
:105480002CD0E06B0068BF49884227D0E06B0068F1
:10549000BD49884222D0E06B0068BC4988421DD0DB
:1054A000E06B0068BA49884218D0E06B0068B949DF
:1054B000884213D0E06B0068B74988420ED0E06B99
:1054C0000068B649884209D0E06B0068B449884258
:1054D00004D0E06B0068B349884203D1E06B0068F8
:1054E000406802E0E06B006840686085780711D58D
:1054F00037F004072068406A616A0870606A401CDF
:105500006062208D002805D0208D401E2085608D92
:10551000401E6085608D002803D0606C50F0040050
:105520006064002084F8420000206063606C002802
:105530000CD0616C200000F071F894F8410028282C
:1055400035D13900200000F034F830E0DFF8A893BE
:10555000E06A484510D02000FFF7E5FDC4F82C9024
:10556000202084F8410000202063002084F84000BF
:10557000200002F0AEF81AE094F8410022280BD186
:10558000202084F8410000202063002084F840009F
:10559000200002F09BF80AE0202084F8410000205F
:1055A0002063002084F84000200002F08EF8BDE85F
:1055B000F18338B504000D00DFF83C03E062002001
:1055C0002063202084F84100002084F8420000205D
:1055D0006063680713D52068406A616A0870606A72
:1055E000401C6062208D002809D0208D401E20853F
:1055F000608D401E6085606C50F00400606448F26D
:105600000301200000F082F910202168C861002009
:1056100084F84000200002F05CF831BDF8B50400C9
:105620000D0094F84160002084F84200DFF8000289
:10563000E06200206085606C284360643000C0B286
:10564000282807D03000C0B2292803D03000C0B2CB
:105650002A280AD10321200000F058F9282084F8D4
:105660004100DFF89802606322E048F20301200065
:1056700000F04CF9200000F0B2F894F841006028E6
:1056800014D0202084F841002068806980060DD560
:1056900020688069C00606D510202168C861606C4A
:1056A00050F00400606420202168C861002060631D
:1056B000276BA06B002827D0112F01D0212F23D1D9
:1056C00020680068400405D52068006830F48040F8
:1056D00021680860A06BFCF74DFE012810D00FF286
:1056E0002910A16B0865002084F84000A06BFCF72E
:1056F00047FC002836D0A06BA16B096D884731E0CC
:10570000200000F051F82DE0E06B002827D0122F88
:1057100001D0222F23D120680068000405D520681D
:10572000006830F4004021680860E06BFCF722FE5E
:10573000012810D00FF2D100E16B0865002084F839
:105740004000E06BFCF71CFC00280BD0E06BE16B29
:10575000096D884706E0200000F026F802E02000EE
:1057600000F022F8F1BD00001000024028000240C5
:105770004000024058000240700002408800024091
:10578000A0000240B8000240100402402804024079
:105790004004024058040240700402408804024061
:1057A000A0040240B804024010B5040094F841007F
:1057B00060280BD1202084F84100002020630020C5
:1057C00084F84000200001F085FF07E000202063FE
:1057D000002084F84000200001F07DFF10BD01682A
:1057E0008969890702D50021026891620168896987
:1057F000C90705D40168896951F001010268916106
:105800007047000000E800FE38B50400A56BA86BE7
:10581000002802D00020A96B0865E86B002802D0A0
:105820000020E96B08652800FFF7BEFF31BD0000CE
:105830000000FFFFF0B4049C0D00ADB2AD05AD0D4E
:105840001600F6B255EA06451D43254325F00045EE
:10585000066876682A4F57EA5457BE432E430768B6
:105860007E60F0BC704710B40022436B254CA3420D
:1058700003D0436B244CA34218D10B009BB21B04F2
:1058800001D552F0B8020B009BB2102B01D152F09F
:1058900090020B009BB2202B01D152F060020B0052
:1058A0009BB2402B20D152F040021DE00B009BB276
:1058B0001B0401D552F0B8020B009BB2DB0701D5E7
:1058C00052F0F2020B009BB29B0701D552F0F4029A
:1058D0000B009BB2102B01D152F090020B009BB237
:1058E000202B01D152F0200203681B681343046887
:1058F000236010BC704700000000FFFF8D4A0008C5
:10590000FF63FF03D14B00081D4D000810B40022B7
:105910000B009BB2DB0709D552F0420290F84130F0
:1059200013F02803282B01D052F0B0020B009BB2D9
:105930009B0709D552F0440290F8413013F0280338
:10594000282B01D052F0B0020B009BB21B0401D5F2
:1059500052F0B8020B009BB2102B01D152F0900212
:105960000B009BB2202B01D152F020020B009BB206
:10597000402B01D152F0400203681B689343046836
:10598000236010BC7047000010B50400002C01D14A
:10599000012035E094F83D00002805D1002084F86E
:1059A0003C00200001F098FE022084F83D00211DFB
:1059B000206800F051F9012084F84800012084F8A3
:1059C0003E00012084F83F00012084F840000120BF
:1059D00084F84100012084F84200012084F843004B
:1059E000012084F84400012084F84500012084F857
:1059F0004600012084F84700012084F83D00002083
:105A000010BD010091F83D00012801D0012048E0BF
:105A1000022081F83D000868C06850F001000B6862
:105A2000D8600868DFF87C30984221D00868B0F16F
:105A3000804F1DD00868DFF87030984218D0086891
:105A4000DFF86830984213D00868DFF86430984275
:105A50000ED00868DFF85C30984209D00868DFF89B
:105A60005830984204D00868DFF85030984211D17D
:105A700008688368DFF8480003401A00062A0FD040
:105A8000B2F5803F0CD00868006850F001000B6848
:105A9000186005E00868006850F001000B681860A5
:105AA0000020704700000140000400400008004052
:105AB000000C00400004014000180040004001407C
:105AC0000700010010B504002068006980071AD59E
:105AD0002068C068800716D57FF002002168086141
